{"abi":[{"inputs":[{"internalType":"address","name":"erc20_","type":"address"}],"stateMutability":"nonpayable","type":"constructor","name":"constructor"},{"inputs":[{"internalType":"uint8","name":"","type":"uint8"}],"name":"allowance","outputs":[{"internalType":"address","name":"owner","type":"address"},{"internalType":"address","name":"delegate","type":"address"},{"internalType":"uint256","name":"numOfTokens","type":"uint256"}],"stateMutability":"view","type":"function"},{"inputs":[{"internalType":"address","name":"delegate","type":"address"},{"internalType":"uint256","name":"numOfTokens","type":"uint256"},{"internalType":"uint8","name":"currentversion","type":"uint8"}],"name":"approve","outputs":[{"internalType":"bool","name":"","type":"bool"}],"stateMutability":"nonpayable","type":"function"},{"inputs":[{"internalType":"address","name":"","type":"address"}],"name":"balanceExceeds","outputs":[{"internalType":"uint256","name":"","type":"uint256"}],"stateMutability":"view","type":"function"},{"inputs":[{"internalType":"uint8","name":"","type":"uint8"}],"name":"balances","outputs":[{"internalType":"address","name":"owner","type":"address"},{"internalType":"uint256","name":"numOfTokens","type":"uint256"}],"stateMutability":"view","type":"function"},{"inputs":[{"internalType":"uint8","name":"numAllow","type":"uint8"}],"name":"getAllowance","outputs":[{"internalType":"address","name":"","type":"address"},{"internalType":"address","name":"","type":"address"},{"internalType":"uint256","name":"","type":"uint256"},{"internalType":"uint8","name":"","type":"uint8"}],"stateMutability":"view","type":"function"},{"inputs":[{"internalType":"address","name":"add","type":"address"}],"name":"getBalance","outputs":[{"internalType":"uint256","name":"","type":"uint256"},{"internalType":"uint8","name":"","type":"uint8"}],"stateMutability":"view","type":"function"},{"inputs":[{"internalType":"uint8","name":"numBalance_","type":"uint8"}],"name":"getBalanceStruct","outputs":[{"internalType":"address","name":"","type":"address"},{"internalType":"uint256","name":"","type":"uint256"},{"internalType":"uint8","name":"","type":"uint8"}],"stateMutability":"view","type":"function"},{"inputs":[],"name":"getMyBalanceExceed","outputs":[{"internalType":"uint256","name":"","type":"uint256"},{"internalType":"uint8","name":"","type":"uint8"},{"internalType":"address","name":"","type":"address"},{"internalType":"address","name":"","type":"address"},{"internalType":"uint256","name":"","type":"uint256"},{"internalType":"uint256","name":"","type":"uint256"}],"stateMutability":"nonpayable","type":"function"},{"inputs":[],"name":"getNameSymbolSupply","outputs":[{"internalType":"string","name":"","type":"string"},{"internalType":"string","name":"","type":"string"},{"internalType":"uint256","name":"","type":"uint256"},{"internalType":"uint8","name":"","type":"uint8"},{"internalType":"address","name":"","type":"address"},{"internalType":"address","name":"","type":"address"},{"internalType":"uint256","name":"","type":"uint256"},{"internalType":"uint256","name":"","type":"uint256"}],"stateMutability":"view","type":"function"},{"inputs":[],"name":"getNumAllowance","outputs":[{"internalType":"uint8","name":"","type":"uint8"}],"stateMutability":"view","type":"function"},{"inputs":[],"name":"getNumBalances","outputs":[{"internalType":"uint8","name":"","type":"uint8"}],"stateMutability":"view","type":"function"},{"inputs":[{"internalType":"address","name":"add","type":"address"}],"name":"getOnlyBalance","outputs":[{"internalType":"uint256","name":"","type":"uint256"}],"stateMutability":"view","type":"function"},{"inputs":[],"name":"getSellDetails","outputs":[{"internalType":"address","name":"","type":"address"},{"internalType":"uint256","name":"","type":"uint256"},{"internalType":"uint256","name":"","type":"uint256"},{"internalType":"uint8","name":"","type":"uint8"},{"internalType":"address","name":"","type":"address"},{"internalType":"address","name":"","type":"address"},{"internalType":"uint256","name":"","type":"uint256"},{"internalType":"uint256","name":"","type":"uint256"}],"stateMutability":"view","type":"function"},{"inputs":[],"name":"receiveMoney","outputs":[{"internalType":"bool","name":"","type":"bool"}],"stateMutability":"payable","type":"function"},{"inputs":[{"internalType":"address","name":"owner_","type":"address"},{"internalType":"address","name":"delegate","type":"address"},{"internalType":"uint256","name":"numOfTokens","type":"uint256"},{"internalType":"uint8","name":"currentversion","type":"uint8"}],"name":"setAllowance","outputs":[{"internalType":"bool","name":"","type":"bool"}],"stateMutability":"nonpayable","type":"function"},{"inputs":[{"internalType":"address","name":"add","type":"address"},{"internalType":"uint256","name":"amount","type":"uint256"},{"internalType":"uint8","name":"currentversion","type":"uint8"}],"name":"setBalance","outputs":[{"internalType":"bool","name":"","type":"bool"}],"stateMutability":"nonpayable","type":"function"},{"inputs":[{"internalType":"uint256","name":"newPrice","type":"uint256"},{"internalType":"uint8","name":"currentversion","type":"uint8"}],"name":"setPriceForToken","outputs":[{"internalType":"bool","name":"","type":"bool"}],"stateMutability":"nonpayable","type":"function"},{"inputs":[{"internalType":"uint256","name":"price","type":"uint256"},{"internalType":"uint256","name":"numSellTokens","type":"uint256"},{"internalType":"uint8","name":"currentversion","type":"uint8"}],"name":"setSellTokens","outputs":[{"internalType":"bool","name":"","type":"bool"}],"stateMutability":"nonpayable","type":"function"},{"inputs":[{"internalType":"uint256","name":"newTokens","type":"uint256"},{"internalType":"uint8","name":"currentversion","type":"uint8"}],"name":"setTokens","outputs":[{"internalType":"bool","name":"","type":"bool"}],"stateMutability":"nonpayable","type":"function"},{"inputs":[{"internalType":"address","name":"receiver","type":"address"},{"internalType":"uint256","name":"numTokens","type":"uint256"},{"internalType":"uint8","name":"currentversion","type":"uint8"},{"internalType":"address","name":"owner","type":"address"},{"internalType":"bool","name":"isSender","type":"bool"}],"name":"transferErc20","outputs":[{"internalType":"bool","name":"","type":"bool"}],"stateMutability":"nonpayable","type":"function"},{"inputs":[{"internalType":"address","name":"owner","type":"address"},{"internalType":"address","name":"buyer","type":"address"},{"internalType":"uint256","name":"numTokens","type":"uint256"},{"internalType":"uint8","name":"currentversion","type":"uint8"}],"name":"transferFromErc20","outputs":[{"internalType":"bool","name":"","type":"bool"}],"stateMutability":"nonpayable","type":"function"},{"inputs":[{"internalType":"address payable","name":"_to","type":"address"},{"internalType":"uint256","name":"_amount","type":"uint256"}],"name":"withdrawMoney","outputs":[{"internalType":"bool","name":"","type":"bool"}],"stateMutability":"nonpayable","type":"function"},{"stateMutability":"payable","type":"receive"}],"bytecode":"6080604052600a805460ff19908116909155600c805490911690553480156200002757600080fd5b5060405162001acf38038062001acf8339810160408190526200004a91620001c4565b600080546001600160a01b0383166001600160a01b031991821681179092556001805460ff60a01b1916600160a01b1790556002805482163390811790915560038054909216811790915542600481815560059190915560408051808201825292835280516362720d9160e11b81529051602080850193869363c4e41b2293818301939290918290030181865afa158015620000ea573d6000803e3d6000fd5b505050506040513d601f19601f82011682018060405250810190620001109190620001f6565b9052600080526009602090815281517fec8156718a8372b1db44bb411437d0870f3e3790d4a08526d024ce1b0b668f6b80546001600160a01b0319166001600160a01b0390921691909117905501517fec8156718a8372b1db44bb411437d0870f3e3790d4a08526d024ce1b0b668f6c55600a54620001949060ff16600162000210565b600a805460ff9290921660ff199092169190911790555050600180546001600160a01b0319163317905562000244565b600060208284031215620001d757600080fd5b81516001600160a01b0381168114620001ef57600080fd5b9392505050565b6000602082840312156200020957600080fd5b5051919050565b600060ff821660ff84168060ff038211156200023c57634e487b7160e01b600052601160045260246000fd5b019392505050565b61187b80620002546000396000f3fe6080604052600436106101385760003560e01c80639b63caa2116100ab578063d48761e41161006f578063d48761e414610524578063da19eae014610544578063e1ef9619146105a3578063f274c897146105d0578063f811f49e146105f0578063f8b2cb4f1461060857600080fd5b80639b63caa21461042f578063a2ab04b71461045d578063bf6baa6814610486578063c5512d74146104de578063cef2aa9a1461050457600080fd5b80635b452989116100fd5780635b452989146103875780635e2521da146103a75780636d26ec18146103c757806371f16668146103cf578063769d9bc6146103ef578063971861be1461040f57600080fd5b806252b9a81461014c57806302c310dc1461018157806322aa3e26146102055780634a7c77c01461028f578063581582e71461030d57600080fd5b366101475761014561063f565b005b600080fd5b34801561015857600080fd5b5061016c6101673660046113d0565b610713565b60405190151581526020015b60405180910390f35b34801561018d57600080fd5b50336000908152600d6020526040902054600154600254600354600454600554600160a01b90940460ff16936001600160a01b0393841693909216916040805196875260ff90951660208701526001600160a01b039384169486019490945291166060840152608083015260a082015260c001610178565b34801561021157600080fd5b50610261610220366004611405565b60ff9081166000908152600b60205260409020805460018083015460029093015490546001600160a01b039283169592909316939092600160a01b90041690565b604080516001600160a01b0395861681529490931660208501529183015260ff166060820152608001610178565b34801561029b57600080fd5b50600854600654600754600154600254600354600454600554604080516001600160a01b03998a1681526020810198909852870195909552600160a01b90930460ff16606086015290851660808501529390931660a083015260c082019290925260e081019190915261010001610178565b34801561031957600080fd5b5061035f610328366004611405565b60ff9081166000908152600960205260409020805460019182015491546001600160a01b03909116939192600160a01b9091041690565b604080516001600160a01b039094168452602084019290925260ff1690820152606001610178565b34801561039357600080fd5b5061016c6103a2366004611438565b6107b6565b3480156103b357600080fd5b5061016c6103c236600461146d565b6108a9565b61016c61063f565b3480156103db57600080fd5b5061016c6103ea3660046114be565b6109a0565b3480156103fb57600080fd5b5061016c61040a366004611438565b610a39565b34801561041b57600080fd5b5061016c61042a3660046114be565b610b0b565b34801561043b57600080fd5b5061044f61044a3660046114ea565b610b83565b604051908152602001610178565b34801561046957600080fd5b50610472610bf4565b60405161017898979695949392919061155f565b34801561049257600080fd5b506104cf6104a1366004611405565b600b602052600090815260409020805460018201546002909201546001600160a01b03918216929091169083565b604051610178939291906115c9565b3480156104ea57600080fd5b50600c5460ff165b60405160ff9091168152602001610178565b34801561051057600080fd5b5061016c61051f36600461146d565b610db6565b34801561053057600080fd5b5061016c61053f3660046115fb565b610eb2565b34801561055057600080fd5b5061058461055f366004611405565b600960205260009081526040902080546001909101546001600160a01b039091169082565b604080516001600160a01b039093168352602083019190915201610178565b3480156105af57600080fd5b5061044f6105be3660046114ea565b600d6020526000908152604090205481565b3480156105dc57600080fd5b5061016c6105eb366004611661565b610fac565b3480156105fc57600080fd5b50600a5460ff166104f2565b34801561061457600080fd5b506106286106233660046114ea565b61105f565b6040805192835260ff909116602083015201610178565b6007546000908190158015906106555750600034115b1561066e5760075461066790346116a3565b9050610676565b600091505090565b60065481111561068557506006545b6001546008546106ae9133918491600160a01b900460ff16906001600160a01b03166000610eb2565b1561066e5780600660008282546106c591906116c5565b90915550506007546106d790826116dc565b6106e190346116c5565b336000908152600d6020526040812080549091906107009084906116fb565b9091555061070b9050565b600191505090565b6001546000906001600160a01b03163314610730575060006107af565b600061073b33610b83565b90508381101561074f5760009150506107af565b600880546001600160a01b0319163317905560068490556007859055610776836001611713565b6001805460ff92909216600160a01b0260ff60a01b19909216919091178155600380546001600160a01b03191633179055426005559150505b9392505050565b6001546000906001600160a01b031633146107d3575060006107af565b60008054604051635a31887b60e11b81526001600160a01b038781166004830152602482018790529091169190829063b46310f6906044016020604051808303816000875af115801561082a573d6000803e3d6000fd5b505050506040513d601f19601f8201168201806040525081019061084e9190611738565b905080156108a057610861846001611713565b6001805460ff92909216600160a01b0260ff60a01b19909216919091179055600380546001600160a01b03191633179055426005556108a086866110ea565b95945050505050565b6001546000906001600160a01b031633146108c657506000610998565b60008054604051633691826360e21b81526001600160a01b039091169190829063da46098c906108fe908a908a908a906004016115c9565b6020604051808303816000875af115801561091d573d6000803e3d6000fd5b505050506040513d601f19601f820116820180604052508101906109419190611738565b9050801561099457610954846001611713565b6001805460ff92909216600160a01b0260ff60a01b19909216919091179055600380546001600160a01b03191633179055426005556109948787876111d2565b9150505b949350505050565b6008546000906001600160a01b031633146109bd57506000610a33565b60006109c833610b83565b90506000841180156109da5750838110155b15610a2d5760068490556109ef836001611713565b6001805460ff92909216600160a01b0260ff60a01b19909216919091178155600380546001600160a01b03191633179055426005559150610a339050565b60009150505b92915050565b6000805460405163e1f21c6760e01b81526001600160a01b03909116908290829063e1f21c6790610a729033908a908a906004016115c9565b6020604051808303816000875af1158015610a91573d6000803e3d6000fd5b505050506040513d601f19601f82011682018060405250810190610ab59190611738565b905080156108a057610ac8846001611713565b6001805460ff92909216600160a01b0260ff60a01b19909216919091179055600380546001600160a01b03191633908117909155426005556108a09087876111d2565b6008546000906001600160a01b03163314610b2857506000610a33565b8215610b7a576007839055610b3e826001611713565b6001805460ff92909216600160a01b0260ff60a01b19909216919091178155600380546001600160a01b03191633179055426005559050610a33565b50600092915050565b600080546040516370a0823160e01b81526001600160a01b0384811660048301529091169081906370a0823190602401602060405180830381865afa158015610bd0573d6000803e3d6000fd5b505050506040513d601f19601f820116820180604052508101906107af9190611755565b60608060008060008060008060008060009054906101000a90046001600160a01b031690506000816001600160a01b03166317d7de7c6040518163ffffffff1660e01b8152600401600060405180830381865afa158015610c59573d6000803e3d6000fd5b505050506040513d6000823e601f3d908101601f19168201604052610c819190810190611784565b90506000826001600160a01b031663150704016040518163ffffffff1660e01b8152600401600060405180830381865afa158015610cc3573d6000803e3d6000fd5b505050506040513d6000823e601f3d908101601f19168201604052610ceb9190810190611784565b90506000836001600160a01b031663c4e41b226040518163ffffffff1660e01b8152600401602060405180830381865afa158015610d2d573d6000803e3d6000fd5b505050506040513d601f19601f82011682018060405250810190610d519190611755565b9050828282600160149054906101000a900460ff16600260009054906101000a90046001600160a01b0316600360009054906101000a90046001600160a01b03166004546005549b509b509b509b509b509b509b509b50505050509091929394959697565b60008054604051630aed65f560e11b81523360048201526001600160a01b03878116602483015286811660448301526064820186905290911690829082906315dacbea906084016020604051808303816000875af1158015610e1c573d6000803e3d6000fd5b505050506040513d601f19601f82011682018060405250810190610e409190611738565b9050801561099457610e53846001611713565b6001805460ff92909216600160a01b0260ff60a01b19909216919091179055600380546001600160a01b0319163317905542600555610e9a86610e9581610b83565b6110ea565b610ea787610e9589610b83565b61099487338761130a565b600080546001600160a01b03168215610ec9573393505b6040516317d5759960e31b81526000906001600160a01b0383169063beabacc890610efc9088908c908c906004016115c9565b6020604051808303816000875af1158015610f1b573d6000803e3d6000fd5b505050506040513d601f19601f82011682018060405250810190610f3f9190611738565b90508015610fa157610f52866001611713565b6001805460ff92909216600160a01b0260ff60a01b19909216919091179055600380546001600160a01b0319163317905542600555610f9488610e9581610b83565b610fa185610e9587610b83565b979650505050505050565b336000908152600d6020526040812054821115610fcb57506000610a33565b336000908152600d6020526040902054610fe69083906116c5565b336000908152600d602052604090205410610b7a57336000908152600d60205260408120805484929061101a9084906116c5565b90915550506040516001600160a01b0384169083156108fc029084906000818181858888f19350505050158015611055573d6000803e3d6000fd5b5060019050610a33565b600080546040516370a0823160e01b81526001600160a01b0384811660048301528392169081906370a0823190602401602060405180830381865afa1580156110ac573d6000803e3d6000fd5b505050506040513d601f19601f820116820180604052508101906110d09190611755565b600160149054906101000a900460ff169250925050915091565b6000805b600a5460ff90811690821610156111535760ff81166000908152600960205260409020546001600160a01b038086169116036111415760ff81166000908152600960205260409020600190810184905591505b8061114b81611826565b9150506110ee565b50806111cd576040805180820182526001600160a01b0385811682526020808301868152600a805460ff9081166000908152600990945295909220935184546001600160a01b03191693169290921783559051600192830155546111b8921690611713565b600a805460ff191660ff929092169190911790555b505050565b6000805b600c5460ff90811690821610156112685760ff81166000908152600b60205260409020546001600160a01b038681169116148015611234575060ff81166000908152600b60205260409020600101546001600160a01b038581169116145b156112565760ff81166000908152600b60205260409020600201839055600191505b8061126081611826565b9150506111d6565b508061130457604080516060810182526001600160a01b0380871682528581166020808401918252838501878152600c805460ff9081166000908152600b90945296909220945185549085166001600160a01b03199182161786559251600186810180549290961691909416179093559151600290930192909255546112ef921690611713565b600c805460ff191660ff929092169190911790555b50505050565b60005b600c5460ff90811690821610156113045760ff81166000908152600b60205260409020546001600160a01b03858116911614801561136b575060ff81166000908152600b60205260409020600101546001600160a01b038481169116145b156113a85760ff81166000908152600b60205260409020600201546113919083906116c5565b60ff82166000908152600b60205260409020600201555b806113b281611826565b91505061130d565b803560ff811681146113cb57600080fd5b919050565b6000806000606084860312156113e557600080fd5b83359250602084013591506113fc604085016113ba565b90509250925092565b60006020828403121561141757600080fd5b6107af826113ba565b6001600160a01b038116811461143557600080fd5b50565b60008060006060848603121561144d57600080fd5b833561145881611420565b9250602084013591506113fc604085016113ba565b6000806000806080858703121561148357600080fd5b843561148e81611420565b9350602085013561149e81611420565b9250604085013591506114b3606086016113ba565b905092959194509250565b600080604083850312156114d157600080fd5b823591506114e1602084016113ba565b90509250929050565b6000602082840312156114fc57600080fd5b81356107af81611420565b60005b8381101561152257818101518382015260200161150a565b838111156113045750506000910152565b6000815180845261154b816020860160208601611507565b601f01601f19169290920160200192915050565b60006101008083526115738184018c611533565b90508281036020840152611587818b611533565b6040840199909952505060ff9590951660608601526001600160a01b0393841660808601529190921660a084015260c083019190915260e09091015292915050565b6001600160a01b039384168152919092166020820152604081019190915260600190565b801515811461143557600080fd5b600080600080600060a0868803121561161357600080fd5b853561161e81611420565b945060208601359350611633604087016113ba565b9250606086013561164381611420565b91506080860135611653816115ed565b809150509295509295909350565b6000806040838503121561167457600080fd5b823561167f81611420565b946020939093013593505050565b634e487b7160e01b600052601160045260246000fd5b6000826116c057634e487b7160e01b600052601260045260246000fd5b500490565b6000828210156116d7576116d761168d565b500390565b60008160001904831182151516156116f6576116f661168d565b500290565b6000821982111561170e5761170e61168d565b500190565b600060ff821660ff84168060ff038211156117305761173061168d565b019392505050565b60006020828403121561174a57600080fd5b81516107af816115ed565b60006020828403121561176757600080fd5b5051919050565b634e487b7160e01b600052604160045260246000fd5b60006020828403121561179657600080fd5b815167ffffffffffffffff808211156117ae57600080fd5b818401915084601f8301126117c257600080fd5b8151818111156117d4576117d461176e565b604051601f8201601f19908116603f011681019083821181831017156117fc576117fc61176e565b8160405282815287602084870101111561181557600080fd5b610fa1836020830160208801611507565b600060ff821660ff810361183c5761183c61168d565b6001019291505056fea264697066735822122094b15b91389f0e7c314c4f7c3c61102c06a8ad52beac412cdd5a000ddf6c600e64736f6c634300080d0033","bytecodeSha1":"3963fa7b641b0e26aab0c3ea29c57e158e16f272","compiler":{"evm_version":"istanbul","optimizer":{"enabled":true,"runs":200},"version":"0.8.13+commit.abaa5c0e"},"contractName":"ProxyErc20","language":"Solidity","natspec":{"kind":"dev","methods":{},"version":1},"opcodes":"PUSH1 0x80 PUSH1 0x40 MSTORE PUSH1 0x4 CALLDATASIZE LT PUSH2 0x138 JUMPI PUSH1 0x0 CALLDATALOAD PUSH1 0xE0 SHR DUP1 PUSH4 0x9B63CAA2 GT PUSH2 0xAB JUMPI DUP1 PUSH4 0xD48761E4 GT PUSH2 0x6F JUMPI DUP1 PUSH4 0xD48761E4 EQ PUSH2 0x524 JUMPI DUP1 PUSH4 0xDA19EAE0 EQ PUSH2 0x544 JUMPI DUP1 PUSH4 0xE1EF9619 EQ PUSH2 0x5A3 JUMPI DUP1 PUSH4 0xF274C897 EQ PUSH2 0x5D0 JUMPI DUP1 PUSH4 0xF811F49E EQ PUSH2 0x5F0 JUMPI DUP1 PUSH4 0xF8B2CB4F EQ PUSH2 0x608 JUMPI PUSH1 0x0 DUP1 REVERT JUMPDEST DUP1 PUSH4 0x9B63CAA2 EQ PUSH2 0x42F JUMPI DUP1 PUSH4 0xA2AB04B7 EQ PUSH2 0x45D JUMPI DUP1 PUSH4 0xBF6BAA68 EQ PUSH2 0x486 JUMPI DUP1 PUSH4 0xC5512D74 EQ PUSH2 0x4DE JUMPI DUP1 PUSH4 0xCEF2AA9A EQ PUSH2 0x504 JUMPI PUSH1 0x0 DUP1 REVERT JUMPDEST DUP1 PUSH4 0x5B452989 GT PUSH2 0xFD JUMPI DUP1 PUSH4 0x5B452989 EQ PUSH2 0x387 JUMPI DUP1 PUSH4 0x5E2521DA EQ PUSH2 0x3A7 JUMPI DUP1 PUSH4 0x6D26EC18 EQ PUSH2 0x3C7 JUMPI DUP1 PUSH4 0x71F16668 EQ PUSH2 0x3CF JUMPI DUP1 PUSH4 0x769D9BC6 EQ PUSH2 0x3EF JUMPI DUP1 PUSH4 0x971861BE EQ PUSH2 0x40F JUMPI PUSH1 0x0 DUP1 REVERT JUMPDEST DUP1 PUSH3 0x52B9A8 EQ PUSH2 0x14C JUMPI DUP1 PUSH4 0x2C310DC EQ PUSH2 0x181 JUMPI DUP1 PUSH4 0x22AA3E26 EQ PUSH2 0x205 JUMPI DUP1 PUSH4 0x4A7C77C0 EQ PUSH2 0x28F JUMPI DUP1 PUSH4 0x581582E7 EQ PUSH2 0x30D JUMPI PUSH1 0x0 DUP1 REVERT JUMPDEST CALLDATASIZE PUSH2 0x147 JUMPI PUSH2 0x145 PUSH2 0x63F JUMP JUMPDEST STOP JUMPDEST PUSH1 0x0 DUP1 REVERT JUMPDEST CALLVALUE DUP1 ISZERO PUSH2 0x158 JUMPI PUSH1 0x0 DUP1 REVERT JUMPDEST POP PUSH2 0x16C PUSH2 0x167 CALLDATASIZE PUSH1 0x4 PUSH2 0x13D0 JUMP JUMPDEST PUSH2 0x713 JUMP JUMPDEST PUSH1 0x40 MLOAD SWAP1 ISZERO ISZERO DUP2 MSTORE PUSH1 0x20 ADD JUMPDEST PUSH1 0x40 MLOAD DUP1 SWAP2 SUB SWAP1 RETURN JUMPDEST CALLVALUE DUP1 ISZERO PUSH2 0x18D JUMPI PUSH1 0x0 DUP1 REVERT JUMPDEST POP CALLER PUSH1 0x0 SWAP1 DUP2 MSTORE PUSH1 0xD PUSH1 0x20 MSTORE PUSH1 0x40 SWAP1 KECCAK256 SLOAD PUSH1 0x1 SLOAD PUSH1 0x2 SLOAD PUSH1 0x3 SLOAD PUSH1 0x4 SLOAD PUSH1 0x5 SLOAD PUSH1 0x1 PUSH1 0xA0 SHL SWAP1 SWAP5 DIV PUSH1 0xFF AND SWAP4 PUSH1 0x1 PUSH1 0x1 PUSH1 0xA0 SHL SUB SWAP4 DUP5 AND SWAP4 SWAP1 SWAP3 AND SWAP2 PUSH1 0x40 DUP1 MLOAD SWAP7 DUP8 MSTORE PUSH1 0xFF SWAP1 SWAP6 AND PUSH1 0x20 DUP8 ADD MSTORE PUSH1 0x1 PUSH1 0x1 PUSH1 0xA0 SHL SUB SWAP4 DUP5 AND SWAP5 DUP7 ADD SWAP5 SWAP1 SWAP5 MSTORE SWAP2 AND PUSH1 0x60 DUP5 ADD MSTORE PUSH1 0x80 DUP4 ADD MSTORE PUSH1 0xA0 DUP3 ADD MSTORE PUSH1 0xC0 ADD PUSH2 0x178 JUMP JUMPDEST CALLVALUE DUP1 ISZERO PUSH2 0x211 JUMPI PUSH1 0x0 DUP1 REVERT JUMPDEST POP PUSH2 0x261 PUSH2 0x220 CALLDATASIZE PUSH1 0x4 PUSH2 0x1405 JUMP JUMPDEST PUSH1 0xFF SWAP1 DUP2 AND PUSH1 0x0 SWAP1 DUP2 MSTORE PUSH1 0xB PUSH1 0x20 MSTORE PUSH1 0x40 SWAP1 KECCAK256 DUP1 SLOAD PUSH1 0x1 DUP1 DUP4 ADD SLOAD PUSH1 0x2 SWAP1 SWAP4 ADD SLOAD SWAP1 SLOAD PUSH1 0x1 PUSH1 0x1 PUSH1 0xA0 SHL SUB SWAP3 DUP4 AND SWAP6 SWAP3 SWAP1 SWAP4 AND SWAP4 SWAP1 SWAP3 PUSH1 0x1 PUSH1 0xA0 SHL SWAP1 DIV AND SWAP1 JUMP JUMPDEST PUSH1 0x40 DUP1 MLOAD PUSH1 0x1 PUSH1 0x1 PUSH1 0xA0 SHL SUB SWAP6 DUP7 AND DUP2 MSTORE SWAP5 SWAP1 SWAP4 AND PUSH1 0x20 DUP6 ADD MSTORE SWAP2 DUP4 ADD MSTORE PUSH1 0xFF AND PUSH1 0x60 DUP3 ADD MSTORE PUSH1 0x80 ADD PUSH2 0x178 JUMP JUMPDEST CALLVALUE DUP1 ISZERO PUSH2 0x29B JUMPI PUSH1 0x0 DUP1 REVERT JUMPDEST POP PUSH1 0x8 SLOAD PUSH1 0x6 SLOAD PUSH1 0x7 SLOAD PUSH1 0x1 SLOAD PUSH1 0x2 SLOAD PUSH1 0x3 SLOAD PUSH1 0x4 SLOAD PUSH1 0x5 SLOAD PUSH1 0x40 DUP1 MLOAD PUSH1 0x1 PUSH1 0x1 PUSH1 0xA0 SHL SUB SWAP10 DUP11 AND DUP2 MSTORE PUSH1 0x20 DUP2 ADD SWAP9 SWAP1 SWAP9 MSTORE DUP8 ADD SWAP6 SWAP1 SWAP6 MSTORE PUSH1 0x1 PUSH1 0xA0 SHL SWAP1 SWAP4 DIV PUSH1 0xFF AND PUSH1 0x60 DUP7 ADD MSTORE SWAP1 DUP6 AND PUSH1 0x80 DUP6 ADD MSTORE SWAP4 SWAP1 SWAP4 AND PUSH1 0xA0 DUP4 ADD MSTORE PUSH1 0xC0 DUP3 ADD SWAP3 SWAP1 SWAP3 MSTORE PUSH1 0xE0 DUP2 ADD SWAP2 SWAP1 SWAP2 MSTORE PUSH2 0x100 ADD PUSH2 0x178 JUMP JUMPDEST CALLVALUE DUP1 ISZERO PUSH2 0x319 JUMPI PUSH1 0x0 DUP1 REVERT JUMPDEST POP PUSH2 0x35F PUSH2 0x328 CALLDATASIZE PUSH1 0x4 PUSH2 0x1405 JUMP JUMPDEST PUSH1 0xFF SWAP1 DUP2 AND PUSH1 0x0 SWAP1 DUP2 MSTORE PUSH1 0x9 PUSH1 0x20 MSTORE PUSH1 0x40 SWAP1 KECCAK256 DUP1 SLOAD PUSH1 0x1 SWAP2 DUP3 ADD SLOAD SWAP2 SLOAD PUSH1 0x1 PUSH1 0x1 PUSH1 0xA0 SHL SUB SWAP1 SWAP2 AND SWAP4 SWAP2 SWAP3 PUSH1 0x1 PUSH1 0xA0 SHL SWAP1 SWAP2 DIV AND SWAP1 JUMP JUMPDEST PUSH1 0x40 DUP1 MLOAD PUSH1 0x1 PUSH1 0x1 PUSH1 0xA0 SHL SUB SWAP1 SWAP5 AND DUP5 MSTORE PUSH1 0x20 DUP5 ADD SWAP3 SWAP1 SWAP3 MSTORE PUSH1 0xFF AND SWAP1 DUP3 ADD MSTORE PUSH1 0x60 ADD PUSH2 0x178 JUMP JUMPDEST CALLVALUE DUP1 ISZERO PUSH2 0x393 JUMPI PUSH1 0x0 DUP1 REVERT JUMPDEST POP PUSH2 0x16C PUSH2 0x3A2 CALLDATASIZE PUSH1 0x4 PUSH2 0x1438 JUMP JUMPDEST PUSH2 0x7B6 JUMP JUMPDEST CALLVALUE DUP1 ISZERO PUSH2 0x3B3 JUMPI PUSH1 0x0 DUP1 REVERT JUMPDEST POP PUSH2 0x16C PUSH2 0x3C2 CALLDATASIZE PUSH1 0x4 PUSH2 0x146D JUMP JUMPDEST PUSH2 0x8A9 JUMP JUMPDEST PUSH2 0x16C PUSH2 0x63F JUMP JUMPDEST CALLVALUE DUP1 ISZERO PUSH2 0x3DB JUMPI PUSH1 0x0 DUP1 REVERT JUMPDEST POP PUSH2 0x16C PUSH2 0x3EA CALLDATASIZE PUSH1 0x4 PUSH2 0x14BE JUMP JUMPDEST PUSH2 0x9A0 JUMP JUMPDEST CALLVALUE DUP1 ISZERO PUSH2 0x3FB JUMPI PUSH1 0x0 DUP1 REVERT JUMPDEST POP PUSH2 0x16C PUSH2 0x40A CALLDATASIZE PUSH1 0x4 PUSH2 0x1438 JUMP JUMPDEST PUSH2 0xA39 JUMP JUMPDEST CALLVALUE DUP1 ISZERO PUSH2 0x41B JUMPI PUSH1 0x0 DUP1 REVERT JUMPDEST POP PUSH2 0x16C PUSH2 0x42A CALLDATASIZE PUSH1 0x4 PUSH2 0x14BE JUMP JUMPDEST PUSH2 0xB0B JUMP JUMPDEST CALLVALUE DUP1 ISZERO PUSH2 0x43B JUMPI PUSH1 0x0 DUP1 REVERT JUMPDEST POP PUSH2 0x44F PUSH2 0x44A CALLDATASIZE PUSH1 0x4 PUSH2 0x14EA JUMP JUMPDEST PUSH2 0xB83 JUMP JUMPDEST PUSH1 0x40 MLOAD SWAP1 DUP2 MSTORE PUSH1 0x20 ADD PUSH2 0x178 JUMP JUMPDEST CALLVALUE DUP1 ISZERO PUSH2 0x469 JUMPI PUSH1 0x0 DUP1 REVERT JUMPDEST POP PUSH2 0x472 PUSH2 0xBF4 JUMP JUMPDEST PUSH1 0x40 MLOAD PUSH2 0x178 SWAP9 SWAP8 SWAP7 SWAP6 SWAP5 SWAP4 SWAP3 SWAP2 SWAP1 PUSH2 0x155F JUMP JUMPDEST CALLVALUE DUP1 ISZERO PUSH2 0x492 JUMPI PUSH1 0x0 DUP1 REVERT JUMPDEST POP PUSH2 0x4CF PUSH2 0x4A1 CALLDATASIZE PUSH1 0x4 PUSH2 0x1405 JUMP JUMPDEST PUSH1 0xB PUSH1 0x20 MSTORE PUSH1 0x0 SWAP1 DUP2 MSTORE PUSH1 0x40 SWAP1 KECCAK256 DUP1 SLOAD PUSH1 0x1 DUP3 ADD SLOAD PUSH1 0x2 SWAP1 SWAP3 ADD SLOAD PUSH1 0x1 PUSH1 0x1 PUSH1 0xA0 SHL SUB SWAP2 DUP3 AND SWAP3 SWAP1 SWAP2 AND SWAP1 DUP4 JUMP JUMPDEST PUSH1 0x40 MLOAD PUSH2 0x178 SWAP4 SWAP3 SWAP2 SWAP1 PUSH2 0x15C9 JUMP JUMPDEST CALLVALUE DUP1 ISZERO PUSH2 0x4EA JUMPI PUSH1 0x0 DUP1 REVERT JUMPDEST POP PUSH1 0xC SLOAD PUSH1 0xFF AND JUMPDEST PUSH1 0x40 MLOAD PUSH1 0xFF SWAP1 SWAP2 AND DUP2 MSTORE PUSH1 0x20 ADD PUSH2 0x178 JUMP JUMPDEST CALLVALUE DUP1 ISZERO PUSH2 0x510 JUMPI PUSH1 0x0 DUP1 REVERT JUMPDEST POP PUSH2 0x16C PUSH2 0x51F CALLDATASIZE PUSH1 0x4 PUSH2 0x146D JUMP JUMPDEST PUSH2 0xDB6 JUMP JUMPDEST CALLVALUE DUP1 ISZERO PUSH2 0x530 JUMPI PUSH1 0x0 DUP1 REVERT JUMPDEST POP PUSH2 0x16C PUSH2 0x53F CALLDATASIZE PUSH1 0x4 PUSH2 0x15FB JUMP JUMPDEST PUSH2 0xEB2 JUMP JUMPDEST CALLVALUE DUP1 ISZERO PUSH2 0x550 JUMPI PUSH1 0x0 DUP1 REVERT JUMPDEST POP PUSH2 0x584 PUSH2 0x55F CALLDATASIZE PUSH1 0x4 PUSH2 0x1405 JUMP JUMPDEST PUSH1 0x9 PUSH1 0x20 MSTORE PUSH1 0x0 SWAP1 DUP2 MSTORE PUSH1 0x40 SWAP1 KECCAK256 DUP1 SLOAD PUSH1 0x1 SWAP1 SWAP2 ADD SLOAD PUSH1 0x1 PUSH1 0x1 PUSH1 0xA0 SHL SUB SWAP1 SWAP2 AND SWAP1 DUP3 JUMP JUMPDEST PUSH1 0x40 DUP1 MLOAD PUSH1 0x1 PUSH1 0x1 PUSH1 0xA0 SHL SUB SWAP1 SWAP4 AND DUP4 MSTORE PUSH1 0x20 DUP4 ADD SWAP2 SWAP1 SWAP2 MSTORE ADD PUSH2 0x178 JUMP JUMPDEST CALLVALUE DUP1 ISZERO PUSH2 0x5AF JUMPI PUSH1 0x0 DUP1 REVERT JUMPDEST POP PUSH2 0x44F PUSH2 0x5BE CALLDATASIZE PUSH1 0x4 PUSH2 0x14EA JUMP JUMPDEST PUSH1 0xD PUSH1 0x20 MSTORE PUSH1 0x0 SWAP1 DUP2 MSTORE PUSH1 0x40 SWAP1 KECCAK256 SLOAD DUP2 JUMP JUMPDEST CALLVALUE DUP1 ISZERO PUSH2 0x5DC JUMPI PUSH1 0x0 DUP1 REVERT JUMPDEST POP PUSH2 0x16C PUSH2 0x5EB CALLDATASIZE PUSH1 0x4 PUSH2 0x1661 JUMP JUMPDEST PUSH2 0xFAC JUMP JUMPDEST CALLVALUE DUP1 ISZERO PUSH2 0x5FC JUMPI PUSH1 0x0 DUP1 REVERT JUMPDEST POP PUSH1 0xA SLOAD PUSH1 0xFF AND PUSH2 0x4F2 JUMP JUMPDEST CALLVALUE DUP1 ISZERO PUSH2 0x614 JUMPI PUSH1 0x0 DUP1 REVERT JUMPDEST POP PUSH2 0x628 PUSH2 0x623 CALLDATASIZE PUSH1 0x4 PUSH2 0x14EA JUMP JUMPDEST PUSH2 0x105F JUMP JUMPDEST PUSH1 0x40 DUP1 MLOAD SWAP3 DUP4 MSTORE PUSH1 0xFF SWAP1 SWAP2 AND PUSH1 0x20 DUP4 ADD MSTORE ADD PUSH2 0x178 JUMP JUMPDEST PUSH1 0x7 SLOAD PUSH1 0x0 SWAP1 DUP2 SWAP1 ISZERO DUP1 ISZERO SWAP1 PUSH2 0x655 JUMPI POP PUSH1 0x0 CALLVALUE GT JUMPDEST ISZERO PUSH2 0x66E JUMPI PUSH1 0x7 SLOAD PUSH2 0x667 SWAP1 CALLVALUE PUSH2 0x16A3 JUMP JUMPDEST SWAP1 POP PUSH2 0x676 JUMP JUMPDEST PUSH1 0x0 SWAP2 POP POP SWAP1 JUMP JUMPDEST PUSH1 0x6 SLOAD DUP2 GT ISZERO PUSH2 0x685 JUMPI POP PUSH1 0x6 SLOAD JUMPDEST PUSH1 0x1 SLOAD PUSH1 0x8 SLOAD PUSH2 0x6AE SWAP2 CALLER SWAP2 DUP5 SWAP2 PUSH1 0x1 PUSH1 0xA0 SHL SWAP1 DIV PUSH1 0xFF AND SWAP1 PUSH1 0x1 PUSH1 0x1 PUSH1 0xA0 SHL SUB AND PUSH1 0x0 PUSH2 0xEB2 JUMP JUMPDEST ISZERO PUSH2 0x66E JUMPI DUP1 PUSH1 0x6 PUSH1 0x0 DUP3 DUP3 SLOAD PUSH2 0x6C5 SWAP2 SWAP1 PUSH2 0x16C5 JUMP JUMPDEST SWAP1 SWAP2 SSTORE POP POP PUSH1 0x7 SLOAD PUSH2 0x6D7 SWAP1 DUP3 PUSH2 0x16DC JUMP JUMPDEST PUSH2 0x6E1 SWAP1 CALLVALUE PUSH2 0x16C5 JUMP JUMPDEST CALLER PUSH1 0x0 SWAP1 DUP2 MSTORE PUSH1 0xD PUSH1 0x20 MSTORE PUSH1 0x40 DUP2 KECCAK256 DUP1 SLOAD SWAP1 SWAP2 SWAP1 PUSH2 0x700 SWAP1 DUP5 SWAP1 PUSH2 0x16FB JUMP JUMPDEST SWAP1 SWAP2 SSTORE POP PUSH2 0x70B SWAP1 POP JUMP JUMPDEST PUSH1 0x1 SWAP2 POP POP SWAP1 JUMP JUMPDEST PUSH1 0x1 SLOAD PUSH1 0x0 SWAP1 PUSH1 0x1 PUSH1 0x1 PUSH1 0xA0 SHL SUB AND CALLER EQ PUSH2 0x730 JUMPI POP PUSH1 0x0 PUSH2 0x7AF JUMP JUMPDEST PUSH1 0x0 PUSH2 0x73B CALLER PUSH2 0xB83 JUMP JUMPDEST SWAP1 POP DUP4 DUP2 LT ISZERO PUSH2 0x74F JUMPI PUSH1 0x0 SWAP2 POP POP PUSH2 0x7AF JUMP JUMPDEST PUSH1 0x8 DUP1 SLOAD PUSH1 0x1 PUSH1 0x1 PUSH1 0xA0 SHL SUB NOT AND CALLER OR SWAP1 SSTORE PUSH1 0x6 DUP5 SWAP1 SSTORE PUSH1 0x7 DUP6 SWAP1 SSTORE PUSH2 0x776 DUP4 PUSH1 0x1 PUSH2 0x1713 JUMP JUMPDEST PUSH1 0x1 DUP1 SLOAD PUSH1 0xFF SWAP3 SWAP1 SWAP3 AND PUSH1 0x1 PUSH1 0xA0 SHL MUL PUSH1 0xFF PUSH1 0xA0 SHL NOT SWAP1 SWAP3 AND SWAP2 SWAP1 SWAP2 OR DUP2 SSTORE PUSH1 0x3 DUP1 SLOAD PUSH1 0x1 PUSH1 0x1 PUSH1 0xA0 SHL SUB NOT AND CALLER OR SWAP1 SSTORE TIMESTAMP PUSH1 0x5 SSTORE SWAP2 POP POP JUMPDEST SWAP4 SWAP3 POP POP POP JUMP JUMPDEST PUSH1 0x1 SLOAD PUSH1 0x0 SWAP1 PUSH1 0x1 PUSH1 0x1 PUSH1 0xA0 SHL SUB AND CALLER EQ PUSH2 0x7D3 JUMPI POP PUSH1 0x0 PUSH2 0x7AF JUMP JUMPDEST PUSH1 0x0 DUP1 SLOAD PUSH1 0x40 MLOAD PUSH4 0x5A31887B PUSH1 0xE1 SHL DUP2 MSTORE PUSH1 0x1 PUSH1 0x1 PUSH1 0xA0 SHL SUB DUP8 DUP2 AND PUSH1 0x4 DUP4 ADD MSTORE PUSH1 0x24 DUP3 ADD DUP8 SWAP1 MSTORE SWAP1 SWAP2 AND SWAP2 SWAP1 DUP3 SWAP1 PUSH4 0xB46310F6 SWAP1 PUSH1 0x44 ADD PUSH1 0x20 PUSH1 0x40 MLOAD DUP1 DUP4 SUB DUP2 PUSH1 0x0 DUP8 GAS CALL ISZERO DUP1 ISZERO PUSH2 0x82A JUMPI RETURNDATASIZE PUSH1 0x0 DUP1 RETURNDATACOPY RETURNDATASIZE PUSH1 0x0 REVERT JUMPDEST POP POP POP POP PUSH1 0x40 MLOAD RETURNDATASIZE PUSH1 0x1F NOT PUSH1 0x1F DUP3 ADD AND DUP3 ADD DUP1 PUSH1 0x40 MSTORE POP DUP2 ADD SWAP1 PUSH2 0x84E SWAP2 SWAP1 PUSH2 0x1738 JUMP JUMPDEST SWAP1 POP DUP1 ISZERO PUSH2 0x8A0 JUMPI PUSH2 0x861 DUP5 PUSH1 0x1 PUSH2 0x1713 JUMP JUMPDEST PUSH1 0x1 DUP1 SLOAD PUSH1 0xFF SWAP3 SWAP1 SWAP3 AND PUSH1 0x1 PUSH1 0xA0 SHL MUL PUSH1 0xFF PUSH1 0xA0 SHL NOT SWAP1 SWAP3 AND SWAP2 SWAP1 SWAP2 OR SWAP1 SSTORE PUSH1 0x3 DUP1 SLOAD PUSH1 0x1 PUSH1 0x1 PUSH1 0xA0 SHL SUB NOT AND CALLER OR SWAP1 SSTORE TIMESTAMP PUSH1 0x5 SSTORE PUSH2 0x8A0 DUP7 DUP7 PUSH2 0x10EA JUMP JUMPDEST SWAP6 SWAP5 POP POP POP POP POP JUMP JUMPDEST PUSH1 0x1 SLOAD PUSH1 0x0 SWAP1 PUSH1 0x1 PUSH1 0x1 PUSH1 0xA0 SHL SUB AND CALLER EQ PUSH2 0x8C6 JUMPI POP PUSH1 0x0 PUSH2 0x998 JUMP JUMPDEST PUSH1 0x0 DUP1 SLOAD PUSH1 0x40 MLOAD PUSH4 0x36918263 PUSH1 0xE2 SHL DUP2 MSTORE PUSH1 0x1 PUSH1 0x1 PUSH1 0xA0 SHL SUB SWAP1 SWAP2 AND SWAP2 SWAP1 DUP3 SWAP1 PUSH4 0xDA46098C SWAP1 PUSH2 0x8FE SWAP1 DUP11 SWAP1 DUP11 SWAP1 DUP11 SWAP1 PUSH1 0x4 ADD PUSH2 0x15C9 JUMP JUMPDEST PUSH1 0x20 PUSH1 0x40 MLOAD DUP1 DUP4 SUB DUP2 PUSH1 0x0 DUP8 GAS CALL ISZERO DUP1 ISZERO PUSH2 0x91D JUMPI RETURNDATASIZE PUSH1 0x0 DUP1 RETURNDATACOPY RETURNDATASIZE PUSH1 0x0 REVERT JUMPDEST POP POP POP POP PUSH1 0x40 MLOAD RETURNDATASIZE PUSH1 0x1F NOT PUSH1 0x1F DUP3 ADD AND DUP3 ADD DUP1 PUSH1 0x40 MSTORE POP DUP2 ADD SWAP1 PUSH2 0x941 SWAP2 SWAP1 PUSH2 0x1738 JUMP JUMPDEST SWAP1 POP DUP1 ISZERO PUSH2 0x994 JUMPI PUSH2 0x954 DUP5 PUSH1 0x1 PUSH2 0x1713 JUMP JUMPDEST PUSH1 0x1 DUP1 SLOAD PUSH1 0xFF SWAP3 SWAP1 SWAP3 AND PUSH1 0x1 PUSH1 0xA0 SHL MUL PUSH1 0xFF PUSH1 0xA0 SHL NOT SWAP1 SWAP3 AND SWAP2 SWAP1 SWAP2 OR SWAP1 SSTORE PUSH1 0x3 DUP1 SLOAD PUSH1 0x1 PUSH1 0x1 PUSH1 0xA0 SHL SUB NOT AND CALLER OR SWAP1 SSTORE TIMESTAMP PUSH1 0x5 SSTORE PUSH2 0x994 DUP8 DUP8 DUP8 PUSH2 0x11D2 JUMP JUMPDEST SWAP2 POP POP JUMPDEST SWAP5 SWAP4 POP POP POP POP JUMP JUMPDEST PUSH1 0x8 SLOAD PUSH1 0x0 SWAP1 PUSH1 0x1 PUSH1 0x1 PUSH1 0xA0 SHL SUB AND CALLER EQ PUSH2 0x9BD JUMPI POP PUSH1 0x0 PUSH2 0xA33 JUMP JUMPDEST PUSH1 0x0 PUSH2 0x9C8 CALLER PUSH2 0xB83 JUMP JUMPDEST SWAP1 POP PUSH1 0x0 DUP5 GT DUP1 ISZERO PUSH2 0x9DA JUMPI POP DUP4 DUP2 LT ISZERO JUMPDEST ISZERO PUSH2 0xA2D JUMPI PUSH1 0x6 DUP5 SWAP1 SSTORE PUSH2 0x9EF DUP4 PUSH1 0x1 PUSH2 0x1713 JUMP JUMPDEST PUSH1 0x1 DUP1 SLOAD PUSH1 0xFF SWAP3 SWAP1 SWAP3 AND PUSH1 0x1 PUSH1 0xA0 SHL MUL PUSH1 0xFF PUSH1 0xA0 SHL NOT SWAP1 SWAP3 AND SWAP2 SWAP1 SWAP2 OR DUP2 SSTORE PUSH1 0x3 DUP1 SLOAD PUSH1 0x1 PUSH1 0x1 PUSH1 0xA0 SHL SUB NOT AND CALLER OR SWAP1 SSTORE TIMESTAMP PUSH1 0x5 SSTORE SWAP2 POP PUSH2 0xA33 SWAP1 POP JUMP JUMPDEST PUSH1 0x0 SWAP2 POP POP JUMPDEST SWAP3 SWAP2 POP POP JUMP JUMPDEST PUSH1 0x0 DUP1 SLOAD PUSH1 0x40 MLOAD PUSH4 0xE1F21C67 PUSH1 0xE0 SHL DUP2 MSTORE PUSH1 0x1 PUSH1 0x1 PUSH1 0xA0 SHL SUB SWAP1 SWAP2 AND SWAP1 DUP3 SWAP1 DUP3 SWAP1 PUSH4 0xE1F21C67 SWAP1 PUSH2 0xA72 SWAP1 CALLER SWAP1 DUP11 SWAP1 DUP11 SWAP1 PUSH1 0x4 ADD PUSH2 0x15C9 JUMP JUMPDEST PUSH1 0x20 PUSH1 0x40 MLOAD DUP1 DUP4 SUB DUP2 PUSH1 0x0 DUP8 GAS CALL ISZERO DUP1 ISZERO PUSH2 0xA91 JUMPI RETURNDATASIZE PUSH1 0x0 DUP1 RETURNDATACOPY RETURNDATASIZE PUSH1 0x0 REVERT JUMPDEST POP POP POP POP PUSH1 0x40 MLOAD RETURNDATASIZE PUSH1 0x1F NOT PUSH1 0x1F DUP3 ADD AND DUP3 ADD DUP1 PUSH1 0x40 MSTORE POP DUP2 ADD SWAP1 PUSH2 0xAB5 SWAP2 SWAP1 PUSH2 0x1738 JUMP JUMPDEST SWAP1 POP DUP1 ISZERO PUSH2 0x8A0 JUMPI PUSH2 0xAC8 DUP5 PUSH1 0x1 PUSH2 0x1713 JUMP JUMPDEST PUSH1 0x1 DUP1 SLOAD PUSH1 0xFF SWAP3 SWAP1 SWAP3 AND PUSH1 0x1 PUSH1 0xA0 SHL MUL PUSH1 0xFF PUSH1 0xA0 SHL NOT SWAP1 SWAP3 AND SWAP2 SWAP1 SWAP2 OR SWAP1 SSTORE PUSH1 0x3 DUP1 SLOAD PUSH1 0x1 PUSH1 0x1 PUSH1 0xA0 SHL SUB NOT AND CALLER SWAP1 DUP2 OR SWAP1 SWAP2 SSTORE TIMESTAMP PUSH1 0x5 SSTORE PUSH2 0x8A0 SWAP1 DUP8 DUP8 PUSH2 0x11D2 JUMP JUMPDEST PUSH1 0x8 SLOAD PUSH1 0x0 SWAP1 PUSH1 0x1 PUSH1 0x1 PUSH1 0xA0 SHL SUB AND CALLER EQ PUSH2 0xB28 JUMPI POP PUSH1 0x0 PUSH2 0xA33 JUMP JUMPDEST DUP3 ISZERO PUSH2 0xB7A JUMPI PUSH1 0x7 DUP4 SWAP1 SSTORE PUSH2 0xB3E DUP3 PUSH1 0x1 PUSH2 0x1713 JUMP JUMPDEST PUSH1 0x1 DUP1 SLOAD PUSH1 0xFF SWAP3 SWAP1 SWAP3 AND PUSH1 0x1 PUSH1 0xA0 SHL MUL PUSH1 0xFF PUSH1 0xA0 SHL NOT SWAP1 SWAP3 AND SWAP2 SWAP1 SWAP2 OR DUP2 SSTORE PUSH1 0x3 DUP1 SLOAD PUSH1 0x1 PUSH1 0x1 PUSH1 0xA0 SHL SUB NOT AND CALLER OR SWAP1 SSTORE TIMESTAMP PUSH1 0x5 SSTORE SWAP1 POP PUSH2 0xA33 JUMP JUMPDEST POP PUSH1 0x0 SWAP3 SWAP2 POP POP JUMP JUMPDEST PUSH1 0x0 DUP1 SLOAD PUSH1 0x40 MLOAD PUSH4 0x70A08231 PUSH1 0xE0 SHL DUP2 MSTORE PUSH1 0x1 PUSH1 0x1 PUSH1 0xA0 SHL SUB DUP5 DUP2 AND PUSH1 0x4 DUP4 ADD MSTORE SWAP1 SWAP2 AND SWAP1 DUP2 SWAP1 PUSH4 0x70A08231 SWAP1 PUSH1 0x24 ADD PUSH1 0x20 PUSH1 0x40 MLOAD DUP1 DUP4 SUB DUP2 DUP7 GAS STATICCALL ISZERO DUP1 ISZERO PUSH2 0xBD0 JUMPI RETURNDATASIZE PUSH1 0x0 DUP1 RETURNDATACOPY RETURNDATASIZE PUSH1 0x0 REVERT JUMPDEST POP POP POP POP PUSH1 0x40 MLOAD RETURNDATASIZE PUSH1 0x1F NOT PUSH1 0x1F DUP3 ADD AND DUP3 ADD DUP1 PUSH1 0x40 MSTORE POP DUP2 ADD SWAP1 PUSH2 0x7AF SWAP2 SWAP1 PUSH2 0x1755 JUMP JUMPDEST PUSH1 0x60 DUP1 PUSH1 0x0 DUP1 PUSH1 0x0 DUP1 PUSH1 0x0 DUP1 PUSH1 0x0 DUP1 PUSH1 0x0 SWAP1 SLOAD SWAP1 PUSH2 0x100 EXP SWAP1 DIV PUSH1 0x1 PUSH1 0x1 PUSH1 0xA0 SHL SUB AND SWAP1 POP PUSH1 0x0 DUP2 PUSH1 0x1 PUSH1 0x1 PUSH1 0xA0 SHL SUB AND PUSH4 0x17D7DE7C PUSH1 0x40 MLOAD DUP2 PUSH4 0xFFFFFFFF AND PUSH1 0xE0 SHL DUP2 MSTORE PUSH1 0x4 ADD PUSH1 0x0 PUSH1 0x40 MLOAD DUP1 DUP4 SUB DUP2 DUP7 GAS STATICCALL ISZERO DUP1 ISZERO PUSH2 0xC59 JUMPI RETURNDATASIZE PUSH1 0x0 DUP1 RETURNDATACOPY RETURNDATASIZE PUSH1 0x0 REVERT JUMPDEST POP POP POP POP PUSH1 0x40 MLOAD RETURNDATASIZE PUSH1 0x0 DUP3 RETURNDATACOPY PUSH1 0x1F RETURNDATASIZE SWAP1 DUP2 ADD PUSH1 0x1F NOT AND DUP3 ADD PUSH1 0x40 MSTORE PUSH2 0xC81 SWAP2 SWAP1 DUP2 ADD SWAP1 PUSH2 0x1784 JUMP JUMPDEST SWAP1 POP PUSH1 0x0 DUP3 PUSH1 0x1 PUSH1 0x1 PUSH1 0xA0 SHL SUB AND PUSH4 0x15070401 PUSH1 0x40 MLOAD DUP2 PUSH4 0xFFFFFFFF AND PUSH1 0xE0 SHL DUP2 MSTORE PUSH1 0x4 ADD PUSH1 0x0 PUSH1 0x40 MLOAD DUP1 DUP4 SUB DUP2 DUP7 GAS STATICCALL ISZERO DUP1 ISZERO PUSH2 0xCC3 JUMPI RETURNDATASIZE PUSH1 0x0 DUP1 RETURNDATACOPY RETURNDATASIZE PUSH1 0x0 REVERT JUMPDEST POP POP POP POP PUSH1 0x40 MLOAD RETURNDATASIZE PUSH1 0x0 DUP3 RETURNDATACOPY PUSH1 0x1F RETURNDATASIZE SWAP1 DUP2 ADD PUSH1 0x1F NOT AND DUP3 ADD PUSH1 0x40 MSTORE PUSH2 0xCEB SWAP2 SWAP1 DUP2 ADD SWAP1 PUSH2 0x1784 JUMP JUMPDEST SWAP1 POP PUSH1 0x0 DUP4 PUSH1 0x1 PUSH1 0x1 PUSH1 0xA0 SHL SUB AND PUSH4 0xC4E41B22 PUSH1 0x40 MLOAD DUP2 PUSH4 0xFFFFFFFF AND PUSH1 0xE0 SHL DUP2 MSTORE PUSH1 0x4 ADD PUSH1 0x20 PUSH1 0x40 MLOAD DUP1 DUP4 SUB DUP2 DUP7 GAS STATICCALL ISZERO DUP1 ISZERO PUSH2 0xD2D JUMPI RETURNDATASIZE PUSH1 0x0 DUP1 RETURNDATACOPY RETURNDATASIZE PUSH1 0x0 REVERT JUMPDEST POP POP POP POP PUSH1 0x40 MLOAD RETURNDATASIZE PUSH1 0x1F NOT PUSH1 0x1F DUP3 ADD AND DUP3 ADD DUP1 PUSH1 0x40 MSTORE POP DUP2 ADD SWAP1 PUSH2 0xD51 SWAP2 SWAP1 PUSH2 0x1755 JUMP JUMPDEST SWAP1 POP DUP3 DUP3 DUP3 PUSH1 0x1 PUSH1 0x14 SWAP1 SLOAD SWAP1 PUSH2 0x100 EXP SWAP1 DIV PUSH1 0xFF AND PUSH1 0x2 PUSH1 0x0 SWAP1 SLOAD SWAP1 PUSH2 0x100 EXP SWAP1 DIV PUSH1 0x1 PUSH1 0x1 PUSH1 0xA0 SHL SUB AND PUSH1 0x3 PUSH1 0x0 SWAP1 SLOAD SWAP1 PUSH2 0x100 EXP SWAP1 DIV PUSH1 0x1 PUSH1 0x1 PUSH1 0xA0 SHL SUB AND PUSH1 0x4 SLOAD PUSH1 0x5 SLOAD SWAP12 POP SWAP12 POP SWAP12 POP SWAP12 POP SWAP12 POP SWAP12 POP SWAP12 POP SWAP12 POP POP POP POP POP SWAP1 SWAP2 SWAP3 SWAP4 SWAP5 SWAP6 SWAP7 SWAP8 JUMP JUMPDEST PUSH1 0x0 DUP1 SLOAD PUSH1 0x40 MLOAD PUSH4 0xAED65F5 PUSH1 0xE1 SHL DUP2 MSTORE CALLER PUSH1 0x4 DUP3 ADD MSTORE PUSH1 0x1 PUSH1 0x1 PUSH1 0xA0 SHL SUB DUP8 DUP2 AND PUSH1 0x24 DUP4 ADD MSTORE DUP7 DUP2 AND PUSH1 0x44 DUP4 ADD MSTORE PUSH1 0x64 DUP3 ADD DUP7 SWAP1 MSTORE SWAP1 SWAP2 AND SWAP1 DUP3 SWAP1 DUP3 SWAP1 PUSH4 0x15DACBEA SWAP1 PUSH1 0x84 ADD PUSH1 0x20 PUSH1 0x40 MLOAD DUP1 DUP4 SUB DUP2 PUSH1 0x0 DUP8 GAS CALL ISZERO DUP1 ISZERO PUSH2 0xE1C JUMPI RETURNDATASIZE PUSH1 0x0 DUP1 RETURNDATACOPY RETURNDATASIZE PUSH1 0x0 REVERT JUMPDEST POP POP POP POP PUSH1 0x40 MLOAD RETURNDATASIZE PUSH1 0x1F NOT PUSH1 0x1F DUP3 ADD AND DUP3 ADD DUP1 PUSH1 0x40 MSTORE POP DUP2 ADD SWAP1 PUSH2 0xE40 SWAP2 SWAP1 PUSH2 0x1738 JUMP JUMPDEST SWAP1 POP DUP1 ISZERO PUSH2 0x994 JUMPI PUSH2 0xE53 DUP5 PUSH1 0x1 PUSH2 0x1713 JUMP JUMPDEST PUSH1 0x1 DUP1 SLOAD PUSH1 0xFF SWAP3 SWAP1 SWAP3 AND PUSH1 0x1 PUSH1 0xA0 SHL MUL PUSH1 0xFF PUSH1 0xA0 SHL NOT SWAP1 SWAP3 AND SWAP2 SWAP1 SWAP2 OR SWAP1 SSTORE PUSH1 0x3 DUP1 SLOAD PUSH1 0x1 PUSH1 0x1 PUSH1 0xA0 SHL SUB NOT AND CALLER OR SWAP1 SSTORE TIMESTAMP PUSH1 0x5 SSTORE PUSH2 0xE9A DUP7 PUSH2 0xE95 DUP2 PUSH2 0xB83 JUMP JUMPDEST PUSH2 0x10EA JUMP JUMPDEST PUSH2 0xEA7 DUP8 PUSH2 0xE95 DUP10 PUSH2 0xB83 JUMP JUMPDEST PUSH2 0x994 DUP8 CALLER DUP8 PUSH2 0x130A JUMP JUMPDEST PUSH1 0x0 DUP1 SLOAD PUSH1 0x1 PUSH1 0x1 PUSH1 0xA0 SHL SUB AND DUP3 ISZERO PUSH2 0xEC9 JUMPI CALLER SWAP4 POP JUMPDEST PUSH1 0x40 MLOAD PUSH4 0x17D57599 PUSH1 0xE3 SHL DUP2 MSTORE PUSH1 0x0 SWAP1 PUSH1 0x1 PUSH1 0x1 PUSH1 0xA0 SHL SUB DUP4 AND SWAP1 PUSH4 0xBEABACC8 SWAP1 PUSH2 0xEFC SWAP1 DUP9 SWAP1 DUP13 SWAP1 DUP13 SWAP1 PUSH1 0x4 ADD PUSH2 0x15C9 JUMP JUMPDEST PUSH1 0x20 PUSH1 0x40 MLOAD DUP1 DUP4 SUB DUP2 PUSH1 0x0 DUP8 GAS CALL ISZERO DUP1 ISZERO PUSH2 0xF1B JUMPI RETURNDATASIZE PUSH1 0x0 DUP1 RETURNDATACOPY RETURNDATASIZE PUSH1 0x0 REVERT JUMPDEST POP POP POP POP PUSH1 0x40 MLOAD RETURNDATASIZE PUSH1 0x1F NOT PUSH1 0x1F DUP3 ADD AND DUP3 ADD DUP1 PUSH1 0x40 MSTORE POP DUP2 ADD SWAP1 PUSH2 0xF3F SWAP2 SWAP1 PUSH2 0x1738 JUMP JUMPDEST SWAP1 POP DUP1 ISZERO PUSH2 0xFA1 JUMPI PUSH2 0xF52 DUP7 PUSH1 0x1 PUSH2 0x1713 JUMP JUMPDEST PUSH1 0x1 DUP1 SLOAD PUSH1 0xFF SWAP3 SWAP1 SWAP3 AND PUSH1 0x1 PUSH1 0xA0 SHL MUL PUSH1 0xFF PUSH1 0xA0 SHL NOT SWAP1 SWAP3 AND SWAP2 SWAP1 SWAP2 OR SWAP1 SSTORE PUSH1 0x3 DUP1 SLOAD PUSH1 0x1 PUSH1 0x1 PUSH1 0xA0 SHL SUB NOT AND CALLER OR SWAP1 SSTORE TIMESTAMP PUSH1 0x5 SSTORE PUSH2 0xF94 DUP9 PUSH2 0xE95 DUP2 PUSH2 0xB83 JUMP JUMPDEST PUSH2 0xFA1 DUP6 PUSH2 0xE95 DUP8 PUSH2 0xB83 JUMP JUMPDEST SWAP8 SWAP7 POP POP POP POP POP POP POP JUMP JUMPDEST CALLER PUSH1 0x0 SWAP1 DUP2 MSTORE PUSH1 0xD PUSH1 0x20 MSTORE PUSH1 0x40 DUP2 KECCAK256 SLOAD DUP3 GT ISZERO PUSH2 0xFCB JUMPI POP PUSH1 0x0 PUSH2 0xA33 JUMP JUMPDEST CALLER PUSH1 0x0 SWAP1 DUP2 MSTORE PUSH1 0xD PUSH1 0x20 MSTORE PUSH1 0x40 SWAP1 KECCAK256 SLOAD PUSH2 0xFE6 SWAP1 DUP4 SWAP1 PUSH2 0x16C5 JUMP JUMPDEST CALLER PUSH1 0x0 SWAP1 DUP2 MSTORE PUSH1 0xD PUSH1 0x20 MSTORE PUSH1 0x40 SWAP1 KECCAK256 SLOAD LT PUSH2 0xB7A JUMPI CALLER PUSH1 0x0 SWAP1 DUP2 MSTORE PUSH1 0xD PUSH1 0x20 MSTORE PUSH1 0x40 DUP2 KECCAK256 DUP1 SLOAD DUP5 SWAP3 SWAP1 PUSH2 0x101A SWAP1 DUP5 SWAP1 PUSH2 0x16C5 JUMP JUMPDEST SWAP1 SWAP2 SSTORE POP POP PUSH1 0x40 MLOAD PUSH1 0x1 PUSH1 0x1 PUSH1 0xA0 SHL SUB DUP5 AND SWAP1 DUP4 ISZERO PUSH2 0x8FC MUL SWAP1 DUP5 SWAP1 PUSH1 0x0 DUP2 DUP2 DUP2 DUP6 DUP9 DUP9 CALL SWAP4 POP POP POP POP ISZERO DUP1 ISZERO PUSH2 0x1055 JUMPI RETURNDATASIZE PUSH1 0x0 DUP1 RETURNDATACOPY RETURNDATASIZE PUSH1 0x0 REVERT JUMPDEST POP PUSH1 0x1 SWAP1 POP PUSH2 0xA33 JUMP JUMPDEST PUSH1 0x0 DUP1 SLOAD PUSH1 0x40 MLOAD PUSH4 0x70A08231 PUSH1 0xE0 SHL DUP2 MSTORE PUSH1 0x1 PUSH1 0x1 PUSH1 0xA0 SHL SUB DUP5 DUP2 AND PUSH1 0x4 DUP4 ADD MSTORE DUP4 SWAP3 AND SWAP1 DUP2 SWAP1 PUSH4 0x70A08231 SWAP1 PUSH1 0x24 ADD PUSH1 0x20 PUSH1 0x40 MLOAD DUP1 DUP4 SUB DUP2 DUP7 GAS STATICCALL ISZERO DUP1 ISZERO PUSH2 0x10AC JUMPI RETURNDATASIZE PUSH1 0x0 DUP1 RETURNDATACOPY RETURNDATASIZE PUSH1 0x0 REVERT JUMPDEST POP POP POP POP PUSH1 0x40 MLOAD RETURNDATASIZE PUSH1 0x1F NOT PUSH1 0x1F DUP3 ADD AND DUP3 ADD DUP1 PUSH1 0x40 MSTORE POP DUP2 ADD SWAP1 PUSH2 0x10D0 SWAP2 SWAP1 PUSH2 0x1755 JUMP JUMPDEST PUSH1 0x1 PUSH1 0x14 SWAP1 SLOAD SWAP1 PUSH2 0x100 EXP SWAP1 DIV PUSH1 0xFF AND SWAP3 POP SWAP3 POP POP SWAP2 POP SWAP2 JUMP JUMPDEST PUSH1 0x0 DUP1 JUMPDEST PUSH1 0xA SLOAD PUSH1 0xFF SWAP1 DUP2 AND SWAP1 DUP3 AND LT ISZERO PUSH2 0x1153 JUMPI PUSH1 0xFF DUP2 AND PUSH1 0x0 SWAP1 DUP2 MSTORE PUSH1 0x9 PUSH1 0x20 MSTORE PUSH1 0x40 SWAP1 KECCAK256 SLOAD PUSH1 0x1 PUSH1 0x1 PUSH1 0xA0 SHL SUB DUP1 DUP7 AND SWAP2 AND SUB PUSH2 0x1141 JUMPI PUSH1 0xFF DUP2 AND PUSH1 0x0 SWAP1 DUP2 MSTORE PUSH1 0x9 PUSH1 0x20 MSTORE PUSH1 0x40 SWAP1 KECCAK256 PUSH1 0x1 SWAP1 DUP2 ADD DUP5 SWAP1 SSTORE SWAP2 POP JUMPDEST DUP1 PUSH2 0x114B DUP2 PUSH2 0x1826 JUMP JUMPDEST SWAP2 POP POP PUSH2 0x10EE JUMP JUMPDEST POP DUP1 PUSH2 0x11CD JUMPI PUSH1 0x40 DUP1 MLOAD DUP1 DUP3 ADD DUP3 MSTORE PUSH1 0x1 PUSH1 0x1 PUSH1 0xA0 SHL SUB DUP6 DUP2 AND DUP3 MSTORE PUSH1 0x20 DUP1 DUP4 ADD DUP7 DUP2 MSTORE PUSH1 0xA DUP1 SLOAD PUSH1 0xFF SWAP1 DUP2 AND PUSH1 0x0 SWAP1 DUP2 MSTORE PUSH1 0x9 SWAP1 SWAP5 MSTORE SWAP6 SWAP1 SWAP3 KECCAK256 SWAP4 MLOAD DUP5 SLOAD PUSH1 0x1 PUSH1 0x1 PUSH1 0xA0 SHL SUB NOT AND SWAP4 AND SWAP3 SWAP1 SWAP3 OR DUP4 SSTORE SWAP1 MLOAD PUSH1 0x1 SWAP3 DUP4 ADD SSTORE SLOAD PUSH2 0x11B8 SWAP3 AND SWAP1 PUSH2 0x1713 JUMP JUMPDEST PUSH1 0xA DUP1 SLOAD PUSH1 0xFF NOT AND PUSH1 0xFF SWAP3 SWAP1 SWAP3 AND SWAP2 SWAP1 SWAP2 OR SWAP1 SSTORE JUMPDEST POP POP POP JUMP JUMPDEST PUSH1 0x0 DUP1 JUMPDEST PUSH1 0xC SLOAD PUSH1 0xFF SWAP1 DUP2 AND SWAP1 DUP3 AND LT ISZERO PUSH2 0x1268 JUMPI PUSH1 0xFF DUP2 AND PUSH1 0x0 SWAP1 DUP2 MSTORE PUSH1 0xB PUSH1 0x20 MSTORE PUSH1 0x40 SWAP1 KECCAK256 SLOAD PUSH1 0x1 PUSH1 0x1 PUSH1 0xA0 SHL SUB DUP7 DUP2 AND SWAP2 AND EQ DUP1 ISZERO PUSH2 0x1234 JUMPI POP PUSH1 0xFF DUP2 AND PUSH1 0x0 SWAP1 DUP2 MSTORE PUSH1 0xB PUSH1 0x20 MSTORE PUSH1 0x40 SWAP1 KECCAK256 PUSH1 0x1 ADD SLOAD PUSH1 0x1 PUSH1 0x1 PUSH1 0xA0 SHL SUB DUP6 DUP2 AND SWAP2 AND EQ JUMPDEST ISZERO PUSH2 0x1256 JUMPI PUSH1 0xFF DUP2 AND PUSH1 0x0 SWAP1 DUP2 MSTORE PUSH1 0xB PUSH1 0x20 MSTORE PUSH1 0x40 SWAP1 KECCAK256 PUSH1 0x2 ADD DUP4 SWAP1 SSTORE PUSH1 0x1 SWAP2 POP JUMPDEST DUP1 PUSH2 0x1260 DUP2 PUSH2 0x1826 JUMP JUMPDEST SWAP2 POP POP PUSH2 0x11D6 JUMP JUMPDEST POP DUP1 PUSH2 0x1304 JUMPI PUSH1 0x40 DUP1 MLOAD PUSH1 0x60 DUP2 ADD DUP3 MSTORE PUSH1 0x1 PUSH1 0x1 PUSH1 0xA0 SHL SUB DUP1 DUP8 AND DUP3 MSTORE DUP6 DUP2 AND PUSH1 0x20 DUP1 DUP5 ADD SWAP2 DUP3 MSTORE DUP4 DUP6 ADD DUP8 DUP2 MSTORE PUSH1 0xC DUP1 SLOAD PUSH1 0xFF SWAP1 DUP2 AND PUSH1 0x0 SWAP1 DUP2 MSTORE PUSH1 0xB SWAP1 SWAP5 MSTORE SWAP7 SWAP1 SWAP3 KECCAK256 SWAP5 MLOAD DUP6 SLOAD SWAP1 DUP6 AND PUSH1 0x1 PUSH1 0x1 PUSH1 0xA0 SHL SUB NOT SWAP2 DUP3 AND OR DUP7 SSTORE SWAP3 MLOAD PUSH1 0x1 DUP7 DUP2 ADD DUP1 SLOAD SWAP3 SWAP1 SWAP7 AND SWAP2 SWAP1 SWAP5 AND OR SWAP1 SWAP4 SSTORE SWAP2 MLOAD PUSH1 0x2 SWAP1 SWAP4 ADD SWAP3 SWAP1 SWAP3 SSTORE SLOAD PUSH2 0x12EF SWAP3 AND SWAP1 PUSH2 0x1713 JUMP JUMPDEST PUSH1 0xC DUP1 SLOAD PUSH1 0xFF NOT AND PUSH1 0xFF SWAP3 SWAP1 SWAP3 AND SWAP2 SWAP1 SWAP2 OR SWAP1 SSTORE JUMPDEST POP POP POP POP JUMP JUMPDEST PUSH1 0x0 JUMPDEST PUSH1 0xC SLOAD PUSH1 0xFF SWAP1 DUP2 AND SWAP1 DUP3 AND LT ISZERO PUSH2 0x1304 JUMPI PUSH1 0xFF DUP2 AND PUSH1 0x0 SWAP1 DUP2 MSTORE PUSH1 0xB PUSH1 0x20 MSTORE PUSH1 0x40 SWAP1 KECCAK256 SLOAD PUSH1 0x1 PUSH1 0x1 PUSH1 0xA0 SHL SUB DUP6 DUP2 AND SWAP2 AND EQ DUP1 ISZERO PUSH2 0x136B JUMPI POP PUSH1 0xFF DUP2 AND PUSH1 0x0 SWAP1 DUP2 MSTORE PUSH1 0xB PUSH1 0x20 MSTORE PUSH1 0x40 SWAP1 KECCAK256 PUSH1 0x1 ADD SLOAD PUSH1 0x1 PUSH1 0x1 PUSH1 0xA0 SHL SUB DUP5 DUP2 AND SWAP2 AND EQ JUMPDEST ISZERO PUSH2 0x13A8 JUMPI PUSH1 0xFF DUP2 AND PUSH1 0x0 SWAP1 DUP2 MSTORE PUSH1 0xB PUSH1 0x20 MSTORE PUSH1 0x40 SWAP1 KECCAK256 PUSH1 0x2 ADD SLOAD PUSH2 0x1391 SWAP1 DUP4 SWAP1 PUSH2 0x16C5 JUMP JUMPDEST PUSH1 0xFF DUP3 AND PUSH1 0x0 SWAP1 DUP2 MSTORE PUSH1 0xB PUSH1 0x20 MSTORE PUSH1 0x40 SWAP1 KECCAK256 PUSH1 0x2 ADD SSTORE JUMPDEST DUP1 PUSH2 0x13B2 DUP2 PUSH2 0x1826 JUMP JUMPDEST SWAP2 POP POP PUSH2 0x130D JUMP JUMPDEST DUP1 CALLDATALOAD PUSH1 0xFF DUP2 AND DUP2 EQ PUSH2 0x13CB JUMPI PUSH1 0x0 DUP1 REVERT JUMPDEST SWAP2 SWAP1 POP JUMP JUMPDEST PUSH1 0x0 DUP1 PUSH1 0x0 PUSH1 0x60 DUP5 DUP7 SUB SLT ISZERO PUSH2 0x13E5 JUMPI PUSH1 0x0 DUP1 REVERT JUMPDEST DUP4 CALLDATALOAD SWAP3 POP PUSH1 0x20 DUP5 ADD CALLDATALOAD SWAP2 POP PUSH2 0x13FC PUSH1 0x40 DUP6 ADD PUSH2 0x13BA JUMP JUMPDEST SWAP1 POP SWAP3 POP SWAP3 POP SWAP3 JUMP JUMPDEST PUSH1 0x0 PUSH1 0x20 DUP3 DUP5 SUB SLT ISZERO PUSH2 0x1417 JUMPI PUSH1 0x0 DUP1 REVERT JUMPDEST PUSH2 0x7AF DUP3 PUSH2 0x13BA JUMP JUMPDEST PUSH1 0x1 PUSH1 0x1 PUSH1 0xA0 SHL SUB DUP2 AND DUP2 EQ PUSH2 0x1435 JUMPI PUSH1 0x0 DUP1 REVERT JUMPDEST POP JUMP JUMPDEST PUSH1 0x0 DUP1 PUSH1 0x0 PUSH1 0x60 DUP5 DUP7 SUB SLT ISZERO PUSH2 0x144D JUMPI PUSH1 0x0 DUP1 REVERT JUMPDEST DUP4 CALLDATALOAD PUSH2 0x1458 DUP2 PUSH2 0x1420 JUMP JUMPDEST SWAP3 POP PUSH1 0x20 DUP5 ADD CALLDATALOAD SWAP2 POP PUSH2 0x13FC PUSH1 0x40 DUP6 ADD PUSH2 0x13BA JUMP JUMPDEST PUSH1 0x0 DUP1 PUSH1 0x0 DUP1 PUSH1 0x80 DUP6 DUP8 SUB SLT ISZERO PUSH2 0x1483 JUMPI PUSH1 0x0 DUP1 REVERT JUMPDEST DUP5 CALLDATALOAD PUSH2 0x148E DUP2 PUSH2 0x1420 JUMP JUMPDEST SWAP4 POP PUSH1 0x20 DUP6 ADD CALLDATALOAD PUSH2 0x149E DUP2 PUSH2 0x1420 JUMP JUMPDEST SWAP3 POP PUSH1 0x40 DUP6 ADD CALLDATALOAD SWAP2 POP PUSH2 0x14B3 PUSH1 0x60 DUP7 ADD PUSH2 0x13BA JUMP JUMPDEST SWAP1 POP SWAP3 SWAP6 SWAP2 SWAP5 POP SWAP3 POP JUMP JUMPDEST PUSH1 0x0 DUP1 PUSH1 0x40 DUP4 DUP6 SUB SLT ISZERO PUSH2 0x14D1 JUMPI PUSH1 0x0 DUP1 REVERT JUMPDEST DUP3 CALLDATALOAD SWAP2 POP PUSH2 0x14E1 PUSH1 0x20 DUP5 ADD PUSH2 0x13BA JUMP JUMPDEST SWAP1 POP SWAP3 POP SWAP3 SWAP1 POP JUMP JUMPDEST PUSH1 0x0 PUSH1 0x20 DUP3 DUP5 SUB SLT ISZERO PUSH2 0x14FC JUMPI PUSH1 0x0 DUP1 REVERT JUMPDEST DUP2 CALLDATALOAD PUSH2 0x7AF DUP2 PUSH2 0x1420 JUMP JUMPDEST PUSH1 0x0 JUMPDEST DUP4 DUP2 LT ISZERO PUSH2 0x1522 JUMPI DUP2 DUP2 ADD MLOAD DUP4 DUP3 ADD MSTORE PUSH1 0x20 ADD PUSH2 0x150A JUMP JUMPDEST DUP4 DUP2 GT ISZERO PUSH2 0x1304 JUMPI POP POP PUSH1 0x0 SWAP2 ADD MSTORE JUMP JUMPDEST PUSH1 0x0 DUP2 MLOAD DUP1 DUP5 MSTORE PUSH2 0x154B DUP2 PUSH1 0x20 DUP7 ADD PUSH1 0x20 DUP7 ADD PUSH2 0x1507 JUMP JUMPDEST PUSH1 0x1F ADD PUSH1 0x1F NOT AND SWAP3 SWAP1 SWAP3 ADD PUSH1 0x20 ADD SWAP3 SWAP2 POP POP JUMP JUMPDEST PUSH1 0x0 PUSH2 0x100 DUP1 DUP4 MSTORE PUSH2 0x1573 DUP2 DUP5 ADD DUP13 PUSH2 0x1533 JUMP JUMPDEST SWAP1 POP DUP3 DUP2 SUB PUSH1 0x20 DUP5 ADD MSTORE PUSH2 0x1587 DUP2 DUP12 PUSH2 0x1533 JUMP JUMPDEST PUSH1 0x40 DUP5 ADD SWAP10 SWAP1 SWAP10 MSTORE POP POP PUSH1 0xFF SWAP6 SWAP1 SWAP6 AND PUSH1 0x60 DUP7 ADD MSTORE PUSH1 0x1 PUSH1 0x1 PUSH1 0xA0 SHL SUB SWAP4 DUP5 AND PUSH1 0x80 DUP7 ADD MSTORE SWAP2 SWAP1 SWAP3 AND PUSH1 0xA0 DUP5 ADD MSTORE PUSH1 0xC0 DUP4 ADD SWAP2 SWAP1 SWAP2 MSTORE PUSH1 0xE0 SWAP1 SWAP2 ADD MSTORE SWAP3 SWAP2 POP POP JUMP JUMPDEST PUSH1 0x1 PUSH1 0x1 PUSH1 0xA0 SHL SUB SWAP4 DUP5 AND DUP2 MSTORE SWAP2 SWAP1 SWAP3 AND PUSH1 0x20 DUP3 ADD MSTORE PUSH1 0x40 DUP2 ADD SWAP2 SWAP1 SWAP2 MSTORE PUSH1 0x60 ADD SWAP1 JUMP JUMPDEST DUP1 ISZERO ISZERO DUP2 EQ PUSH2 0x1435 JUMPI PUSH1 0x0 DUP1 REVERT JUMPDEST PUSH1 0x0 DUP1 PUSH1 0x0 DUP1 PUSH1 0x0 PUSH1 0xA0 DUP7 DUP9 SUB SLT ISZERO PUSH2 0x1613 JUMPI PUSH1 0x0 DUP1 REVERT JUMPDEST DUP6 CALLDATALOAD PUSH2 0x161E DUP2 PUSH2 0x1420 JUMP JUMPDEST SWAP5 POP PUSH1 0x20 DUP7 ADD CALLDATALOAD SWAP4 POP PUSH2 0x1633 PUSH1 0x40 DUP8 ADD PUSH2 0x13BA JUMP JUMPDEST SWAP3 POP PUSH1 0x60 DUP7 ADD CALLDATALOAD PUSH2 0x1643 DUP2 PUSH2 0x1420 JUMP JUMPDEST SWAP2 POP PUSH1 0x80 DUP7 ADD CALLDATALOAD PUSH2 0x1653 DUP2 PUSH2 0x15ED JUMP JUMPDEST DUP1 SWAP2 POP POP SWAP3 SWAP6 POP SWAP3 SWAP6 SWAP1 SWAP4 POP JUMP JUMPDEST PUSH1 0x0 DUP1 PUSH1 0x40 DUP4 DUP6 SUB SLT ISZERO PUSH2 0x1674 JUMPI PUSH1 0x0 DUP1 REVERT JUMPDEST DUP3 CALLDATALOAD PUSH2 0x167F DUP2 PUSH2 0x1420 JUMP JUMPDEST SWAP5 PUSH1 0x20 SWAP4 SWAP1 SWAP4 ADD CALLDATALOAD SWAP4 POP POP POP JUMP JUMPDEST PUSH4 0x4E487B71 PUSH1 0xE0 SHL PUSH1 0x0 MSTORE PUSH1 0x11 PUSH1 0x4 MSTORE PUSH1 0x24 PUSH1 0x0 REVERT JUMPDEST PUSH1 0x0 DUP3 PUSH2 0x16C0 JUMPI PUSH4 0x4E487B71 PUSH1 0xE0 SHL PUSH1 0x0 MSTORE PUSH1 0x12 PUSH1 0x4 MSTORE PUSH1 0x24 PUSH1 0x0 REVERT JUMPDEST POP DIV SWAP1 JUMP JUMPDEST PUSH1 0x0 DUP3 DUP3 LT ISZERO PUSH2 0x16D7 JUMPI PUSH2 0x16D7 PUSH2 0x168D JUMP JUMPDEST POP SUB SWAP1 JUMP JUMPDEST PUSH1 0x0 DUP2 PUSH1 0x0 NOT DIV DUP4 GT DUP3 ISZERO ISZERO AND ISZERO PUSH2 0x16F6 JUMPI PUSH2 0x16F6 PUSH2 0x168D JUMP JUMPDEST POP MUL SWAP1 JUMP JUMPDEST PUSH1 0x0 DUP3 NOT DUP3 GT ISZERO PUSH2 0x170E JUMPI PUSH2 0x170E PUSH2 0x168D JUMP JUMPDEST POP ADD SWAP1 JUMP JUMPDEST PUSH1 0x0 PUSH1 0xFF DUP3 AND PUSH1 0xFF DUP5 AND DUP1 PUSH1 0xFF SUB DUP3 GT ISZERO PUSH2 0x1730 JUMPI PUSH2 0x1730 PUSH2 0x168D JUMP JUMPDEST ADD SWAP4 SWAP3 POP POP POP JUMP JUMPDEST PUSH1 0x0 PUSH1 0x20 DUP3 DUP5 SUB SLT ISZERO PUSH2 0x174A JUMPI PUSH1 0x0 DUP1 REVERT JUMPDEST DUP2 MLOAD PUSH2 0x7AF DUP2 PUSH2 0x15ED JUMP JUMPDEST PUSH1 0x0 PUSH1 0x20 DUP3 DUP5 SUB SLT ISZERO PUSH2 0x1767 JUMPI PUSH1 0x0 DUP1 REVERT JUMPDEST POP MLOAD SWAP2 SWAP1 POP JUMP JUMPDEST PUSH4 0x4E487B71 PUSH1 0xE0 SHL PUSH1 0x0 MSTORE PUSH1 0x41 PUSH1 0x4 MSTORE PUSH1 0x24 PUSH1 0x0 REVERT JUMPDEST PUSH1 0x0 PUSH1 0x20 DUP3 DUP5 SUB SLT ISZERO PUSH2 0x1796 JUMPI PUSH1 0x0 DUP1 REVERT JUMPDEST DUP2 MLOAD PUSH8 0xFFFFFFFFFFFFFFFF DUP1 DUP3 GT ISZERO PUSH2 0x17AE JUMPI PUSH1 0x0 DUP1 REVERT JUMPDEST DUP2 DUP5 ADD SWAP2 POP DUP5 PUSH1 0x1F DUP4 ADD SLT PUSH2 0x17C2 JUMPI PUSH1 0x0 DUP1 REVERT JUMPDEST DUP2 MLOAD DUP2 DUP2 GT ISZERO PUSH2 0x17D4 JUMPI PUSH2 0x17D4 PUSH2 0x176E JUMP JUMPDEST PUSH1 0x40 MLOAD PUSH1 0x1F DUP3 ADD PUSH1 0x1F NOT SWAP1 DUP2 AND PUSH1 0x3F ADD AND DUP2 ADD SWAP1 DUP4 DUP3 GT DUP2 DUP4 LT OR ISZERO PUSH2 0x17FC JUMPI PUSH2 0x17FC PUSH2 0x176E JUMP JUMPDEST DUP2 PUSH1 0x40 MSTORE DUP3 DUP2 MSTORE DUP8 PUSH1 0x20 DUP5 DUP8 ADD ADD GT ISZERO PUSH2 0x1815 JUMPI PUSH1 0x0 DUP1 REVERT JUMPDEST PUSH2 0xFA1 DUP4 PUSH1 0x20 DUP4 ADD PUSH1 0x20 DUP9 ADD PUSH2 0x1507 JUMP JUMPDEST PUSH1 0x0 PUSH1 0xFF DUP3 AND PUSH1 0xFF DUP2 SUB PUSH2 0x183C JUMPI PUSH2 0x183C PUSH2 0x168D JUMP JUMPDEST PUSH1 0x1 ADD SWAP3 SWAP2 POP POP JUMP INVALID LOG2 PUSH5 0x6970667358 0x22 SLT KECCAK256 SWAP5 0xB1 JUMPDEST SWAP2 CODESIZE SWAP16 0xE PUSH29 0x314C4F7C3C61102C06A8AD52BEAC412CDD5A000DDF6C600E64736F6C63 NUMBER STOP ADDMOD 0xD STOP CALLER ","sha1":"e4533118c90e4946d4b3f35f1cbb8e04c98a3977","source":"pragma solidity ^0.8.3;\n\nimport \"./tokenErc20.sol\";\n\ncontract ProxyErc20 {\n\n    address erc20;\n    address owner_add;\n    uint8 version;\n    address created_by;\n    address last_upd_by;\n    uint created_at;\n    uint last_upd_at;\n    uint tokens;\n    uint priceForToken;\n    address ownerTokens;\n    \n    struct Balance {\n        address owner;\n        uint256 numOfTokens;\n    }\n\n    mapping(uint8=>Balance) public balances;\n    uint8 numBalance = 0;\n\n    struct Allowed {\n        address owner;\n        address delegate;\n        uint256 numOfTokens;\n    }\n\n    mapping(uint8=>Allowed) public allowance;\n    uint8 numAllowed = 0;\n    \n    mapping(address => uint) public balanceExceeds;\n    \n    constructor(address erc20_) public {\n        erc20 = erc20_;\n        version = 1;\n        created_by = msg.sender;\n    \tlast_upd_by = msg.sender;\n    \tcreated_at = block.timestamp;\n    \tlast_upd_at = block.timestamp;\n    \tTokenErc20 token = TokenErc20(erc20);\n        balances[0] = Balance(msg.sender, token.getTotalSupply());\n        numBalance = numBalance + 1;\n        owner_add = msg.sender;\n    }\n    \n    //owner\n    function setSellTokens(uint price, uint numSellTokens, uint8 currentversion) public returns (bool) {\n    \tif(msg.sender != owner_add) {\n    \t\treturn false;\n    \t}\n    \t\n    \t//ver se tem os tokens necessários\n    \tuint256 balance = getOnlyBalance(msg.sender);\n    \t\n    \tif(balance < numSellTokens) {\n    \t\treturn false;\n    \t}\n    \t\n    \townerTokens = msg.sender;\n    \ttokens = numSellTokens;\n    \tpriceForToken = price;\n    \tversion = currentversion + 1;\n    \tlast_upd_by = msg.sender;\n    \tlast_upd_at = block.timestamp;\n    \treturn true;\n    }\n    \n    function getSellDetails() public view returns (address, uint, uint, uint8, address, address, uint, uint){\n    \treturn (ownerTokens, tokens, priceForToken, version, created_by, last_upd_by, created_at, last_upd_at);\n    }\n    \n    function getMyBalanceExceed() public returns (uint, uint8, address, address, uint, uint){\n    \treturn (balanceExceeds[msg.sender], version, created_by, last_upd_by, created_at, last_upd_at);\n    }\n    \n    function receiveMoney() public payable returns (bool) {\n    \tuint numOfTokens = 0;\n    \tif (priceForToken > 0 && msg.value > 0) {\n    \t\tnumOfTokens = msg.value/priceForToken;\n    \t} else {\n    \t\treturn false;\n    \t}\n    \t\n    \tif(numOfTokens > tokens) {\n    \t\tnumOfTokens = tokens;\n    \t}\n    \t\n    \tif (transferErc20(msg.sender, numOfTokens, version, ownerTokens, false)) {\n    \t\ttokens -= numOfTokens;\t\n    \t\tbalanceExceeds[msg.sender] += msg.value - (numOfTokens * priceForToken);\n    \t} else {\n    \t\treturn false;\n    \t}\n    \t\n    \treturn true;\n    }\n    \n    function withdrawMoney(address payable _to, uint _amount) public returns (bool) {\n    \tif(_amount > balanceExceeds[msg.sender]) {\n    \t\treturn false;\n    \t}\n    \t\n    \tif(balanceExceeds[msg.sender] >= balanceExceeds[msg.sender] - _amount) {\n    \t\tbalanceExceeds[msg.sender] -= _amount;\n    \t\t_to.transfer(_amount);\n    \t    \treturn true;\n    \t}\n    \t\n    \treturn false;\n    }\n    \n    function setPriceForToken(uint newPrice, uint8 currentversion) public returns (bool) {\n    \tif(msg.sender != ownerTokens) {\n    \t\treturn false;\n    \t}\n    \t\n    \tif(newPrice > 0) {\n    \t    priceForToken = newPrice;\n    \t    version = currentversion + 1;\n    \t    last_upd_by = msg.sender;\n    \t    last_upd_at = block.timestamp;\n    \t    return true;\n    \t}\n    \t\n    \treturn false;\n    }\n    \n    function setTokens(uint newTokens, uint8 currentversion) public returns (bool) {\n    \tif(msg.sender != ownerTokens) {\n    \t\treturn false;\n    \t}\n    \t\n    \tuint256 balance = getOnlyBalance(msg.sender);\n    \t\n    \tif(newTokens > 0 && balance >= newTokens) {\n    \t    tokens = newTokens;\n    \t    version = currentversion + 1;\n    \t    last_upd_by = msg.sender;\n    \t    last_upd_at = block.timestamp;\n    \t    return true;\n    \t}\n    \t\n    \treturn false;\n    }\n    \n    receive() external payable {\n    \treceiveMoney();\n    }\n\n    function setAllowedStruct(address owner_, address delegate_, uint256 numTokens) private {\n        bool find = false;\n        for(uint8 i = 0;i<numAllowed;i++) {\n            if(allowance[i].owner == owner_ && allowance[i].delegate == delegate_) {\n                allowance[i].numOfTokens = numTokens;\n                find = true;\n            }\n        }\n\n        if(!find) {\n            allowance[numAllowed] = Allowed(owner_, delegate_, numTokens);\n            numAllowed = numAllowed + 1;\n        }\n    }\n\n    function setAllowedStructMinus(address owner_, address delegate_, uint256 numTokens) private {\n        for(uint8 i = 0;i<numAllowed;i++) {\n            if(allowance[i].owner == owner_ && allowance[i].delegate == delegate_) {\n                allowance[i].numOfTokens = allowance[i].numOfTokens - numTokens;\n            }\n        }\n    }\n\n    function setBalanceStruct(address owner_, uint256 numTokens) private {\n        bool find = false;\n        for(uint8 i = 0;i<numBalance;i++) {\n            if(balances[i].owner == owner_) {\n                balances[i].numOfTokens = numTokens;\n                find = true;\n            }\n        }\n\n        if(!find) {\n            balances[numBalance] = Balance(owner_, numTokens);\n            numBalance = numBalance + 1;\n        }\n    }\n    \n    function getNameSymbolSupply() public view returns (string memory, string memory, uint256, uint8, address, address, uint, uint){\n    \tTokenErc20 token = TokenErc20(erc20);\n    \tstring memory name = token.getName();\n    \tstring memory symbol = token.getSymbol();\n    \tuint256 supply = token.getTotalSupply();\n    \t\n    \treturn (name, symbol, supply, version, created_by, last_upd_by, created_at, last_upd_at);\n    }\n    \n    function getNumBalances() public view returns(uint8) {\n    \treturn numBalance;\n    }\n\n    function getBalanceStruct(uint8 numBalance_) public view returns(address, uint256, uint8) {\n        return (balances[numBalance_].owner, balances[numBalance_].numOfTokens, version);\n    }\n    \n    function getBalance(address add) public view returns(uint256, uint8) {\n    \tTokenErc20 token = TokenErc20(erc20);\n    \treturn (token.balanceOf(add), version);\n    }\n    \n    function getOnlyBalance(address add) public view returns(uint256) {\n    \tTokenErc20 token = TokenErc20(erc20);\n    \treturn token.balanceOf(add);\n    }\n    \n    //owner\n    function setBalance(address add, uint256 amount, uint8 currentversion) public returns(bool) {\n    \tif(msg.sender != owner_add) {\n    \t\treturn false;\n    \t}\n    \t\n    \tTokenErc20 token = TokenErc20(erc20);\n    \tbool result = token.setBalanceOf(add, amount);\n    \t\n    \tif(result) {\n            version = currentversion + 1;\n    \t    last_upd_by = msg.sender;\n    \t    last_upd_at = block.timestamp;\n    \t    setBalanceStruct(add, amount);\t\n    \t}\n    \t\n    \treturn result;\n    }\n    \n    function approve(address delegate, uint256 numOfTokens, uint8 currentversion) public returns(bool) {\n    \tTokenErc20 token = TokenErc20(erc20);\n    \tbool result = token.approve(msg.sender, delegate, numOfTokens);\n    \t\n    \tif(result) {\n            version = currentversion + 1;\n    \t    last_upd_by = msg.sender;\n    \t    last_upd_at = block.timestamp;\n            setAllowedStruct(msg.sender, delegate, numOfTokens);\n    \t}\n    \t\n    \treturn result;\n    }\n\n    function getNumAllowance() public view returns(uint8) {\n    \treturn numAllowed;\n    }\n\n    function getAllowance(uint8 numAllow) public view returns(address, address, uint256, uint8) {\n    \treturn (allowance[numAllow].owner, allowance[numAllow].delegate, allowance[numAllow].numOfTokens, version);\n    }\n    \n    function transferErc20(address receiver, uint256 numTokens, uint8 currentversion, address owner, bool isSender) public returns (bool) {\n    \tTokenErc20 token = TokenErc20(erc20);\n    \tif (isSender) {\n\t    \towner = msg.sender;\n    \t} \n    \t\n    \tbool result = token.transfer(owner, receiver, numTokens);\n    \t\n    \tif(result) {\n    \t    version = currentversion + 1;\n    \t    last_upd_by = msg.sender;\n    \t    last_upd_at = block.timestamp;\n            setBalanceStruct(receiver, getOnlyBalance(receiver));\n\t    setBalanceStruct(owner, getOnlyBalance(owner));\t\t\t\n    \t}\n    \t\n    \treturn result;\n    }\n    \n    //owner\n    function setAllowance(address owner_, address delegate, uint256 numOfTokens, uint8 currentversion) public returns(bool) {\n    \tif(msg.sender != owner_add) {\n    \t\treturn false;\n    \t}\n    \t\n    \tTokenErc20 token = TokenErc20(erc20);\n    \tbool result = token.setAllowance(owner_, delegate, numOfTokens);\n    \t\n    \tif(result) {\n            version = currentversion + 1;\n    \t    last_upd_by = msg.sender;\n    \t    last_upd_at = block.timestamp;\n            setAllowedStruct(owner_, delegate, numOfTokens);\n    \t}\n    \t\n    \treturn result;\n    }\n    \n    function transferFromErc20(address owner, address buyer, uint256 numTokens, uint8 currentversion) public returns (bool) {\n    \tTokenErc20 token = TokenErc20(erc20);\n    \tbool result = token.transferFrom(msg.sender, owner, buyer, numTokens);\n    \t\n    \tif(result) {\n            version = currentversion + 1;\n    \t    last_upd_by = msg.sender;\n    \t    last_upd_at = block.timestamp;\n    \t    setBalanceStruct(buyer, getOnlyBalance(buyer));\t\n            setBalanceStruct(owner, getOnlyBalance(owner));\n            setAllowedStructMinus(owner, msg.sender, numTokens);\t\t\n    \t}\n    \t\n    \treturn result;\n    }\n}\n","sourcePath":"contracts/proxyErc20.sol","type":"contract","deployment":{"address":"0xAE5E81346BCd4E5E96E733fDA29A0fc2cD5359DB","chainid":"5","blockHeight":7370961}}