{"bytecode":"608060405234801561001057600080fd5b50604051610cb6380380610cb683398101604081905261002f916100c8565b6000805460ff60a01b196001600160a01b039093166001600160a01b03199182161792909216600160a01b178155600180548316339081178255600280548516821790554260038190556004556005805492830181559092527f036b6384b5eca791c62761152d0c79bb0604c104a5fb6f4eb0703f3154bb3db0018054909216179055610116565b80516100c2816100ff565b92915050565b6000602082840312156100da57600080fd5b60006100e684846100b7565b949350505050565b60006001600160a01b0382166100c2565b610108816100ee565b811461011357600080fd5b50565b610b91806101256000396000f3fe608060405234801561001057600080fd5b50600436106100625760003560e01c8063310ec4a71461006757806345faaf2814610090578063973e9b8b146100a5578063a2ab04b7146100ba578063e30443bc146100d6578063f8b2cb4f146100e9575b600080fd5b61007a61007536600461073b565b610109565b60405161008791906109c8565b60405180910390f35b6100986101f9565b60405161008791906109a6565b6100ad61025c565b60405161008791906109b7565b6100c26102ff565b6040516100879897969594939291906109d6565b61007a6100e436600461073b565b6104ee565b6100fc6100f7366004610715565b610582565b6040516100879190610a59565b604080518082019091523381526001600160a01b0383166020820152600680546001810180835560009283529192610165917ff652222313e28459528d920b65115c16c04f3efc82aaedc97be59f3f377c0d3f0190600261060c565b50506000805460405163095ea7b360e01b81526001600160a01b039091169190829063095ea7b39061019d908890889060040161098b565b602060405180830381600087803b1580156101b757600080fd5b505af11580156101cb573d6000803e3d6000fd5b505050506040513d601f19601f820116820180604052506101ef9190810190610775565b9050505092915050565b6060600580548060200260200160405190810160405280929190818152602001828054801561025157602002820191906000526020600020905b81546001600160a01b03168152600190910190602001808311610233575b505050505090505b90565b60606006805480602002602001604051908101604052809291908181526020016000905b828210156102f6576000848152602090819020830180546040805182850281018501909152818152928301828280156102e257602002820191906000526020600020905b81546001600160a01b031681526001909101906020018083116102c4575b505050505081526020019060010190610280565b50505050905090565b60608060008060008060008060008060009054906101000a90046001600160a01b031690506060816001600160a01b03166317d7de7c6040518163ffffffff1660e01b815260040160006040518083038186803b15801561035f57600080fd5b505afa158015610373573d6000803e3d6000fd5b505050506040513d6000823e601f3d908101601f1916820160405261039b9190810190610793565b90506060826001600160a01b031663150704016040518163ffffffff1660e01b815260040160006040518083038186803b1580156103d857600080fd5b505afa1580156103ec573d6000803e3d6000fd5b505050506040513d6000823e601f3d908101601f191682016040526104149190810190610793565b90506000836001600160a01b031663c4e41b226040518163ffffffff1660e01b815260040160206040518083038186803b15801561045157600080fd5b505afa158015610465573d6000803e3d6000fd5b505050506040513d601f19601f8201168201806040525061048991908101906107c8565b9050828282600060149054906101000a900460ff16600160009054906101000a90046001600160a01b0316600260009054906101000a90046001600160a01b03166003546004549b509b509b509b509b509b509b509b50505050509091929394959697565b60008054604051635a31887b60e11b81526001600160a01b03909116908290829063b46310f690610525908890889060040161098b565b602060405180830381600087803b15801561053f57600080fd5b505af1158015610553573d6000803e3d6000fd5b505050506040513d601f19601f820116820180604052506105779190810190610775565b925050505b92915050565b600080546040516370a0823160e01b81526001600160a01b039091169081906370a08231906105b590869060040161097d565b60206040518083038186803b1580156105cd57600080fd5b505afa1580156105e1573d6000803e3d6000fd5b505050506040513d601f19601f8201168201806040525061060591908101906107c8565b9392505050565b828054828255906000526020600020908101928215610661579160200282015b8281111561066157825182546001600160a01b0319166001600160a01b0390911617825560209092019160019091019061062c565b5061066d929150610671565b5090565b61025991905b8082111561066d5780546001600160a01b0319168155600101610677565b803561057c81610b25565b805161057c81610b3c565b600082601f8301126106bc57600080fd5b81516106cf6106ca82610a8e565b610a67565b915080825260208301602083018583830111156106eb57600080fd5b6106f6838284610aeb565b50505092915050565b803561057c81610b45565b805161057c81610b45565b60006020828403121561072757600080fd5b60006107338484610695565b949350505050565b6000806040838503121561074e57600080fd5b600061075a8585610695565b925050602061076b858286016106ff565b9150509250929050565b60006020828403121561078757600080fd5b600061073384846106a0565b6000602082840312156107a557600080fd5b815167ffffffffffffffff8111156107bc57600080fd5b610733848285016106ab565b6000602082840312156107da57600080fd5b6000610733848461070a565b60006107f28383610806565b505060200190565b6000610605838361086e565b61080f81610ac9565b82525050565b600061082082610abc565b61082a8185610ac0565b935061083583610ab6565b8060005b8381101561086357815161084d88826107e6565b975061085883610ab6565b925050600101610839565b509495945050505050565b600061087982610abc565b6108838185610ac0565b935061088e83610ab6565b8060005b838110156108635781516108a688826107e6565b97506108b183610ab6565b925050600101610892565b60006108c782610abc565b6108d18185610ac0565b9350836020820285016108e385610ab6565b8060005b8581101561091d578484038952815161090085826107fa565b945061090b83610ab6565b60209a909a01999250506001016108e7565b5091979650505050505050565b61080f81610ad4565b600061093e82610abc565b6109488185610ac0565b9350610958818560208601610aeb565b61096181610b1b565b9093019392505050565b61080f81610259565b61080f81610ae5565b6020810161057c8284610806565b604081016109998285610806565b610605602083018461096b565b602080825281016106058184610815565b6020808252810161060581846108bc565b6020810161057c828461092a565b61010080825281016109e8818b610933565b905081810360208301526109fc818a610933565b9050610a0b604083018961096b565b610a186060830188610974565b610a256080830187610806565b610a3260a0830186610806565b610a3f60c083018561096b565b610a4c60e083018461096b565b9998505050505050505050565b6020810161057c828461096b565b60405181810167ffffffffffffffff81118282101715610a8657600080fd5b604052919050565b600067ffffffffffffffff821115610aa557600080fd5b506020601f91909101601f19160190565b60200190565b5190565b90815260200190565b600061057c82610ad9565b151590565b6001600160a01b031690565b60ff1690565b60005b83811015610b06578181015183820152602001610aee565b83811115610b15576000848401525b50505050565b601f01601f191690565b610b2e81610ac9565b8114610b3957600080fd5b50565b610b2e81610ad4565b610b2e8161025956fea365627a7a72315820cb25222fc8876f29ff19d53f4a0ef5c054d8a1945cb3e9edd1262e6cee5e3f366c6578706572696d656e74616cf564736f6c63430005110040","bytecodeSha1":"6617da86bb6a0cb731ec34bb24a75412bf827a90","type":"contract","abi":[{"inputs":[{"internalType":"address","name":"erc20_","type":"address"}],"payable":false,"stateMutability":"nonpayable","type":"constructor","name":"constructor"},{"constant":true,"inputs":[],"name":"getAddBalances","outputs":[{"internalType":"address[]","name":"","type":"address[]"}],"payable":false,"stateMutability":"view","type":"function"},{"constant":true,"inputs":[],"name":"getAllowance","outputs":[{"internalType":"address[][]","name":"","type":"address[][]"}],"payable":false,"stateMutability":"view","type":"function"},{"constant":true,"inputs":[{"internalType":"address","name":"add","type":"address"}],"name":"getBalance","outputs":[{"internalType":"uint256","name":"","type":"uint256"}],"payable":false,"stateMutability":"view","type":"function"},{"constant":true,"inputs":[],"name":"getNameSymbolSupply","outputs":[{"internalType":"string","name":"","type":"string"},{"internalType":"string","name":"","type":"string"},{"internalType":"uint256","name":"","type":"uint256"},{"internalType":"uint8","name":"","type":"uint8"},{"internalType":"address","name":"","type":"address"},{"internalType":"address","name":"","type":"address"},{"internalType":"uint256","name":"","type":"uint256"},{"internalType":"uint256","name":"","type":"uint256"}],"payable":false,"stateMutability":"view","type":"function"},{"constant":false,"inputs":[{"internalType":"address","name":"delegate","type":"address"},{"internalType":"uint256","name":"numOfTokens","type":"uint256"}],"name":"setAllowance","outputs":[{"internalType":"bool","name":"","type":"bool"}],"payable":false,"stateMutability":"nonpayable","type":"function"},{"constant":false,"inputs":[{"internalType":"address","name":"add","type":"address"},{"internalType":"uint256","name":"amount","type":"uint256"}],"name":"setBalance","outputs":[{"internalType":"bool","name":"","type":"bool"}],"payable":false,"stateMutability":"nonpayable","type":"function"}],"compiler":{"version":"0.5.17+commit.d19bba13","evm_version":"istanbul","optimizer":{"enabled":true,"runs":200}},"contractName":"ProxyErc20","language":"Solidity","natspec":{"methods":{}},"opcodes":"PUSH1 0x80 PUSH1 0x40 MSTORE CALLVALUE DUP1 ISZERO PUSH2 0x10 JUMPI PUSH1 0x0 DUP1 REVERT JUMPDEST POP PUSH1 0x4 CALLDATASIZE LT PUSH2 0x62 JUMPI PUSH1 0x0 CALLDATALOAD PUSH1 0xE0 SHR DUP1 PUSH4 0x310EC4A7 EQ PUSH2 0x67 JUMPI DUP1 PUSH4 0x45FAAF28 EQ PUSH2 0x90 JUMPI DUP1 PUSH4 0x973E9B8B EQ PUSH2 0xA5 JUMPI DUP1 PUSH4 0xA2AB04B7 EQ PUSH2 0xBA JUMPI DUP1 PUSH4 0xE30443BC EQ PUSH2 0xD6 JUMPI DUP1 PUSH4 0xF8B2CB4F EQ PUSH2 0xE9 JUMPI JUMPDEST PUSH1 0x0 DUP1 REVERT JUMPDEST PUSH2 0x7A PUSH2 0x75 CALLDATASIZE PUSH1 0x4 PUSH2 0x73B JUMP JUMPDEST PUSH2 0x109 JUMP JUMPDEST PUSH1 0x40 MLOAD PUSH2 0x87 SWAP2 SWAP1 PUSH2 0x9C8 JUMP JUMPDEST PUSH1 0x40 MLOAD DUP1 SWAP2 SUB SWAP1 RETURN JUMPDEST PUSH2 0x98 PUSH2 0x1F9 JUMP JUMPDEST PUSH1 0x40 MLOAD PUSH2 0x87 SWAP2 SWAP1 PUSH2 0x9A6 JUMP JUMPDEST PUSH2 0xAD PUSH2 0x25C JUMP JUMPDEST PUSH1 0x40 MLOAD PUSH2 0x87 SWAP2 SWAP1 PUSH2 0x9B7 JUMP JUMPDEST PUSH2 0xC2 PUSH2 0x2FF JUMP JUMPDEST PUSH1 0x40 MLOAD PUSH2 0x87 SWAP9 SWAP8 SWAP7 SWAP6 SWAP5 SWAP4 SWAP3 SWAP2 SWAP1 PUSH2 0x9D6 JUMP JUMPDEST PUSH2 0x7A PUSH2 0xE4 CALLDATASIZE PUSH1 0x4 PUSH2 0x73B JUMP JUMPDEST PUSH2 0x4EE JUMP JUMPDEST PUSH2 0xFC PUSH2 0xF7 CALLDATASIZE PUSH1 0x4 PUSH2 0x715 JUMP JUMPDEST PUSH2 0x582 JUMP JUMPDEST PUSH1 0x40 MLOAD PUSH2 0x87 SWAP2 SWAP1 PUSH2 0xA59 JUMP JUMPDEST PUSH1 0x40 DUP1 MLOAD DUP1 DUP3 ADD SWAP1 SWAP2 MSTORE CALLER DUP2 MSTORE PUSH1 0x1 PUSH1 0x1 PUSH1 0xA0 SHL SUB DUP4 AND PUSH1 0x20 DUP3 ADD MSTORE PUSH1 0x6 DUP1 SLOAD PUSH1 0x1 DUP2 ADD DUP1 DUP4 SSTORE PUSH1 0x0 SWAP3 DUP4 MSTORE SWAP2 SWAP3 PUSH2 0x165 SWAP2 PUSH32 0xF652222313E28459528D920B65115C16C04F3EFC82AAEDC97BE59F3F377C0D3F ADD SWAP1 PUSH1 0x2 PUSH2 0x60C JUMP JUMPDEST POP POP PUSH1 0x0 DUP1 SLOAD PUSH1 0x40 MLOAD PUSH4 0x95EA7B3 PUSH1 0xE0 SHL DUP2 MSTORE PUSH1 0x1 PUSH1 0x1 PUSH1 0xA0 SHL SUB SWAP1 SWAP2 AND SWAP2 SWAP1 DUP3 SWAP1 PUSH4 0x95EA7B3 SWAP1 PUSH2 0x19D SWAP1 DUP9 SWAP1 DUP9 SWAP1 PUSH1 0x4 ADD PUSH2 0x98B JUMP JUMPDEST PUSH1 0x20 PUSH1 0x40 MLOAD DUP1 DUP4 SUB DUP2 PUSH1 0x0 DUP8 DUP1 EXTCODESIZE ISZERO DUP1 ISZERO PUSH2 0x1B7 JUMPI PUSH1 0x0 DUP1 REVERT JUMPDEST POP GAS CALL ISZERO DUP1 ISZERO PUSH2 0x1CB JUMPI RETURNDATASIZE PUSH1 0x0 DUP1 RETURNDATACOPY RETURNDATASIZE PUSH1 0x0 REVERT JUMPDEST POP POP POP POP PUSH1 0x40 MLOAD RETURNDATASIZE PUSH1 0x1F NOT PUSH1 0x1F DUP3 ADD AND DUP3 ADD DUP1 PUSH1 0x40 MSTORE POP PUSH2 0x1EF SWAP2 SWAP1 DUP2 ADD SWAP1 PUSH2 0x775 JUMP JUMPDEST SWAP1 POP POP POP SWAP3 SWAP2 POP POP JUMP JUMPDEST PUSH1 0x60 PUSH1 0x5 DUP1 SLOAD DUP1 PUSH1 0x20 MUL PUSH1 0x20 ADD PUSH1 0x40 MLOAD SWAP1 DUP2 ADD PUSH1 0x40 MSTORE DUP1 SWAP3 SWAP2 SWAP1 DUP2 DUP2 MSTORE PUSH1 0x20 ADD DUP3 DUP1 SLOAD DUP1 ISZERO PUSH2 0x251 JUMPI PUSH1 0x20 MUL DUP3 ADD SWAP2 SWAP1 PUSH1 0x0 MSTORE PUSH1 0x20 PUSH1 0x0 KECCAK256 SWAP1 JUMPDEST DUP2 SLOAD PUSH1 0x1 PUSH1 0x1 PUSH1 0xA0 SHL SUB AND DUP2 MSTORE PUSH1 0x1 SWAP1 SWAP2 ADD SWAP1 PUSH1 0x20 ADD DUP1 DUP4 GT PUSH2 0x233 JUMPI JUMPDEST POP POP POP POP POP SWAP1 POP JUMPDEST SWAP1 JUMP JUMPDEST PUSH1 0x60 PUSH1 0x6 DUP1 SLOAD DUP1 PUSH1 0x20 MUL PUSH1 0x20 ADD PUSH1 0x40 MLOAD SWAP1 DUP2 ADD PUSH1 0x40 MSTORE DUP1 SWAP3 SWAP2 SWAP1 DUP2 DUP2 MSTORE PUSH1 0x20 ADD PUSH1 0x0 SWAP1 JUMPDEST DUP3 DUP3 LT ISZERO PUSH2 0x2F6 JUMPI PUSH1 0x0 DUP5 DUP2 MSTORE PUSH1 0x20 SWAP1 DUP2 SWAP1 KECCAK256 DUP4 ADD DUP1 SLOAD PUSH1 0x40 DUP1 MLOAD DUP3 DUP6 MUL DUP2 ADD DUP6 ADD SWAP1 SWAP2 MSTORE DUP2 DUP2 MSTORE SWAP3 DUP4 ADD DUP3 DUP3 DUP1 ISZERO PUSH2 0x2E2 JUMPI PUSH1 0x20 MUL DUP3 ADD SWAP2 SWAP1 PUSH1 0x0 MSTORE PUSH1 0x20 PUSH1 0x0 KECCAK256 SWAP1 JUMPDEST DUP2 SLOAD PUSH1 0x1 PUSH1 0x1 PUSH1 0xA0 SHL SUB AND DUP2 MSTORE PUSH1 0x1 SWAP1 SWAP2 ADD SWAP1 PUSH1 0x20 ADD DUP1 DUP4 GT PUSH2 0x2C4 JUMPI JUMPDEST POP POP POP POP POP DUP2 MSTORE PUSH1 0x20 ADD SWAP1 PUSH1 0x1 ADD SWAP1 PUSH2 0x280 JUMP JUMPDEST POP POP POP POP SWAP1 POP SWAP1 JUMP JUMPDEST PUSH1 0x60 DUP1 PUSH1 0x0 DUP1 PUSH1 0x0 DUP1 PUSH1 0x0 DUP1 PUSH1 0x0 DUP1 PUSH1 0x0 SWAP1 SLOAD SWAP1 PUSH2 0x100 EXP SWAP1 DIV PUSH1 0x1 PUSH1 0x1 PUSH1 0xA0 SHL SUB AND SWAP1 POP PUSH1 0x60 DUP2 PUSH1 0x1 PUSH1 0x1 PUSH1 0xA0 SHL SUB AND PUSH4 0x17D7DE7C PUSH1 0x40 MLOAD DUP2 PUSH4 0xFFFFFFFF AND PUSH1 0xE0 SHL DUP2 MSTORE PUSH1 0x4 ADD PUSH1 0x0 PUSH1 0x40 MLOAD DUP1 DUP4 SUB DUP2 DUP7 DUP1 EXTCODESIZE ISZERO DUP1 ISZERO PUSH2 0x35F JUMPI PUSH1 0x0 DUP1 REVERT JUMPDEST POP GAS STATICCALL ISZERO DUP1 ISZERO PUSH2 0x373 JUMPI RETURNDATASIZE PUSH1 0x0 DUP1 RETURNDATACOPY RETURNDATASIZE PUSH1 0x0 REVERT JUMPDEST POP POP POP POP PUSH1 0x40 MLOAD RETURNDATASIZE PUSH1 0x0 DUP3 RETURNDATACOPY PUSH1 0x1F RETURNDATASIZE SWAP1 DUP2 ADD PUSH1 0x1F NOT AND DUP3 ADD PUSH1 0x40 MSTORE PUSH2 0x39B SWAP2 SWAP1 DUP2 ADD SWAP1 PUSH2 0x793 JUMP JUMPDEST SWAP1 POP PUSH1 0x60 DUP3 PUSH1 0x1 PUSH1 0x1 PUSH1 0xA0 SHL SUB AND PUSH4 0x15070401 PUSH1 0x40 MLOAD DUP2 PUSH4 0xFFFFFFFF AND PUSH1 0xE0 SHL DUP2 MSTORE PUSH1 0x4 ADD PUSH1 0x0 PUSH1 0x40 MLOAD DUP1 DUP4 SUB DUP2 DUP7 DUP1 EXTCODESIZE ISZERO DUP1 ISZERO PUSH2 0x3D8 JUMPI PUSH1 0x0 DUP1 REVERT JUMPDEST POP GAS STATICCALL ISZERO DUP1 ISZERO PUSH2 0x3EC JUMPI RETURNDATASIZE PUSH1 0x0 DUP1 RETURNDATACOPY RETURNDATASIZE PUSH1 0x0 REVERT JUMPDEST POP POP POP POP PUSH1 0x40 MLOAD RETURNDATASIZE PUSH1 0x0 DUP3 RETURNDATACOPY PUSH1 0x1F RETURNDATASIZE SWAP1 DUP2 ADD PUSH1 0x1F NOT AND DUP3 ADD PUSH1 0x40 MSTORE PUSH2 0x414 SWAP2 SWAP1 DUP2 ADD SWAP1 PUSH2 0x793 JUMP JUMPDEST SWAP1 POP PUSH1 0x0 DUP4 PUSH1 0x1 PUSH1 0x1 PUSH1 0xA0 SHL SUB AND PUSH4 0xC4E41B22 PUSH1 0x40 MLOAD DUP2 PUSH4 0xFFFFFFFF AND PUSH1 0xE0 SHL DUP2 MSTORE PUSH1 0x4 ADD PUSH1 0x20 PUSH1 0x40 MLOAD DUP1 DUP4 SUB DUP2 DUP7 DUP1 EXTCODESIZE ISZERO DUP1 ISZERO PUSH2 0x451 JUMPI PUSH1 0x0 DUP1 REVERT JUMPDEST POP GAS STATICCALL ISZERO DUP1 ISZERO PUSH2 0x465 JUMPI RETURNDATASIZE PUSH1 0x0 DUP1 RETURNDATACOPY RETURNDATASIZE PUSH1 0x0 REVERT JUMPDEST POP POP POP POP PUSH1 0x40 MLOAD RETURNDATASIZE PUSH1 0x1F NOT PUSH1 0x1F DUP3 ADD AND DUP3 ADD DUP1 PUSH1 0x40 MSTORE POP PUSH2 0x489 SWAP2 SWAP1 DUP2 ADD SWAP1 PUSH2 0x7C8 JUMP JUMPDEST SWAP1 POP DUP3 DUP3 DUP3 PUSH1 0x0 PUSH1 0x14 SWAP1 SLOAD SWAP1 PUSH2 0x100 EXP SWAP1 DIV PUSH1 0xFF AND PUSH1 0x1 PUSH1 0x0 SWAP1 SLOAD SWAP1 PUSH2 0x100 EXP SWAP1 DIV PUSH1 0x1 PUSH1 0x1 PUSH1 0xA0 SHL SUB AND PUSH1 0x2 PUSH1 0x0 SWAP1 SLOAD SWAP1 PUSH2 0x100 EXP SWAP1 DIV PUSH1 0x1 PUSH1 0x1 PUSH1 0xA0 SHL SUB AND PUSH1 0x3 SLOAD PUSH1 0x4 SLOAD SWAP12 POP SWAP12 POP SWAP12 POP SWAP12 POP SWAP12 POP SWAP12 POP SWAP12 POP SWAP12 POP POP POP POP POP SWAP1 SWAP2 SWAP3 SWAP4 SWAP5 SWAP6 SWAP7 SWAP8 JUMP JUMPDEST PUSH1 0x0 DUP1 SLOAD PUSH1 0x40 MLOAD PUSH4 0x5A31887B PUSH1 0xE1 SHL DUP2 MSTORE PUSH1 0x1 PUSH1 0x1 PUSH1 0xA0 SHL SUB SWAP1 SWAP2 AND SWAP1 DUP3 SWAP1 DUP3 SWAP1 PUSH4 0xB46310F6 SWAP1 PUSH2 0x525 SWAP1 DUP9 SWAP1 DUP9 SWAP1 PUSH1 0x4 ADD PUSH2 0x98B JUMP JUMPDEST PUSH1 0x20 PUSH1 0x40 MLOAD DUP1 DUP4 SUB DUP2 PUSH1 0x0 DUP8 DUP1 EXTCODESIZE ISZERO DUP1 ISZERO PUSH2 0x53F JUMPI PUSH1 0x0 DUP1 REVERT JUMPDEST POP GAS CALL ISZERO DUP1 ISZERO PUSH2 0x553 JUMPI RETURNDATASIZE PUSH1 0x0 DUP1 RETURNDATACOPY RETURNDATASIZE PUSH1 0x0 REVERT JUMPDEST POP POP POP POP PUSH1 0x40 MLOAD RETURNDATASIZE PUSH1 0x1F NOT PUSH1 0x1F DUP3 ADD AND DUP3 ADD DUP1 PUSH1 0x40 MSTORE POP PUSH2 0x577 SWAP2 SWAP1 DUP2 ADD SWAP1 PUSH2 0x775 JUMP JUMPDEST SWAP3 POP POP POP JUMPDEST SWAP3 SWAP2 POP POP JUMP JUMPDEST PUSH1 0x0 DUP1 SLOAD PUSH1 0x40 MLOAD PUSH4 0x70A08231 PUSH1 0xE0 SHL DUP2 MSTORE PUSH1 0x1 PUSH1 0x1 PUSH1 0xA0 SHL SUB SWAP1 SWAP2 AND SWAP1 DUP2 SWAP1 PUSH4 0x70A08231 SWAP1 PUSH2 0x5B5 SWAP1 DUP7 SWAP1 PUSH1 0x4 ADD PUSH2 0x97D JUMP JUMPDEST PUSH1 0x20 PUSH1 0x40 MLOAD DUP1 DUP4 SUB DUP2 DUP7 DUP1 EXTCODESIZE ISZERO DUP1 ISZERO PUSH2 0x5CD JUMPI PUSH1 0x0 DUP1 REVERT JUMPDEST POP GAS STATICCALL ISZERO DUP1 ISZERO PUSH2 0x5E1 JUMPI RETURNDATASIZE PUSH1 0x0 DUP1 RETURNDATACOPY RETURNDATASIZE PUSH1 0x0 REVERT JUMPDEST POP POP POP POP PUSH1 0x40 MLOAD RETURNDATASIZE PUSH1 0x1F NOT PUSH1 0x1F DUP3 ADD AND DUP3 ADD DUP1 PUSH1 0x40 MSTORE POP PUSH2 0x605 SWAP2 SWAP1 DUP2 ADD SWAP1 PUSH2 0x7C8 JUMP JUMPDEST SWAP4 SWAP3 POP POP POP JUMP JUMPDEST DUP3 DUP1 SLOAD DUP3 DUP3 SSTORE SWAP1 PUSH1 0x0 MSTORE PUSH1 0x20 PUSH1 0x0 KECCAK256 SWAP1 DUP2 ADD SWAP3 DUP3 ISZERO PUSH2 0x661 JUMPI SWAP2 PUSH1 0x20 MUL DUP3 ADD JUMPDEST DUP3 DUP2 GT ISZERO PUSH2 0x661 JUMPI DUP3 MLOAD DUP3 SLOAD PUSH1 0x1 PUSH1 0x1 PUSH1 0xA0 SHL SUB NOT AND PUSH1 0x1 PUSH1 0x1 PUSH1 0xA0 SHL SUB SWAP1 SWAP2 AND OR DUP3 SSTORE PUSH1 0x20 SWAP1 SWAP3 ADD SWAP2 PUSH1 0x1 SWAP1 SWAP2 ADD SWAP1 PUSH2 0x62C JUMP JUMPDEST POP PUSH2 0x66D SWAP3 SWAP2 POP PUSH2 0x671 JUMP JUMPDEST POP SWAP1 JUMP JUMPDEST PUSH2 0x259 SWAP2 SWAP1 JUMPDEST DUP1 DUP3 GT ISZERO PUSH2 0x66D JUMPI DUP1 SLOAD PUSH1 0x1 PUSH1 0x1 PUSH1 0xA0 SHL SUB NOT AND DUP2 SSTORE PUSH1 0x1 ADD PUSH2 0x677 JUMP JUMPDEST DUP1 CALLDATALOAD PUSH2 0x57C DUP2 PUSH2 0xB25 JUMP JUMPDEST DUP1 MLOAD PUSH2 0x57C DUP2 PUSH2 0xB3C JUMP JUMPDEST PUSH1 0x0 DUP3 PUSH1 0x1F DUP4 ADD SLT PUSH2 0x6BC JUMPI PUSH1 0x0 DUP1 REVERT JUMPDEST DUP2 MLOAD PUSH2 0x6CF PUSH2 0x6CA DUP3 PUSH2 0xA8E JUMP JUMPDEST PUSH2 0xA67 JUMP JUMPDEST SWAP2 POP DUP1 DUP3 MSTORE PUSH1 0x20 DUP4 ADD PUSH1 0x20 DUP4 ADD DUP6 DUP4 DUP4 ADD GT ISZERO PUSH2 0x6EB JUMPI PUSH1 0x0 DUP1 REVERT JUMPDEST PUSH2 0x6F6 DUP4 DUP3 DUP5 PUSH2 0xAEB JUMP JUMPDEST POP POP POP SWAP3 SWAP2 POP POP JUMP JUMPDEST DUP1 CALLDATALOAD PUSH2 0x57C DUP2 PUSH2 0xB45 JUMP JUMPDEST DUP1 MLOAD PUSH2 0x57C DUP2 PUSH2 0xB45 JUMP JUMPDEST PUSH1 0x0 PUSH1 0x20 DUP3 DUP5 SUB SLT ISZERO PUSH2 0x727 JUMPI PUSH1 0x0 DUP1 REVERT JUMPDEST PUSH1 0x0 PUSH2 0x733 DUP5 DUP5 PUSH2 0x695 JUMP JUMPDEST SWAP5 SWAP4 POP POP POP POP JUMP JUMPDEST PUSH1 0x0 DUP1 PUSH1 0x40 DUP4 DUP6 SUB SLT ISZERO PUSH2 0x74E JUMPI PUSH1 0x0 DUP1 REVERT JUMPDEST PUSH1 0x0 PUSH2 0x75A DUP6 DUP6 PUSH2 0x695 JUMP JUMPDEST SWAP3 POP POP PUSH1 0x20 PUSH2 0x76B DUP6 DUP3 DUP7 ADD PUSH2 0x6FF JUMP JUMPDEST SWAP2 POP POP SWAP3 POP SWAP3 SWAP1 POP JUMP JUMPDEST PUSH1 0x0 PUSH1 0x20 DUP3 DUP5 SUB SLT ISZERO PUSH2 0x787 JUMPI PUSH1 0x0 DUP1 REVERT JUMPDEST PUSH1 0x0 PUSH2 0x733 DUP5 DUP5 PUSH2 0x6A0 JUMP JUMPDEST PUSH1 0x0 PUSH1 0x20 DUP3 DUP5 SUB SLT ISZERO PUSH2 0x7A5 JUMPI PUSH1 0x0 DUP1 REVERT JUMPDEST DUP2 MLOAD PUSH8 0xFFFFFFFFFFFFFFFF DUP2 GT ISZERO PUSH2 0x7BC JUMPI PUSH1 0x0 DUP1 REVERT JUMPDEST PUSH2 0x733 DUP5 DUP3 DUP6 ADD PUSH2 0x6AB JUMP JUMPDEST PUSH1 0x0 PUSH1 0x20 DUP3 DUP5 SUB SLT ISZERO PUSH2 0x7DA JUMPI PUSH1 0x0 DUP1 REVERT JUMPDEST PUSH1 0x0 PUSH2 0x733 DUP5 DUP5 PUSH2 0x70A JUMP JUMPDEST PUSH1 0x0 PUSH2 0x7F2 DUP4 DUP4 PUSH2 0x806 JUMP JUMPDEST POP POP PUSH1 0x20 ADD SWAP1 JUMP JUMPDEST PUSH1 0x0 PUSH2 0x605 DUP4 DUP4 PUSH2 0x86E JUMP JUMPDEST PUSH2 0x80F DUP2 PUSH2 0xAC9 JUMP JUMPDEST DUP3 MSTORE POP POP JUMP JUMPDEST PUSH1 0x0 PUSH2 0x820 DUP3 PUSH2 0xABC JUMP JUMPDEST PUSH2 0x82A DUP2 DUP6 PUSH2 0xAC0 JUMP JUMPDEST SWAP4 POP PUSH2 0x835 DUP4 PUSH2 0xAB6 JUMP JUMPDEST DUP1 PUSH1 0x0 JUMPDEST DUP4 DUP2 LT ISZERO PUSH2 0x863 JUMPI DUP2 MLOAD PUSH2 0x84D DUP9 DUP3 PUSH2 0x7E6 JUMP JUMPDEST SWAP8 POP PUSH2 0x858 DUP4 PUSH2 0xAB6 JUMP JUMPDEST SWAP3 POP POP PUSH1 0x1 ADD PUSH2 0x839 JUMP JUMPDEST POP SWAP5 SWAP6 SWAP5 POP POP POP POP POP JUMP JUMPDEST PUSH1 0x0 PUSH2 0x879 DUP3 PUSH2 0xABC JUMP JUMPDEST PUSH2 0x883 DUP2 DUP6 PUSH2 0xAC0 JUMP JUMPDEST SWAP4 POP PUSH2 0x88E DUP4 PUSH2 0xAB6 JUMP JUMPDEST DUP1 PUSH1 0x0 JUMPDEST DUP4 DUP2 LT ISZERO PUSH2 0x863 JUMPI DUP2 MLOAD PUSH2 0x8A6 DUP9 DUP3 PUSH2 0x7E6 JUMP JUMPDEST SWAP8 POP PUSH2 0x8B1 DUP4 PUSH2 0xAB6 JUMP JUMPDEST SWAP3 POP POP PUSH1 0x1 ADD PUSH2 0x892 JUMP JUMPDEST PUSH1 0x0 PUSH2 0x8C7 DUP3 PUSH2 0xABC JUMP JUMPDEST PUSH2 0x8D1 DUP2 DUP6 PUSH2 0xAC0 JUMP JUMPDEST SWAP4 POP DUP4 PUSH1 0x20 DUP3 MUL DUP6 ADD PUSH2 0x8E3 DUP6 PUSH2 0xAB6 JUMP JUMPDEST DUP1 PUSH1 0x0 JUMPDEST DUP6 DUP2 LT ISZERO PUSH2 0x91D JUMPI DUP5 DUP5 SUB DUP10 MSTORE DUP2 MLOAD PUSH2 0x900 DUP6 DUP3 PUSH2 0x7FA JUMP JUMPDEST SWAP5 POP PUSH2 0x90B DUP4 PUSH2 0xAB6 JUMP JUMPDEST PUSH1 0x20 SWAP11 SWAP1 SWAP11 ADD SWAP10 SWAP3 POP POP PUSH1 0x1 ADD PUSH2 0x8E7 JUMP JUMPDEST POP SWAP2 SWAP8 SWAP7 POP POP POP POP POP POP POP JUMP JUMPDEST PUSH2 0x80F DUP2 PUSH2 0xAD4 JUMP JUMPDEST PUSH1 0x0 PUSH2 0x93E DUP3 PUSH2 0xABC JUMP JUMPDEST PUSH2 0x948 DUP2 DUP6 PUSH2 0xAC0 JUMP JUMPDEST SWAP4 POP PUSH2 0x958 DUP2 DUP6 PUSH1 0x20 DUP7 ADD PUSH2 0xAEB JUMP JUMPDEST PUSH2 0x961 DUP2 PUSH2 0xB1B JUMP JUMPDEST SWAP1 SWAP4 ADD SWAP4 SWAP3 POP POP POP JUMP JUMPDEST PUSH2 0x80F DUP2 PUSH2 0x259 JUMP JUMPDEST PUSH2 0x80F DUP2 PUSH2 0xAE5 JUMP JUMPDEST PUSH1 0x20 DUP2 ADD PUSH2 0x57C DUP3 DUP5 PUSH2 0x806 JUMP JUMPDEST PUSH1 0x40 DUP2 ADD PUSH2 0x999 DUP3 DUP6 PUSH2 0x806 JUMP JUMPDEST PUSH2 0x605 PUSH1 0x20 DUP4 ADD DUP5 PUSH2 0x96B JUMP JUMPDEST PUSH1 0x20 DUP1 DUP3 MSTORE DUP2 ADD PUSH2 0x605 DUP2 DUP5 PUSH2 0x815 JUMP JUMPDEST PUSH1 0x20 DUP1 DUP3 MSTORE DUP2 ADD PUSH2 0x605 DUP2 DUP5 PUSH2 0x8BC JUMP JUMPDEST PUSH1 0x20 DUP2 ADD PUSH2 0x57C DUP3 DUP5 PUSH2 0x92A JUMP JUMPDEST PUSH2 0x100 DUP1 DUP3 MSTORE DUP2 ADD PUSH2 0x9E8 DUP2 DUP12 PUSH2 0x933 JUMP JUMPDEST SWAP1 POP DUP2 DUP2 SUB PUSH1 0x20 DUP4 ADD MSTORE PUSH2 0x9FC DUP2 DUP11 PUSH2 0x933 JUMP JUMPDEST SWAP1 POP PUSH2 0xA0B PUSH1 0x40 DUP4 ADD DUP10 PUSH2 0x96B JUMP JUMPDEST PUSH2 0xA18 PUSH1 0x60 DUP4 ADD DUP9 PUSH2 0x974 JUMP JUMPDEST PUSH2 0xA25 PUSH1 0x80 DUP4 ADD DUP8 PUSH2 0x806 JUMP JUMPDEST PUSH2 0xA32 PUSH1 0xA0 DUP4 ADD DUP7 PUSH2 0x806 JUMP JUMPDEST PUSH2 0xA3F PUSH1 0xC0 DUP4 ADD DUP6 PUSH2 0x96B JUMP JUMPDEST PUSH2 0xA4C PUSH1 0xE0 DUP4 ADD DUP5 PUSH2 0x96B JUMP JUMPDEST SWAP10 SWAP9 POP POP POP POP POP POP POP POP POP JUMP JUMPDEST PUSH1 0x20 DUP2 ADD PUSH2 0x57C DUP3 DUP5 PUSH2 0x96B JUMP JUMPDEST PUSH1 0x40 MLOAD DUP2 DUP2 ADD PUSH8 0xFFFFFFFFFFFFFFFF DUP2 GT DUP3 DUP3 LT OR ISZERO PUSH2 0xA86 JUMPI PUSH1 0x0 DUP1 REVERT JUMPDEST PUSH1 0x40 MSTORE SWAP2 SWAP1 POP JUMP JUMPDEST PUSH1 0x0 PUSH8 0xFFFFFFFFFFFFFFFF DUP3 GT ISZERO PUSH2 0xAA5 JUMPI PUSH1 0x0 DUP1 REVERT JUMPDEST POP PUSH1 0x20 PUSH1 0x1F SWAP2 SWAP1 SWAP2 ADD PUSH1 0x1F NOT AND ADD SWAP1 JUMP JUMPDEST PUSH1 0x20 ADD SWAP1 JUMP JUMPDEST MLOAD SWAP1 JUMP JUMPDEST SWAP1 DUP2 MSTORE PUSH1 0x20 ADD SWAP1 JUMP JUMPDEST PUSH1 0x0 PUSH2 0x57C DUP3 PUSH2 0xAD9 JUMP JUMPDEST ISZERO ISZERO SWAP1 JUMP JUMPDEST PUSH1 0x1 PUSH1 0x1 PUSH1 0xA0 SHL SUB AND SWAP1 JUMP JUMPDEST PUSH1 0xFF AND SWAP1 JUMP JUMPDEST PUSH1 0x0 JUMPDEST DUP4 DUP2 LT ISZERO PUSH2 0xB06 JUMPI DUP2 DUP2 ADD MLOAD DUP4 DUP3 ADD MSTORE PUSH1 0x20 ADD PUSH2 0xAEE JUMP JUMPDEST DUP4 DUP2 GT ISZERO PUSH2 0xB15 JUMPI PUSH1 0x0 DUP5 DUP5 ADD MSTORE JUMPDEST POP POP POP POP JUMP JUMPDEST PUSH1 0x1F ADD PUSH1 0x1F NOT AND SWAP1 JUMP JUMPDEST PUSH2 0xB2E DUP2 PUSH2 0xAC9 JUMP JUMPDEST DUP2 EQ PUSH2 0xB39 JUMPI PUSH1 0x0 DUP1 REVERT JUMPDEST POP JUMP JUMPDEST PUSH2 0xB2E DUP2 PUSH2 0xAD4 JUMP JUMPDEST PUSH2 0xB2E DUP2 PUSH2 0x259 JUMP INVALID LOG3 PUSH6 0x627A7A723158 KECCAK256 0xCB 0x25 0x22 0x2F 0xC8 DUP8 PUSH16 0x29FF19D53F4A0EF5C054D8A1945CB3E9 0xED 0xD1 0x26 0x2E PUSH13 0xEE5E3F366C6578706572696D65 PUSH15 0x74616CF564736F6C63430005110040 ","sha1":"4bc372edd68d390efc142d208c2e2bf3f2885701","source":"pragma solidity ^0.5.8;\npragma experimental ABIEncoderV2;\n\nimport \"./tokenErc20.sol\";\n\ncontract ProxyErc20 {\n\n    address erc20;\n    uint8 version;\n    address created_by;\n    address last_upd_by;\n    uint created_at;\n    uint last_upd_at;\n    address [] arrayAdd;\n    address [][] alowance;\n    \n    constructor(address erc20_) public {\n        erc20 = erc20_;\n        version =1;\n        created_by = msg.sender;\n    \tlast_upd_by = msg.sender;\n    \tcreated_at = now;\n    \tlast_upd_at = now;\n    \tTokenErc20 token = TokenErc20(erc20);\n    \tarrayAdd.push(msg.sender);\n    }\n    \n    function getNameSymbolSupply() public view returns (string memory, string memory, uint256, uint8, address, address, uint, uint){\n    \tTokenErc20 token = TokenErc20(erc20);\n    \tstring memory name = token.getName();\n    \tstring memory symbol = token.getSymbol();\n    \tuint256 supply = token.getTotalSupply();\n    \t\n    \treturn (name, symbol, supply, version, created_by, last_upd_by, created_at, last_upd_at);\n    }\n    \n    function getAddBalances() public view returns(address [] memory) {\n    \treturn arrayAdd;\n    }\n    \n    function getBalance(address add) public view returns(uint256) {\n    \tTokenErc20 token = TokenErc20(erc20);\n    \treturn token.balanceOf(add);\n    }\n    \n    function setBalance(address add, uint256 amount) public returns(bool) {\n    \tTokenErc20 token = TokenErc20(erc20);\n    \tbool result = token.setBalanceOf(add, amount);\n    \treturn result;\n    }\n    \n    function setAllowance(address delegate, uint256 numOfTokens) public returns(bool) {\n    \talowance.push([msg.sender, delegate]);\n    \tTokenErc20 token = TokenErc20(erc20);\n    \tbool result = token.approve(delegate, numOfTokens);\n    }\n    \n    function getAllowance() public view returns(address [][] memory) {\n    \treturn alowance;\n    }\n}\n","sourcePath":"contracts/proxyErc20.sol","deployment":{"address":"0xffBf9e181088f3F1704f40Bb633d770AdE047220","chainid":"5","blockHeight":7284948}}