{"bytecode":"6080604052600a805460ff19908116909155600c805490911690553480156200002757600080fd5b5060405162001bbb38038062001bbb8339810160408190526200004a91620001c4565b600080546001600160a01b0383166001600160a01b031991821681179092556001805460ff60a01b1916600160a01b1790556002805482163390811790915560038054909216811790915542600481815560059190915560408051808201825292835280516362720d9160e11b81529051602080850193869363c4e41b2293818301939290918290030181865afa158015620000ea573d6000803e3d6000fd5b505050506040513d601f19601f82011682018060405250810190620001109190620001f6565b9052600080526009602090815281517fec8156718a8372b1db44bb411437d0870f3e3790d4a08526d024ce1b0b668f6b80546001600160a01b0319166001600160a01b0390921691909117905501517fec8156718a8372b1db44bb411437d0870f3e3790d4a08526d024ce1b0b668f6c55600a54620001949060ff16600162000210565b600a805460ff9290921660ff199092169190911790555050600180546001600160a01b0319163317905562000244565b600060208284031215620001d757600080fd5b81516001600160a01b0381168114620001ef57600080fd5b9392505050565b6000602082840312156200020957600080fd5b5051919050565b600060ff821660ff84168060ff038211156200023c57634e487b7160e01b600052601160045260246000fd5b019392505050565b61196780620002546000396000f3fe6080604052600436106101435760003560e01c8063971861be116100b6578063d48761e41161006f578063d48761e41461054f578063da19eae01461056f578063e1ef9619146105ce578063eefb95d0146105fb578063f811f49e1461061b578063f8b2cb4f1461063357600080fd5b8063971861be1461043a5780639b63caa21461045a578063a2ab04b714610488578063bf6baa68146104b1578063c5512d7414610509578063cef2aa9a1461052f57600080fd5b80635b452989116101085780635b452989146103925780635e2521da146103b25780636d26ec18146103d257806371f16668146103da578063769d9bc6146103fa5780638996cad31461041a57600080fd5b806252b9a81461015757806302c310dc1461018c57806322aa3e26146102105780634a7c77c01461029a578063581582e71461031857600080fd5b366101525761015061066a565b005b600080fd5b34801561016357600080fd5b506101776101723660046114b3565b610741565b60405190151581526020015b60405180910390f35b34801561019857600080fd5b50336000908152600d6020526040902054600154600254600354600454600554600160a01b90940460ff16936001600160a01b0393841693909216916040805196875260ff90951660208701526001600160a01b039384169486019490945291166060840152608083015260a082015260c001610183565b34801561021c57600080fd5b5061026c61022b3660046114e8565b60ff9081166000908152600b60205260409020805460018083015460029093015490546001600160a01b039283169592909316939092600160a01b90041690565b604080516001600160a01b0395861681529490931660208501529183015260ff166060820152608001610183565b3480156102a657600080fd5b50600854600654600754600154600254600354600454600554604080516001600160a01b03998a1681526020810198909852870195909552600160a01b90930460ff16606086015290851660808501529390931660a083015260c082019290925260e081019190915261010001610183565b34801561032457600080fd5b5061036a6103333660046114e8565b60ff9081166000908152600960205260409020805460019182015491546001600160a01b03909116939192600160a01b9091041690565b604080516001600160a01b039094168452602084019290925260ff1690820152606001610183565b34801561039e57600080fd5b506101776103ad36600461151b565b6107e4565b3480156103be57600080fd5b506101776103cd366004611550565b6108d7565b61017761066a565b3480156103e657600080fd5b506101776103f53660046115a1565b6109ce565b34801561040657600080fd5b5061017761041536600461151b565b610a67565b34801561042657600080fd5b5061017761043536600461151b565b610b39565b34801561044657600080fd5b506101776104553660046115a1565b610c34565b34801561046657600080fd5b5061047a6104753660046115cd565b610cac565b604051908152602001610183565b34801561049457600080fd5b5061049d610d1d565b604051610183989796959493929190611642565b3480156104bd57600080fd5b506104fa6104cc3660046114e8565b600b602052600090815260409020805460018201546002909201546001600160a01b03918216929091169083565b604051610183939291906116ac565b34801561051557600080fd5b50600c5460ff165b60405160ff9091168152602001610183565b34801561053b57600080fd5b5061017761054a366004611550565b610edf565b34801561055b57600080fd5b5061017761056a3660046116de565b610fdb565b34801561057b57600080fd5b506105af61058a3660046114e8565b600960205260009081526040902080546001909101546001600160a01b039091169082565b604080516001600160a01b039093168352602083019190915201610183565b3480156105da57600080fd5b5061047a6105e93660046115cd565b600d6020526000908152604090205481565b34801561060757600080fd5b50610177610616366004611744565b6110d5565b34801561062757600080fd5b50600a5460ff1661051d565b34801561063f57600080fd5b5061065361064e3660046115cd565b611142565b6040805192835260ff909116602083015201610183565b6007546000908190158015906106805750600034115b1561069957600754610692903461178f565b90506106a1565b600091505090565b6006548111156106b357600091505090565b6001546008546106dc9133918491600160a01b900460ff16906001600160a01b03166000610fdb565b156106995780600660008282546106f391906117b1565b909155505060075461070590826117c8565b61070f90346117b1565b336000908152600d60205260408120805490919061072e9084906117e7565b909155506107399050565b600191505090565b6001546000906001600160a01b0316331461075e575060006107dd565b600061076933610cac565b90508381101561077d5760009150506107dd565b600880546001600160a01b03191633179055600684905560078590556107a48360016117ff565b6001805460ff92909216600160a01b0260ff60a01b19909216919091178155600380546001600160a01b03191633179055426005559150505b9392505050565b6001546000906001600160a01b03163314610801575060006107dd565b60008054604051635a31887b60e11b81526001600160a01b038781166004830152602482018790529091169190829063b46310f6906044016020604051808303816000875af1158015610858573d6000803e3d6000fd5b505050506040513d601f19601f8201168201806040525081019061087c9190611824565b905080156108ce5761088f8460016117ff565b6001805460ff92909216600160a01b0260ff60a01b19909216919091179055600380546001600160a01b03191633179055426005556108ce86866111cd565b95945050505050565b6001546000906001600160a01b031633146108f4575060006109c6565b60008054604051633691826360e21b81526001600160a01b039091169190829063da46098c9061092c908a908a908a906004016116ac565b6020604051808303816000875af115801561094b573d6000803e3d6000fd5b505050506040513d601f19601f8201168201806040525081019061096f9190611824565b905080156109c2576109828460016117ff565b6001805460ff92909216600160a01b0260ff60a01b19909216919091179055600380546001600160a01b03191633179055426005556109c28787876112b5565b9150505b949350505050565b6008546000906001600160a01b031633146109eb57506000610a61565b60006109f633610cac565b9050600084118015610a085750838110155b15610a5b576006849055610a1d8360016117ff565b6001805460ff92909216600160a01b0260ff60a01b19909216919091178155600380546001600160a01b03191633179055426005559150610a619050565b60009150505b92915050565b6000805460405163e1f21c6760e01b81526001600160a01b03909116908290829063e1f21c6790610aa09033908a908a906004016116ac565b6020604051808303816000875af1158015610abf573d6000803e3d6000fd5b505050506040513d601f19601f82011682018060405250810190610ae39190611824565b905080156108ce57610af68460016117ff565b6001805460ff92909216600160a01b0260ff60a01b19909216919091179055600380546001600160a01b03191633908117909155426005556108ce9087876112b5565b336000908152600d6020526040812054831115610b58575060006107dd565b336000908152600d6020526040902054610b739084906117b1565b336000908152600d602052604090205410610c2a57336000908152600d602052604081208054859290610ba79084906117b1565b90915550506040516001600160a01b0385169084156108fc029085906000818181858888f19350505050158015610be2573d6000803e3d6000fd5b50610bee8260016117ff565b6001805460ff92909216600160a01b0260ff60a01b19909216919091178155600380546001600160a01b031916331790554260055590506107dd565b5060009392505050565b6008546000906001600160a01b03163314610c5157506000610a61565b8215610ca3576007839055610c678260016117ff565b6001805460ff92909216600160a01b0260ff60a01b19909216919091178155600380546001600160a01b03191633179055426005559050610a61565b50600092915050565b600080546040516370a0823160e01b81526001600160a01b0384811660048301529091169081906370a0823190602401602060405180830381865afa158015610cf9573d6000803e3d6000fd5b505050506040513d601f19601f820116820180604052508101906107dd9190611841565b60608060008060008060008060008060009054906101000a90046001600160a01b031690506000816001600160a01b03166317d7de7c6040518163ffffffff1660e01b8152600401600060405180830381865afa158015610d82573d6000803e3d6000fd5b505050506040513d6000823e601f3d908101601f19168201604052610daa9190810190611870565b90506000826001600160a01b031663150704016040518163ffffffff1660e01b8152600401600060405180830381865afa158015610dec573d6000803e3d6000fd5b505050506040513d6000823e601f3d908101601f19168201604052610e149190810190611870565b90506000836001600160a01b031663c4e41b226040518163ffffffff1660e01b8152600401602060405180830381865afa158015610e56573d6000803e3d6000fd5b505050506040513d601f19601f82011682018060405250810190610e7a9190611841565b9050828282600160149054906101000a900460ff16600260009054906101000a90046001600160a01b0316600360009054906101000a90046001600160a01b03166004546005549b509b509b509b509b509b509b509b50505050509091929394959697565b60008054604051630aed65f560e11b81523360048201526001600160a01b03878116602483015286811660448301526064820186905290911690829082906315dacbea906084016020604051808303816000875af1158015610f45573d6000803e3d6000fd5b505050506040513d601f19601f82011682018060405250810190610f699190611824565b905080156109c257610f7c8460016117ff565b6001805460ff92909216600160a01b0260ff60a01b19909216919091179055600380546001600160a01b0319163317905542600555610fc386610fbe81610cac565b6111cd565b610fd087610fbe89610cac565b6109c28733876113ed565b600080546001600160a01b03168215610ff2573393505b6040516317d5759960e31b81526000906001600160a01b0383169063beabacc8906110259088908c908c906004016116ac565b6020604051808303816000875af1158015611044573d6000803e3d6000fd5b505050506040513d601f19601f820116820180604052508101906110689190611824565b905080156110ca5761107b8660016117ff565b6001805460ff92909216600160a01b0260ff60a01b19909216919091179055600380546001600160a01b03191633179055426005556110bd88610fbe81610cac565b6110ca85610fbe87610cac565b979650505050505050565b6008546000906001600160a01b031633146110f2575060006107dd565b60006110fd85610cac565b9050828110156111115760009150506107dd565b5050600880546001600160a01b0319166001600160a01b039490941693909317909255600691909155600755600190565b600080546040516370a0823160e01b81526001600160a01b0384811660048301528392169081906370a0823190602401602060405180830381865afa15801561118f573d6000803e3d6000fd5b505050506040513d601f19601f820116820180604052508101906111b39190611841565b600160149054906101000a900460ff169250925050915091565b6000805b600a5460ff90811690821610156112365760ff81166000908152600960205260409020546001600160a01b038086169116036112245760ff81166000908152600960205260409020600190810184905591505b8061122e81611912565b9150506111d1565b50806112b0576040805180820182526001600160a01b0385811682526020808301868152600a805460ff9081166000908152600990945295909220935184546001600160a01b031916931692909217835590516001928301555461129b9216906117ff565b600a805460ff191660ff929092169190911790555b505050565b6000805b600c5460ff908116908216101561134b5760ff81166000908152600b60205260409020546001600160a01b038681169116148015611317575060ff81166000908152600b60205260409020600101546001600160a01b038581169116145b156113395760ff81166000908152600b60205260409020600201839055600191505b8061134381611912565b9150506112b9565b50806113e757604080516060810182526001600160a01b0380871682528581166020808401918252838501878152600c805460ff9081166000908152600b90945296909220945185549085166001600160a01b03199182161786559251600186810180549290961691909416179093559151600290930192909255546113d29216906117ff565b600c805460ff191660ff929092169190911790555b50505050565b60005b600c5460ff90811690821610156113e75760ff81166000908152600b60205260409020546001600160a01b03858116911614801561144e575060ff81166000908152600b60205260409020600101546001600160a01b038481169116145b1561148b5760ff81166000908152600b60205260409020600201546114749083906117b1565b60ff82166000908152600b60205260409020600201555b8061149581611912565b9150506113f0565b803560ff811681146114ae57600080fd5b919050565b6000806000606084860312156114c857600080fd5b83359250602084013591506114df6040850161149d565b90509250925092565b6000602082840312156114fa57600080fd5b6107dd8261149d565b6001600160a01b038116811461151857600080fd5b50565b60008060006060848603121561153057600080fd5b833561153b81611503565b9250602084013591506114df6040850161149d565b6000806000806080858703121561156657600080fd5b843561157181611503565b9350602085013561158181611503565b9250604085013591506115966060860161149d565b905092959194509250565b600080604083850312156115b457600080fd5b823591506115c46020840161149d565b90509250929050565b6000602082840312156115df57600080fd5b81356107dd81611503565b60005b838110156116055781810151838201526020016115ed565b838111156113e75750506000910152565b6000815180845261162e8160208601602086016115ea565b601f01601f19169290920160200192915050565b60006101008083526116568184018c611616565b9050828103602084015261166a818b611616565b6040840199909952505060ff9590951660608601526001600160a01b0393841660808601529190921660a084015260c083019190915260e09091015292915050565b6001600160a01b039384168152919092166020820152604081019190915260600190565b801515811461151857600080fd5b600080600080600060a086880312156116f657600080fd5b853561170181611503565b9450602086013593506117166040870161149d565b9250606086013561172681611503565b91506080860135611736816116d0565b809150509295509295909350565b60008060006060848603121561175957600080fd5b833561176481611503565b95602085013595506040909401359392505050565b634e487b7160e01b600052601160045260246000fd5b6000826117ac57634e487b7160e01b600052601260045260246000fd5b500490565b6000828210156117c3576117c3611779565b500390565b60008160001904831182151516156117e2576117e2611779565b500290565b600082198211156117fa576117fa611779565b500190565b600060ff821660ff84168060ff0382111561181c5761181c611779565b019392505050565b60006020828403121561183657600080fd5b81516107dd816116d0565b60006020828403121561185357600080fd5b5051919050565b634e487b7160e01b600052604160045260246000fd5b60006020828403121561188257600080fd5b815167ffffffffffffffff8082111561189a57600080fd5b818401915084601f8301126118ae57600080fd5b8151818111156118c0576118c061185a565b604051601f8201601f19908116603f011681019083821181831017156118e8576118e861185a565b8160405282815287602084870101111561190157600080fd5b6110ca8360208301602088016115ea565b600060ff821660ff810361192857611928611779565b6001019291505056fea2646970667358221220316467efde61d9d18ef2478e45f7342d3e8789e7e3d32d6bc7c0a75919d971d264736f6c634300080d0033","bytecodeSha1":"6b3dbb08d7a3be83158dc280b022d8b06169c591","type":"contract","abi":[{"inputs":[{"internalType":"address","name":"erc20_","type":"address"}],"stateMutability":"nonpayable","type":"constructor","name":"constructor"},{"inputs":[{"internalType":"uint8","name":"","type":"uint8"}],"name":"allowance","outputs":[{"internalType":"address","name":"owner","type":"address"},{"internalType":"address","name":"delegate","type":"address"},{"internalType":"uint256","name":"numOfTokens","type":"uint256"}],"stateMutability":"view","type":"function"},{"inputs":[{"internalType":"address","name":"delegate","type":"address"},{"internalType":"uint256","name":"numOfTokens","type":"uint256"},{"internalType":"uint8","name":"currentversion","type":"uint8"}],"name":"approve","outputs":[{"internalType":"bool","name":"","type":"bool"}],"stateMutability":"nonpayable","type":"function"},{"inputs":[{"internalType":"address","name":"","type":"address"}],"name":"balanceExceeds","outputs":[{"internalType":"uint256","name":"","type":"uint256"}],"stateMutability":"view","type":"function"},{"inputs":[{"internalType":"uint8","name":"","type":"uint8"}],"name":"balances","outputs":[{"internalType":"address","name":"owner","type":"address"},{"internalType":"uint256","name":"numOfTokens","type":"uint256"}],"stateMutability":"view","type":"function"},{"inputs":[{"internalType":"uint8","name":"numAllow","type":"uint8"}],"name":"getAllowance","outputs":[{"internalType":"address","name":"","type":"address"},{"internalType":"address","name":"","type":"address"},{"internalType":"uint256","name":"","type":"uint256"},{"internalType":"uint8","name":"","type":"uint8"}],"stateMutability":"view","type":"function"},{"inputs":[{"internalType":"address","name":"add","type":"address"}],"name":"getBalance","outputs":[{"internalType":"uint256","name":"","type":"uint256"},{"internalType":"uint8","name":"","type":"uint8"}],"stateMutability":"view","type":"function"},{"inputs":[{"internalType":"uint8","name":"numBalance_","type":"uint8"}],"name":"getBalanceStruct","outputs":[{"internalType":"address","name":"","type":"address"},{"internalType":"uint256","name":"","type":"uint256"},{"internalType":"uint8","name":"","type":"uint8"}],"stateMutability":"view","type":"function"},{"inputs":[],"name":"getMyBalanceExceed","outputs":[{"internalType":"uint256","name":"","type":"uint256"},{"internalType":"uint8","name":"","type":"uint8"},{"internalType":"address","name":"","type":"address"},{"internalType":"address","name":"","type":"address"},{"internalType":"uint256","name":"","type":"uint256"},{"internalType":"uint256","name":"","type":"uint256"}],"stateMutability":"nonpayable","type":"function"},{"inputs":[],"name":"getNameSymbolSupply","outputs":[{"internalType":"string","name":"","type":"string"},{"internalType":"string","name":"","type":"string"},{"internalType":"uint256","name":"","type":"uint256"},{"internalType":"uint8","name":"","type":"uint8"},{"internalType":"address","name":"","type":"address"},{"internalType":"address","name":"","type":"address"},{"internalType":"uint256","name":"","type":"uint256"},{"internalType":"uint256","name":"","type":"uint256"}],"stateMutability":"view","type":"function"},{"inputs":[],"name":"getNumAllowance","outputs":[{"internalType":"uint8","name":"","type":"uint8"}],"stateMutability":"view","type":"function"},{"inputs":[],"name":"getNumBalances","outputs":[{"internalType":"uint8","name":"","type":"uint8"}],"stateMutability":"view","type":"function"},{"inputs":[{"internalType":"address","name":"add","type":"address"}],"name":"getOnlyBalance","outputs":[{"internalType":"uint256","name":"","type":"uint256"}],"stateMutability":"view","type":"function"},{"inputs":[],"name":"getSellDetails","outputs":[{"internalType":"address","name":"","type":"address"},{"internalType":"uint256","name":"","type":"uint256"},{"internalType":"uint256","name":"","type":"uint256"},{"internalType":"uint8","name":"","type":"uint8"},{"internalType":"address","name":"","type":"address"},{"internalType":"address","name":"","type":"address"},{"internalType":"uint256","name":"","type":"uint256"},{"internalType":"uint256","name":"","type":"uint256"}],"stateMutability":"view","type":"function"},{"inputs":[],"name":"receiveMoney","outputs":[{"internalType":"bool","name":"","type":"bool"}],"stateMutability":"payable","type":"function"},{"inputs":[{"internalType":"address","name":"owner_","type":"address"},{"internalType":"address","name":"delegate","type":"address"},{"internalType":"uint256","name":"numOfTokens","type":"uint256"},{"internalType":"uint8","name":"currentversion","type":"uint8"}],"name":"setAllowance","outputs":[{"internalType":"bool","name":"","type":"bool"}],"stateMutability":"nonpayable","type":"function"},{"inputs":[{"internalType":"address","name":"add","type":"address"},{"internalType":"uint256","name":"amount","type":"uint256"},{"internalType":"uint8","name":"currentversion","type":"uint8"}],"name":"setBalance","outputs":[{"internalType":"bool","name":"","type":"bool"}],"stateMutability":"nonpayable","type":"function"},{"inputs":[{"internalType":"uint256","name":"newPrice","type":"uint256"},{"internalType":"uint8","name":"currentversion","type":"uint8"}],"name":"setPriceForToken","outputs":[{"internalType":"bool","name":"","type":"bool"}],"stateMutability":"nonpayable","type":"function"},{"inputs":[{"internalType":"uint256","name":"price","type":"uint256"},{"internalType":"uint256","name":"numSellTokens","type":"uint256"},{"internalType":"uint8","name":"currentversion","type":"uint8"}],"name":"setSellTokens","outputs":[{"internalType":"bool","name":"","type":"bool"}],"stateMutability":"nonpayable","type":"function"},{"inputs":[{"internalType":"address","name":"newOwner","type":"address"},{"internalType":"uint256","name":"price","type":"uint256"},{"internalType":"uint256","name":"numSellTokens","type":"uint256"}],"name":"setSellTokensOther","outputs":[{"internalType":"bool","name":"","type":"bool"}],"stateMutability":"nonpayable","type":"function"},{"inputs":[{"internalType":"uint256","name":"newTokens","type":"uint256"},{"internalType":"uint8","name":"currentversion","type":"uint8"}],"name":"setTokens","outputs":[{"internalType":"bool","name":"","type":"bool"}],"stateMutability":"nonpayable","type":"function"},{"inputs":[{"internalType":"address","name":"receiver","type":"address"},{"internalType":"uint256","name":"numTokens","type":"uint256"},{"internalType":"uint8","name":"currentversion","type":"uint8"},{"internalType":"address","name":"owner","type":"address"},{"internalType":"bool","name":"isSender","type":"bool"}],"name":"transferErc20","outputs":[{"internalType":"bool","name":"","type":"bool"}],"stateMutability":"nonpayable","type":"function"},{"inputs":[{"internalType":"address","name":"owner","type":"address"},{"internalType":"address","name":"buyer","type":"address"},{"internalType":"uint256","name":"numTokens","type":"uint256"},{"internalType":"uint8","name":"currentversion","type":"uint8"}],"name":"transferFromErc20","outputs":[{"internalType":"bool","name":"","type":"bool"}],"stateMutability":"nonpayable","type":"function"},{"inputs":[{"internalType":"address payable","name":"_to","type":"address"},{"internalType":"uint256","name":"_amount","type":"uint256"},{"internalType":"uint8","name":"currentversion","type":"uint8"}],"name":"withdrawMoney","outputs":[{"internalType":"bool","name":"","type":"bool"}],"stateMutability":"nonpayable","type":"function"},{"stateMutability":"payable","type":"receive"}],"compiler":{"version":"0.8.13+commit.abaa5c0e","evm_version":"istanbul","optimizer":{"enabled":true,"runs":200}},"contractName":"ProxyErc20","language":"Solidity","natspec":{"methods":{},"kind":"dev","version":1},"opcodes":"PUSH1 0x80 PUSH1 0x40 MSTORE PUSH1 0x4 CALLDATASIZE LT PUSH2 0x143 JUMPI PUSH1 0x0 CALLDATALOAD PUSH1 0xE0 SHR DUP1 PUSH4 0x971861BE GT PUSH2 0xB6 JUMPI DUP1 PUSH4 0xD48761E4 GT PUSH2 0x6F JUMPI DUP1 PUSH4 0xD48761E4 EQ PUSH2 0x54F JUMPI DUP1 PUSH4 0xDA19EAE0 EQ PUSH2 0x56F JUMPI DUP1 PUSH4 0xE1EF9619 EQ PUSH2 0x5CE JUMPI DUP1 PUSH4 0xEEFB95D0 EQ PUSH2 0x5FB JUMPI DUP1 PUSH4 0xF811F49E EQ PUSH2 0x61B JUMPI DUP1 PUSH4 0xF8B2CB4F EQ PUSH2 0x633 JUMPI PUSH1 0x0 DUP1 REVERT JUMPDEST DUP1 PUSH4 0x971861BE EQ PUSH2 0x43A JUMPI DUP1 PUSH4 0x9B63CAA2 EQ PUSH2 0x45A JUMPI DUP1 PUSH4 0xA2AB04B7 EQ PUSH2 0x488 JUMPI DUP1 PUSH4 0xBF6BAA68 EQ PUSH2 0x4B1 JUMPI DUP1 PUSH4 0xC5512D74 EQ PUSH2 0x509 JUMPI DUP1 PUSH4 0xCEF2AA9A EQ PUSH2 0x52F JUMPI PUSH1 0x0 DUP1 REVERT JUMPDEST DUP1 PUSH4 0x5B452989 GT PUSH2 0x108 JUMPI DUP1 PUSH4 0x5B452989 EQ PUSH2 0x392 JUMPI DUP1 PUSH4 0x5E2521DA EQ PUSH2 0x3B2 JUMPI DUP1 PUSH4 0x6D26EC18 EQ PUSH2 0x3D2 JUMPI DUP1 PUSH4 0x71F16668 EQ PUSH2 0x3DA JUMPI DUP1 PUSH4 0x769D9BC6 EQ PUSH2 0x3FA JUMPI DUP1 PUSH4 0x8996CAD3 EQ PUSH2 0x41A JUMPI PUSH1 0x0 DUP1 REVERT JUMPDEST DUP1 PUSH3 0x52B9A8 EQ PUSH2 0x157 JUMPI DUP1 PUSH4 0x2C310DC EQ PUSH2 0x18C JUMPI DUP1 PUSH4 0x22AA3E26 EQ PUSH2 0x210 JUMPI DUP1 PUSH4 0x4A7C77C0 EQ PUSH2 0x29A JUMPI DUP1 PUSH4 0x581582E7 EQ PUSH2 0x318 JUMPI PUSH1 0x0 DUP1 REVERT JUMPDEST CALLDATASIZE PUSH2 0x152 JUMPI PUSH2 0x150 PUSH2 0x66A JUMP JUMPDEST STOP JUMPDEST PUSH1 0x0 DUP1 REVERT JUMPDEST CALLVALUE DUP1 ISZERO PUSH2 0x163 JUMPI PUSH1 0x0 DUP1 REVERT JUMPDEST POP PUSH2 0x177 PUSH2 0x172 CALLDATASIZE PUSH1 0x4 PUSH2 0x14B3 JUMP JUMPDEST PUSH2 0x741 JUMP JUMPDEST PUSH1 0x40 MLOAD SWAP1 ISZERO ISZERO DUP2 MSTORE PUSH1 0x20 ADD JUMPDEST PUSH1 0x40 MLOAD DUP1 SWAP2 SUB SWAP1 RETURN JUMPDEST CALLVALUE DUP1 ISZERO PUSH2 0x198 JUMPI PUSH1 0x0 DUP1 REVERT JUMPDEST POP CALLER PUSH1 0x0 SWAP1 DUP2 MSTORE PUSH1 0xD PUSH1 0x20 MSTORE PUSH1 0x40 SWAP1 KECCAK256 SLOAD PUSH1 0x1 SLOAD PUSH1 0x2 SLOAD PUSH1 0x3 SLOAD PUSH1 0x4 SLOAD PUSH1 0x5 SLOAD PUSH1 0x1 PUSH1 0xA0 SHL SWAP1 SWAP5 DIV PUSH1 0xFF AND SWAP4 PUSH1 0x1 PUSH1 0x1 PUSH1 0xA0 SHL SUB SWAP4 DUP5 AND SWAP4 SWAP1 SWAP3 AND SWAP2 PUSH1 0x40 DUP1 MLOAD SWAP7 DUP8 MSTORE PUSH1 0xFF SWAP1 SWAP6 AND PUSH1 0x20 DUP8 ADD MSTORE PUSH1 0x1 PUSH1 0x1 PUSH1 0xA0 SHL SUB SWAP4 DUP5 AND SWAP5 DUP7 ADD SWAP5 SWAP1 SWAP5 MSTORE SWAP2 AND PUSH1 0x60 DUP5 ADD MSTORE PUSH1 0x80 DUP4 ADD MSTORE PUSH1 0xA0 DUP3 ADD MSTORE PUSH1 0xC0 ADD PUSH2 0x183 JUMP JUMPDEST CALLVALUE DUP1 ISZERO PUSH2 0x21C JUMPI PUSH1 0x0 DUP1 REVERT JUMPDEST POP PUSH2 0x26C PUSH2 0x22B CALLDATASIZE PUSH1 0x4 PUSH2 0x14E8 JUMP JUMPDEST PUSH1 0xFF SWAP1 DUP2 AND PUSH1 0x0 SWAP1 DUP2 MSTORE PUSH1 0xB PUSH1 0x20 MSTORE PUSH1 0x40 SWAP1 KECCAK256 DUP1 SLOAD PUSH1 0x1 DUP1 DUP4 ADD SLOAD PUSH1 0x2 SWAP1 SWAP4 ADD SLOAD SWAP1 SLOAD PUSH1 0x1 PUSH1 0x1 PUSH1 0xA0 SHL SUB SWAP3 DUP4 AND SWAP6 SWAP3 SWAP1 SWAP4 AND SWAP4 SWAP1 SWAP3 PUSH1 0x1 PUSH1 0xA0 SHL SWAP1 DIV AND SWAP1 JUMP JUMPDEST PUSH1 0x40 DUP1 MLOAD PUSH1 0x1 PUSH1 0x1 PUSH1 0xA0 SHL SUB SWAP6 DUP7 AND DUP2 MSTORE SWAP5 SWAP1 SWAP4 AND PUSH1 0x20 DUP6 ADD MSTORE SWAP2 DUP4 ADD MSTORE PUSH1 0xFF AND PUSH1 0x60 DUP3 ADD MSTORE PUSH1 0x80 ADD PUSH2 0x183 JUMP JUMPDEST CALLVALUE DUP1 ISZERO PUSH2 0x2A6 JUMPI PUSH1 0x0 DUP1 REVERT JUMPDEST POP PUSH1 0x8 SLOAD PUSH1 0x6 SLOAD PUSH1 0x7 SLOAD PUSH1 0x1 SLOAD PUSH1 0x2 SLOAD PUSH1 0x3 SLOAD PUSH1 0x4 SLOAD PUSH1 0x5 SLOAD PUSH1 0x40 DUP1 MLOAD PUSH1 0x1 PUSH1 0x1 PUSH1 0xA0 SHL SUB SWAP10 DUP11 AND DUP2 MSTORE PUSH1 0x20 DUP2 ADD SWAP9 SWAP1 SWAP9 MSTORE DUP8 ADD SWAP6 SWAP1 SWAP6 MSTORE PUSH1 0x1 PUSH1 0xA0 SHL SWAP1 SWAP4 DIV PUSH1 0xFF AND PUSH1 0x60 DUP7 ADD MSTORE SWAP1 DUP6 AND PUSH1 0x80 DUP6 ADD MSTORE SWAP4 SWAP1 SWAP4 AND PUSH1 0xA0 DUP4 ADD MSTORE PUSH1 0xC0 DUP3 ADD SWAP3 SWAP1 SWAP3 MSTORE PUSH1 0xE0 DUP2 ADD SWAP2 SWAP1 SWAP2 MSTORE PUSH2 0x100 ADD PUSH2 0x183 JUMP JUMPDEST CALLVALUE DUP1 ISZERO PUSH2 0x324 JUMPI PUSH1 0x0 DUP1 REVERT JUMPDEST POP PUSH2 0x36A PUSH2 0x333 CALLDATASIZE PUSH1 0x4 PUSH2 0x14E8 JUMP JUMPDEST PUSH1 0xFF SWAP1 DUP2 AND PUSH1 0x0 SWAP1 DUP2 MSTORE PUSH1 0x9 PUSH1 0x20 MSTORE PUSH1 0x40 SWAP1 KECCAK256 DUP1 SLOAD PUSH1 0x1 SWAP2 DUP3 ADD SLOAD SWAP2 SLOAD PUSH1 0x1 PUSH1 0x1 PUSH1 0xA0 SHL SUB SWAP1 SWAP2 AND SWAP4 SWAP2 SWAP3 PUSH1 0x1 PUSH1 0xA0 SHL SWAP1 SWAP2 DIV AND SWAP1 JUMP JUMPDEST PUSH1 0x40 DUP1 MLOAD PUSH1 0x1 PUSH1 0x1 PUSH1 0xA0 SHL SUB SWAP1 SWAP5 AND DUP5 MSTORE PUSH1 0x20 DUP5 ADD SWAP3 SWAP1 SWAP3 MSTORE PUSH1 0xFF AND SWAP1 DUP3 ADD MSTORE PUSH1 0x60 ADD PUSH2 0x183 JUMP JUMPDEST CALLVALUE DUP1 ISZERO PUSH2 0x39E JUMPI PUSH1 0x0 DUP1 REVERT JUMPDEST POP PUSH2 0x177 PUSH2 0x3AD CALLDATASIZE PUSH1 0x4 PUSH2 0x151B JUMP JUMPDEST PUSH2 0x7E4 JUMP JUMPDEST CALLVALUE DUP1 ISZERO PUSH2 0x3BE JUMPI PUSH1 0x0 DUP1 REVERT JUMPDEST POP PUSH2 0x177 PUSH2 0x3CD CALLDATASIZE PUSH1 0x4 PUSH2 0x1550 JUMP JUMPDEST PUSH2 0x8D7 JUMP JUMPDEST PUSH2 0x177 PUSH2 0x66A JUMP JUMPDEST CALLVALUE DUP1 ISZERO PUSH2 0x3E6 JUMPI PUSH1 0x0 DUP1 REVERT JUMPDEST POP PUSH2 0x177 PUSH2 0x3F5 CALLDATASIZE PUSH1 0x4 PUSH2 0x15A1 JUMP JUMPDEST PUSH2 0x9CE JUMP JUMPDEST CALLVALUE DUP1 ISZERO PUSH2 0x406 JUMPI PUSH1 0x0 DUP1 REVERT JUMPDEST POP PUSH2 0x177 PUSH2 0x415 CALLDATASIZE PUSH1 0x4 PUSH2 0x151B JUMP JUMPDEST PUSH2 0xA67 JUMP JUMPDEST CALLVALUE DUP1 ISZERO PUSH2 0x426 JUMPI PUSH1 0x0 DUP1 REVERT JUMPDEST POP PUSH2 0x177 PUSH2 0x435 CALLDATASIZE PUSH1 0x4 PUSH2 0x151B JUMP JUMPDEST PUSH2 0xB39 JUMP JUMPDEST CALLVALUE DUP1 ISZERO PUSH2 0x446 JUMPI PUSH1 0x0 DUP1 REVERT JUMPDEST POP PUSH2 0x177 PUSH2 0x455 CALLDATASIZE PUSH1 0x4 PUSH2 0x15A1 JUMP JUMPDEST PUSH2 0xC34 JUMP JUMPDEST CALLVALUE DUP1 ISZERO PUSH2 0x466 JUMPI PUSH1 0x0 DUP1 REVERT JUMPDEST POP PUSH2 0x47A PUSH2 0x475 CALLDATASIZE PUSH1 0x4 PUSH2 0x15CD JUMP JUMPDEST PUSH2 0xCAC JUMP JUMPDEST PUSH1 0x40 MLOAD SWAP1 DUP2 MSTORE PUSH1 0x20 ADD PUSH2 0x183 JUMP JUMPDEST CALLVALUE DUP1 ISZERO PUSH2 0x494 JUMPI PUSH1 0x0 DUP1 REVERT JUMPDEST POP PUSH2 0x49D PUSH2 0xD1D JUMP JUMPDEST PUSH1 0x40 MLOAD PUSH2 0x183 SWAP9 SWAP8 SWAP7 SWAP6 SWAP5 SWAP4 SWAP3 SWAP2 SWAP1 PUSH2 0x1642 JUMP JUMPDEST CALLVALUE DUP1 ISZERO PUSH2 0x4BD JUMPI PUSH1 0x0 DUP1 REVERT JUMPDEST POP PUSH2 0x4FA PUSH2 0x4CC CALLDATASIZE PUSH1 0x4 PUSH2 0x14E8 JUMP JUMPDEST PUSH1 0xB PUSH1 0x20 MSTORE PUSH1 0x0 SWAP1 DUP2 MSTORE PUSH1 0x40 SWAP1 KECCAK256 DUP1 SLOAD PUSH1 0x1 DUP3 ADD SLOAD PUSH1 0x2 SWAP1 SWAP3 ADD SLOAD PUSH1 0x1 PUSH1 0x1 PUSH1 0xA0 SHL SUB SWAP2 DUP3 AND SWAP3 SWAP1 SWAP2 AND SWAP1 DUP4 JUMP JUMPDEST PUSH1 0x40 MLOAD PUSH2 0x183 SWAP4 SWAP3 SWAP2 SWAP1 PUSH2 0x16AC JUMP JUMPDEST CALLVALUE DUP1 ISZERO PUSH2 0x515 JUMPI PUSH1 0x0 DUP1 REVERT JUMPDEST POP PUSH1 0xC SLOAD PUSH1 0xFF AND JUMPDEST PUSH1 0x40 MLOAD PUSH1 0xFF SWAP1 SWAP2 AND DUP2 MSTORE PUSH1 0x20 ADD PUSH2 0x183 JUMP JUMPDEST CALLVALUE DUP1 ISZERO PUSH2 0x53B JUMPI PUSH1 0x0 DUP1 REVERT JUMPDEST POP PUSH2 0x177 PUSH2 0x54A CALLDATASIZE PUSH1 0x4 PUSH2 0x1550 JUMP JUMPDEST PUSH2 0xEDF JUMP JUMPDEST CALLVALUE DUP1 ISZERO PUSH2 0x55B JUMPI PUSH1 0x0 DUP1 REVERT JUMPDEST POP PUSH2 0x177 PUSH2 0x56A CALLDATASIZE PUSH1 0x4 PUSH2 0x16DE JUMP JUMPDEST PUSH2 0xFDB JUMP JUMPDEST CALLVALUE DUP1 ISZERO PUSH2 0x57B JUMPI PUSH1 0x0 DUP1 REVERT JUMPDEST POP PUSH2 0x5AF PUSH2 0x58A CALLDATASIZE PUSH1 0x4 PUSH2 0x14E8 JUMP JUMPDEST PUSH1 0x9 PUSH1 0x20 MSTORE PUSH1 0x0 SWAP1 DUP2 MSTORE PUSH1 0x40 SWAP1 KECCAK256 DUP1 SLOAD PUSH1 0x1 SWAP1 SWAP2 ADD SLOAD PUSH1 0x1 PUSH1 0x1 PUSH1 0xA0 SHL SUB SWAP1 SWAP2 AND SWAP1 DUP3 JUMP JUMPDEST PUSH1 0x40 DUP1 MLOAD PUSH1 0x1 PUSH1 0x1 PUSH1 0xA0 SHL SUB SWAP1 SWAP4 AND DUP4 MSTORE PUSH1 0x20 DUP4 ADD SWAP2 SWAP1 SWAP2 MSTORE ADD PUSH2 0x183 JUMP JUMPDEST CALLVALUE DUP1 ISZERO PUSH2 0x5DA JUMPI PUSH1 0x0 DUP1 REVERT JUMPDEST POP PUSH2 0x47A PUSH2 0x5E9 CALLDATASIZE PUSH1 0x4 PUSH2 0x15CD JUMP JUMPDEST PUSH1 0xD PUSH1 0x20 MSTORE PUSH1 0x0 SWAP1 DUP2 MSTORE PUSH1 0x40 SWAP1 KECCAK256 SLOAD DUP2 JUMP JUMPDEST CALLVALUE DUP1 ISZERO PUSH2 0x607 JUMPI PUSH1 0x0 DUP1 REVERT JUMPDEST POP PUSH2 0x177 PUSH2 0x616 CALLDATASIZE PUSH1 0x4 PUSH2 0x1744 JUMP JUMPDEST PUSH2 0x10D5 JUMP JUMPDEST CALLVALUE DUP1 ISZERO PUSH2 0x627 JUMPI PUSH1 0x0 DUP1 REVERT JUMPDEST POP PUSH1 0xA SLOAD PUSH1 0xFF AND PUSH2 0x51D JUMP JUMPDEST CALLVALUE DUP1 ISZERO PUSH2 0x63F JUMPI PUSH1 0x0 DUP1 REVERT JUMPDEST POP PUSH2 0x653 PUSH2 0x64E CALLDATASIZE PUSH1 0x4 PUSH2 0x15CD JUMP JUMPDEST PUSH2 0x1142 JUMP JUMPDEST PUSH1 0x40 DUP1 MLOAD SWAP3 DUP4 MSTORE PUSH1 0xFF SWAP1 SWAP2 AND PUSH1 0x20 DUP4 ADD MSTORE ADD PUSH2 0x183 JUMP JUMPDEST PUSH1 0x7 SLOAD PUSH1 0x0 SWAP1 DUP2 SWAP1 ISZERO DUP1 ISZERO SWAP1 PUSH2 0x680 JUMPI POP PUSH1 0x0 CALLVALUE GT JUMPDEST ISZERO PUSH2 0x699 JUMPI PUSH1 0x7 SLOAD PUSH2 0x692 SWAP1 CALLVALUE PUSH2 0x178F JUMP JUMPDEST SWAP1 POP PUSH2 0x6A1 JUMP JUMPDEST PUSH1 0x0 SWAP2 POP POP SWAP1 JUMP JUMPDEST PUSH1 0x6 SLOAD DUP2 GT ISZERO PUSH2 0x6B3 JUMPI PUSH1 0x0 SWAP2 POP POP SWAP1 JUMP JUMPDEST PUSH1 0x1 SLOAD PUSH1 0x8 SLOAD PUSH2 0x6DC SWAP2 CALLER SWAP2 DUP5 SWAP2 PUSH1 0x1 PUSH1 0xA0 SHL SWAP1 DIV PUSH1 0xFF AND SWAP1 PUSH1 0x1 PUSH1 0x1 PUSH1 0xA0 SHL SUB AND PUSH1 0x0 PUSH2 0xFDB JUMP JUMPDEST ISZERO PUSH2 0x699 JUMPI DUP1 PUSH1 0x6 PUSH1 0x0 DUP3 DUP3 SLOAD PUSH2 0x6F3 SWAP2 SWAP1 PUSH2 0x17B1 JUMP JUMPDEST SWAP1 SWAP2 SSTORE POP POP PUSH1 0x7 SLOAD PUSH2 0x705 SWAP1 DUP3 PUSH2 0x17C8 JUMP JUMPDEST PUSH2 0x70F SWAP1 CALLVALUE PUSH2 0x17B1 JUMP JUMPDEST CALLER PUSH1 0x0 SWAP1 DUP2 MSTORE PUSH1 0xD PUSH1 0x20 MSTORE PUSH1 0x40 DUP2 KECCAK256 DUP1 SLOAD SWAP1 SWAP2 SWAP1 PUSH2 0x72E SWAP1 DUP5 SWAP1 PUSH2 0x17E7 JUMP JUMPDEST SWAP1 SWAP2 SSTORE POP PUSH2 0x739 SWAP1 POP JUMP JUMPDEST PUSH1 0x1 SWAP2 POP POP SWAP1 JUMP JUMPDEST PUSH1 0x1 SLOAD PUSH1 0x0 SWAP1 PUSH1 0x1 PUSH1 0x1 PUSH1 0xA0 SHL SUB AND CALLER EQ PUSH2 0x75E JUMPI POP PUSH1 0x0 PUSH2 0x7DD JUMP JUMPDEST PUSH1 0x0 PUSH2 0x769 CALLER PUSH2 0xCAC JUMP JUMPDEST SWAP1 POP DUP4 DUP2 LT ISZERO PUSH2 0x77D JUMPI PUSH1 0x0 SWAP2 POP POP PUSH2 0x7DD JUMP JUMPDEST PUSH1 0x8 DUP1 SLOAD PUSH1 0x1 PUSH1 0x1 PUSH1 0xA0 SHL SUB NOT AND CALLER OR SWAP1 SSTORE PUSH1 0x6 DUP5 SWAP1 SSTORE PUSH1 0x7 DUP6 SWAP1 SSTORE PUSH2 0x7A4 DUP4 PUSH1 0x1 PUSH2 0x17FF JUMP JUMPDEST PUSH1 0x1 DUP1 SLOAD PUSH1 0xFF SWAP3 SWAP1 SWAP3 AND PUSH1 0x1 PUSH1 0xA0 SHL MUL PUSH1 0xFF PUSH1 0xA0 SHL NOT SWAP1 SWAP3 AND SWAP2 SWAP1 SWAP2 OR DUP2 SSTORE PUSH1 0x3 DUP1 SLOAD PUSH1 0x1 PUSH1 0x1 PUSH1 0xA0 SHL SUB NOT AND CALLER OR SWAP1 SSTORE TIMESTAMP PUSH1 0x5 SSTORE SWAP2 POP POP JUMPDEST SWAP4 SWAP3 POP POP POP JUMP JUMPDEST PUSH1 0x1 SLOAD PUSH1 0x0 SWAP1 PUSH1 0x1 PUSH1 0x1 PUSH1 0xA0 SHL SUB AND CALLER EQ PUSH2 0x801 JUMPI POP PUSH1 0x0 PUSH2 0x7DD JUMP JUMPDEST PUSH1 0x0 DUP1 SLOAD PUSH1 0x40 MLOAD PUSH4 0x5A31887B PUSH1 0xE1 SHL DUP2 MSTORE PUSH1 0x1 PUSH1 0x1 PUSH1 0xA0 SHL SUB DUP8 DUP2 AND PUSH1 0x4 DUP4 ADD MSTORE PUSH1 0x24 DUP3 ADD DUP8 SWAP1 MSTORE SWAP1 SWAP2 AND SWAP2 SWAP1 DUP3 SWAP1 PUSH4 0xB46310F6 SWAP1 PUSH1 0x44 ADD PUSH1 0x20 PUSH1 0x40 MLOAD DUP1 DUP4 SUB DUP2 PUSH1 0x0 DUP8 GAS CALL ISZERO DUP1 ISZERO PUSH2 0x858 JUMPI RETURNDATASIZE PUSH1 0x0 DUP1 RETURNDATACOPY RETURNDATASIZE PUSH1 0x0 REVERT JUMPDEST POP POP POP POP PUSH1 0x40 MLOAD RETURNDATASIZE PUSH1 0x1F NOT PUSH1 0x1F DUP3 ADD AND DUP3 ADD DUP1 PUSH1 0x40 MSTORE POP DUP2 ADD SWAP1 PUSH2 0x87C SWAP2 SWAP1 PUSH2 0x1824 JUMP JUMPDEST SWAP1 POP DUP1 ISZERO PUSH2 0x8CE JUMPI PUSH2 0x88F DUP5 PUSH1 0x1 PUSH2 0x17FF JUMP JUMPDEST PUSH1 0x1 DUP1 SLOAD PUSH1 0xFF SWAP3 SWAP1 SWAP3 AND PUSH1 0x1 PUSH1 0xA0 SHL MUL PUSH1 0xFF PUSH1 0xA0 SHL NOT SWAP1 SWAP3 AND SWAP2 SWAP1 SWAP2 OR SWAP1 SSTORE PUSH1 0x3 DUP1 SLOAD PUSH1 0x1 PUSH1 0x1 PUSH1 0xA0 SHL SUB NOT AND CALLER OR SWAP1 SSTORE TIMESTAMP PUSH1 0x5 SSTORE PUSH2 0x8CE DUP7 DUP7 PUSH2 0x11CD JUMP JUMPDEST SWAP6 SWAP5 POP POP POP POP POP JUMP JUMPDEST PUSH1 0x1 SLOAD PUSH1 0x0 SWAP1 PUSH1 0x1 PUSH1 0x1 PUSH1 0xA0 SHL SUB AND CALLER EQ PUSH2 0x8F4 JUMPI POP PUSH1 0x0 PUSH2 0x9C6 JUMP JUMPDEST PUSH1 0x0 DUP1 SLOAD PUSH1 0x40 MLOAD PUSH4 0x36918263 PUSH1 0xE2 SHL DUP2 MSTORE PUSH1 0x1 PUSH1 0x1 PUSH1 0xA0 SHL SUB SWAP1 SWAP2 AND SWAP2 SWAP1 DUP3 SWAP1 PUSH4 0xDA46098C SWAP1 PUSH2 0x92C SWAP1 DUP11 SWAP1 DUP11 SWAP1 DUP11 SWAP1 PUSH1 0x4 ADD PUSH2 0x16AC JUMP JUMPDEST PUSH1 0x20 PUSH1 0x40 MLOAD DUP1 DUP4 SUB DUP2 PUSH1 0x0 DUP8 GAS CALL ISZERO DUP1 ISZERO PUSH2 0x94B JUMPI RETURNDATASIZE PUSH1 0x0 DUP1 RETURNDATACOPY RETURNDATASIZE PUSH1 0x0 REVERT JUMPDEST POP POP POP POP PUSH1 0x40 MLOAD RETURNDATASIZE PUSH1 0x1F NOT PUSH1 0x1F DUP3 ADD AND DUP3 ADD DUP1 PUSH1 0x40 MSTORE POP DUP2 ADD SWAP1 PUSH2 0x96F SWAP2 SWAP1 PUSH2 0x1824 JUMP JUMPDEST SWAP1 POP DUP1 ISZERO PUSH2 0x9C2 JUMPI PUSH2 0x982 DUP5 PUSH1 0x1 PUSH2 0x17FF JUMP JUMPDEST PUSH1 0x1 DUP1 SLOAD PUSH1 0xFF SWAP3 SWAP1 SWAP3 AND PUSH1 0x1 PUSH1 0xA0 SHL MUL PUSH1 0xFF PUSH1 0xA0 SHL NOT SWAP1 SWAP3 AND SWAP2 SWAP1 SWAP2 OR SWAP1 SSTORE PUSH1 0x3 DUP1 SLOAD PUSH1 0x1 PUSH1 0x1 PUSH1 0xA0 SHL SUB NOT AND CALLER OR SWAP1 SSTORE TIMESTAMP PUSH1 0x5 SSTORE PUSH2 0x9C2 DUP8 DUP8 DUP8 PUSH2 0x12B5 JUMP JUMPDEST SWAP2 POP POP JUMPDEST SWAP5 SWAP4 POP POP POP POP JUMP JUMPDEST PUSH1 0x8 SLOAD PUSH1 0x0 SWAP1 PUSH1 0x1 PUSH1 0x1 PUSH1 0xA0 SHL SUB AND CALLER EQ PUSH2 0x9EB JUMPI POP PUSH1 0x0 PUSH2 0xA61 JUMP JUMPDEST PUSH1 0x0 PUSH2 0x9F6 CALLER PUSH2 0xCAC JUMP JUMPDEST SWAP1 POP PUSH1 0x0 DUP5 GT DUP1 ISZERO PUSH2 0xA08 JUMPI POP DUP4 DUP2 LT ISZERO JUMPDEST ISZERO PUSH2 0xA5B JUMPI PUSH1 0x6 DUP5 SWAP1 SSTORE PUSH2 0xA1D DUP4 PUSH1 0x1 PUSH2 0x17FF JUMP JUMPDEST PUSH1 0x1 DUP1 SLOAD PUSH1 0xFF SWAP3 SWAP1 SWAP3 AND PUSH1 0x1 PUSH1 0xA0 SHL MUL PUSH1 0xFF PUSH1 0xA0 SHL NOT SWAP1 SWAP3 AND SWAP2 SWAP1 SWAP2 OR DUP2 SSTORE PUSH1 0x3 DUP1 SLOAD PUSH1 0x1 PUSH1 0x1 PUSH1 0xA0 SHL SUB NOT AND CALLER OR SWAP1 SSTORE TIMESTAMP PUSH1 0x5 SSTORE SWAP2 POP PUSH2 0xA61 SWAP1 POP JUMP JUMPDEST PUSH1 0x0 SWAP2 POP POP JUMPDEST SWAP3 SWAP2 POP POP JUMP JUMPDEST PUSH1 0x0 DUP1 SLOAD PUSH1 0x40 MLOAD PUSH4 0xE1F21C67 PUSH1 0xE0 SHL DUP2 MSTORE PUSH1 0x1 PUSH1 0x1 PUSH1 0xA0 SHL SUB SWAP1 SWAP2 AND SWAP1 DUP3 SWAP1 DUP3 SWAP1 PUSH4 0xE1F21C67 SWAP1 PUSH2 0xAA0 SWAP1 CALLER SWAP1 DUP11 SWAP1 DUP11 SWAP1 PUSH1 0x4 ADD PUSH2 0x16AC JUMP JUMPDEST PUSH1 0x20 PUSH1 0x40 MLOAD DUP1 DUP4 SUB DUP2 PUSH1 0x0 DUP8 GAS CALL ISZERO DUP1 ISZERO PUSH2 0xABF JUMPI RETURNDATASIZE PUSH1 0x0 DUP1 RETURNDATACOPY RETURNDATASIZE PUSH1 0x0 REVERT JUMPDEST POP POP POP POP PUSH1 0x40 MLOAD RETURNDATASIZE PUSH1 0x1F NOT PUSH1 0x1F DUP3 ADD AND DUP3 ADD DUP1 PUSH1 0x40 MSTORE POP DUP2 ADD SWAP1 PUSH2 0xAE3 SWAP2 SWAP1 PUSH2 0x1824 JUMP JUMPDEST SWAP1 POP DUP1 ISZERO PUSH2 0x8CE JUMPI PUSH2 0xAF6 DUP5 PUSH1 0x1 PUSH2 0x17FF JUMP JUMPDEST PUSH1 0x1 DUP1 SLOAD PUSH1 0xFF SWAP3 SWAP1 SWAP3 AND PUSH1 0x1 PUSH1 0xA0 SHL MUL PUSH1 0xFF PUSH1 0xA0 SHL NOT SWAP1 SWAP3 AND SWAP2 SWAP1 SWAP2 OR SWAP1 SSTORE PUSH1 0x3 DUP1 SLOAD PUSH1 0x1 PUSH1 0x1 PUSH1 0xA0 SHL SUB NOT AND CALLER SWAP1 DUP2 OR SWAP1 SWAP2 SSTORE TIMESTAMP PUSH1 0x5 SSTORE PUSH2 0x8CE SWAP1 DUP8 DUP8 PUSH2 0x12B5 JUMP JUMPDEST CALLER PUSH1 0x0 SWAP1 DUP2 MSTORE PUSH1 0xD PUSH1 0x20 MSTORE PUSH1 0x40 DUP2 KECCAK256 SLOAD DUP4 GT ISZERO PUSH2 0xB58 JUMPI POP PUSH1 0x0 PUSH2 0x7DD JUMP JUMPDEST CALLER PUSH1 0x0 SWAP1 DUP2 MSTORE PUSH1 0xD PUSH1 0x20 MSTORE PUSH1 0x40 SWAP1 KECCAK256 SLOAD PUSH2 0xB73 SWAP1 DUP5 SWAP1 PUSH2 0x17B1 JUMP JUMPDEST CALLER PUSH1 0x0 SWAP1 DUP2 MSTORE PUSH1 0xD PUSH1 0x20 MSTORE PUSH1 0x40 SWAP1 KECCAK256 SLOAD LT PUSH2 0xC2A JUMPI CALLER PUSH1 0x0 SWAP1 DUP2 MSTORE PUSH1 0xD PUSH1 0x20 MSTORE PUSH1 0x40 DUP2 KECCAK256 DUP1 SLOAD DUP6 SWAP3 SWAP1 PUSH2 0xBA7 SWAP1 DUP5 SWAP1 PUSH2 0x17B1 JUMP JUMPDEST SWAP1 SWAP2 SSTORE POP POP PUSH1 0x40 MLOAD PUSH1 0x1 PUSH1 0x1 PUSH1 0xA0 SHL SUB DUP6 AND SWAP1 DUP5 ISZERO PUSH2 0x8FC MUL SWAP1 DUP6 SWAP1 PUSH1 0x0 DUP2 DUP2 DUP2 DUP6 DUP9 DUP9 CALL SWAP4 POP POP POP POP ISZERO DUP1 ISZERO PUSH2 0xBE2 JUMPI RETURNDATASIZE PUSH1 0x0 DUP1 RETURNDATACOPY RETURNDATASIZE PUSH1 0x0 REVERT JUMPDEST POP PUSH2 0xBEE DUP3 PUSH1 0x1 PUSH2 0x17FF JUMP JUMPDEST PUSH1 0x1 DUP1 SLOAD PUSH1 0xFF SWAP3 SWAP1 SWAP3 AND PUSH1 0x1 PUSH1 0xA0 SHL MUL PUSH1 0xFF PUSH1 0xA0 SHL NOT SWAP1 SWAP3 AND SWAP2 SWAP1 SWAP2 OR DUP2 SSTORE PUSH1 0x3 DUP1 SLOAD PUSH1 0x1 PUSH1 0x1 PUSH1 0xA0 SHL SUB NOT AND CALLER OR SWAP1 SSTORE TIMESTAMP PUSH1 0x5 SSTORE SWAP1 POP PUSH2 0x7DD JUMP JUMPDEST POP PUSH1 0x0 SWAP4 SWAP3 POP POP POP JUMP JUMPDEST PUSH1 0x8 SLOAD PUSH1 0x0 SWAP1 PUSH1 0x1 PUSH1 0x1 PUSH1 0xA0 SHL SUB AND CALLER EQ PUSH2 0xC51 JUMPI POP PUSH1 0x0 PUSH2 0xA61 JUMP JUMPDEST DUP3 ISZERO PUSH2 0xCA3 JUMPI PUSH1 0x7 DUP4 SWAP1 SSTORE PUSH2 0xC67 DUP3 PUSH1 0x1 PUSH2 0x17FF JUMP JUMPDEST PUSH1 0x1 DUP1 SLOAD PUSH1 0xFF SWAP3 SWAP1 SWAP3 AND PUSH1 0x1 PUSH1 0xA0 SHL MUL PUSH1 0xFF PUSH1 0xA0 SHL NOT SWAP1 SWAP3 AND SWAP2 SWAP1 SWAP2 OR DUP2 SSTORE PUSH1 0x3 DUP1 SLOAD PUSH1 0x1 PUSH1 0x1 PUSH1 0xA0 SHL SUB NOT AND CALLER OR SWAP1 SSTORE TIMESTAMP PUSH1 0x5 SSTORE SWAP1 POP PUSH2 0xA61 JUMP JUMPDEST POP PUSH1 0x0 SWAP3 SWAP2 POP POP JUMP JUMPDEST PUSH1 0x0 DUP1 SLOAD PUSH1 0x40 MLOAD PUSH4 0x70A08231 PUSH1 0xE0 SHL DUP2 MSTORE PUSH1 0x1 PUSH1 0x1 PUSH1 0xA0 SHL SUB DUP5 DUP2 AND PUSH1 0x4 DUP4 ADD MSTORE SWAP1 SWAP2 AND SWAP1 DUP2 SWAP1 PUSH4 0x70A08231 SWAP1 PUSH1 0x24 ADD PUSH1 0x20 PUSH1 0x40 MLOAD DUP1 DUP4 SUB DUP2 DUP7 GAS STATICCALL ISZERO DUP1 ISZERO PUSH2 0xCF9 JUMPI RETURNDATASIZE PUSH1 0x0 DUP1 RETURNDATACOPY RETURNDATASIZE PUSH1 0x0 REVERT JUMPDEST POP POP POP POP PUSH1 0x40 MLOAD RETURNDATASIZE PUSH1 0x1F NOT PUSH1 0x1F DUP3 ADD AND DUP3 ADD DUP1 PUSH1 0x40 MSTORE POP DUP2 ADD SWAP1 PUSH2 0x7DD SWAP2 SWAP1 PUSH2 0x1841 JUMP JUMPDEST PUSH1 0x60 DUP1 PUSH1 0x0 DUP1 PUSH1 0x0 DUP1 PUSH1 0x0 DUP1 PUSH1 0x0 DUP1 PUSH1 0x0 SWAP1 SLOAD SWAP1 PUSH2 0x100 EXP SWAP1 DIV PUSH1 0x1 PUSH1 0x1 PUSH1 0xA0 SHL SUB AND SWAP1 POP PUSH1 0x0 DUP2 PUSH1 0x1 PUSH1 0x1 PUSH1 0xA0 SHL SUB AND PUSH4 0x17D7DE7C PUSH1 0x40 MLOAD DUP2 PUSH4 0xFFFFFFFF AND PUSH1 0xE0 SHL DUP2 MSTORE PUSH1 0x4 ADD PUSH1 0x0 PUSH1 0x40 MLOAD DUP1 DUP4 SUB DUP2 DUP7 GAS STATICCALL ISZERO DUP1 ISZERO PUSH2 0xD82 JUMPI RETURNDATASIZE PUSH1 0x0 DUP1 RETURNDATACOPY RETURNDATASIZE PUSH1 0x0 REVERT JUMPDEST POP POP POP POP PUSH1 0x40 MLOAD RETURNDATASIZE PUSH1 0x0 DUP3 RETURNDATACOPY PUSH1 0x1F RETURNDATASIZE SWAP1 DUP2 ADD PUSH1 0x1F NOT AND DUP3 ADD PUSH1 0x40 MSTORE PUSH2 0xDAA SWAP2 SWAP1 DUP2 ADD SWAP1 PUSH2 0x1870 JUMP JUMPDEST SWAP1 POP PUSH1 0x0 DUP3 PUSH1 0x1 PUSH1 0x1 PUSH1 0xA0 SHL SUB AND PUSH4 0x15070401 PUSH1 0x40 MLOAD DUP2 PUSH4 0xFFFFFFFF AND PUSH1 0xE0 SHL DUP2 MSTORE PUSH1 0x4 ADD PUSH1 0x0 PUSH1 0x40 MLOAD DUP1 DUP4 SUB DUP2 DUP7 GAS STATICCALL ISZERO DUP1 ISZERO PUSH2 0xDEC JUMPI RETURNDATASIZE PUSH1 0x0 DUP1 RETURNDATACOPY RETURNDATASIZE PUSH1 0x0 REVERT JUMPDEST POP POP POP POP PUSH1 0x40 MLOAD RETURNDATASIZE PUSH1 0x0 DUP3 RETURNDATACOPY PUSH1 0x1F RETURNDATASIZE SWAP1 DUP2 ADD PUSH1 0x1F NOT AND DUP3 ADD PUSH1 0x40 MSTORE PUSH2 0xE14 SWAP2 SWAP1 DUP2 ADD SWAP1 PUSH2 0x1870 JUMP JUMPDEST SWAP1 POP PUSH1 0x0 DUP4 PUSH1 0x1 PUSH1 0x1 PUSH1 0xA0 SHL SUB AND PUSH4 0xC4E41B22 PUSH1 0x40 MLOAD DUP2 PUSH4 0xFFFFFFFF AND PUSH1 0xE0 SHL DUP2 MSTORE PUSH1 0x4 ADD PUSH1 0x20 PUSH1 0x40 MLOAD DUP1 DUP4 SUB DUP2 DUP7 GAS STATICCALL ISZERO DUP1 ISZERO PUSH2 0xE56 JUMPI RETURNDATASIZE PUSH1 0x0 DUP1 RETURNDATACOPY RETURNDATASIZE PUSH1 0x0 REVERT JUMPDEST POP POP POP POP PUSH1 0x40 MLOAD RETURNDATASIZE PUSH1 0x1F NOT PUSH1 0x1F DUP3 ADD AND DUP3 ADD DUP1 PUSH1 0x40 MSTORE POP DUP2 ADD SWAP1 PUSH2 0xE7A SWAP2 SWAP1 PUSH2 0x1841 JUMP JUMPDEST SWAP1 POP DUP3 DUP3 DUP3 PUSH1 0x1 PUSH1 0x14 SWAP1 SLOAD SWAP1 PUSH2 0x100 EXP SWAP1 DIV PUSH1 0xFF AND PUSH1 0x2 PUSH1 0x0 SWAP1 SLOAD SWAP1 PUSH2 0x100 EXP SWAP1 DIV PUSH1 0x1 PUSH1 0x1 PUSH1 0xA0 SHL SUB AND PUSH1 0x3 PUSH1 0x0 SWAP1 SLOAD SWAP1 PUSH2 0x100 EXP SWAP1 DIV PUSH1 0x1 PUSH1 0x1 PUSH1 0xA0 SHL SUB AND PUSH1 0x4 SLOAD PUSH1 0x5 SLOAD SWAP12 POP SWAP12 POP SWAP12 POP SWAP12 POP SWAP12 POP SWAP12 POP SWAP12 POP SWAP12 POP POP POP POP POP SWAP1 SWAP2 SWAP3 SWAP4 SWAP5 SWAP6 SWAP7 SWAP8 JUMP JUMPDEST PUSH1 0x0 DUP1 SLOAD PUSH1 0x40 MLOAD PUSH4 0xAED65F5 PUSH1 0xE1 SHL DUP2 MSTORE CALLER PUSH1 0x4 DUP3 ADD MSTORE PUSH1 0x1 PUSH1 0x1 PUSH1 0xA0 SHL SUB DUP8 DUP2 AND PUSH1 0x24 DUP4 ADD MSTORE DUP7 DUP2 AND PUSH1 0x44 DUP4 ADD MSTORE PUSH1 0x64 DUP3 ADD DUP7 SWAP1 MSTORE SWAP1 SWAP2 AND SWAP1 DUP3 SWAP1 DUP3 SWAP1 PUSH4 0x15DACBEA SWAP1 PUSH1 0x84 ADD PUSH1 0x20 PUSH1 0x40 MLOAD DUP1 DUP4 SUB DUP2 PUSH1 0x0 DUP8 GAS CALL ISZERO DUP1 ISZERO PUSH2 0xF45 JUMPI RETURNDATASIZE PUSH1 0x0 DUP1 RETURNDATACOPY RETURNDATASIZE PUSH1 0x0 REVERT JUMPDEST POP POP POP POP PUSH1 0x40 MLOAD RETURNDATASIZE PUSH1 0x1F NOT PUSH1 0x1F DUP3 ADD AND DUP3 ADD DUP1 PUSH1 0x40 MSTORE POP DUP2 ADD SWAP1 PUSH2 0xF69 SWAP2 SWAP1 PUSH2 0x1824 JUMP JUMPDEST SWAP1 POP DUP1 ISZERO PUSH2 0x9C2 JUMPI PUSH2 0xF7C DUP5 PUSH1 0x1 PUSH2 0x17FF JUMP JUMPDEST PUSH1 0x1 DUP1 SLOAD PUSH1 0xFF SWAP3 SWAP1 SWAP3 AND PUSH1 0x1 PUSH1 0xA0 SHL MUL PUSH1 0xFF PUSH1 0xA0 SHL NOT SWAP1 SWAP3 AND SWAP2 SWAP1 SWAP2 OR SWAP1 SSTORE PUSH1 0x3 DUP1 SLOAD PUSH1 0x1 PUSH1 0x1 PUSH1 0xA0 SHL SUB NOT AND CALLER OR SWAP1 SSTORE TIMESTAMP PUSH1 0x5 SSTORE PUSH2 0xFC3 DUP7 PUSH2 0xFBE DUP2 PUSH2 0xCAC JUMP JUMPDEST PUSH2 0x11CD JUMP JUMPDEST PUSH2 0xFD0 DUP8 PUSH2 0xFBE DUP10 PUSH2 0xCAC JUMP JUMPDEST PUSH2 0x9C2 DUP8 CALLER DUP8 PUSH2 0x13ED JUMP JUMPDEST PUSH1 0x0 DUP1 SLOAD PUSH1 0x1 PUSH1 0x1 PUSH1 0xA0 SHL SUB AND DUP3 ISZERO PUSH2 0xFF2 JUMPI CALLER SWAP4 POP JUMPDEST PUSH1 0x40 MLOAD PUSH4 0x17D57599 PUSH1 0xE3 SHL DUP2 MSTORE PUSH1 0x0 SWAP1 PUSH1 0x1 PUSH1 0x1 PUSH1 0xA0 SHL SUB DUP4 AND SWAP1 PUSH4 0xBEABACC8 SWAP1 PUSH2 0x1025 SWAP1 DUP9 SWAP1 DUP13 SWAP1 DUP13 SWAP1 PUSH1 0x4 ADD PUSH2 0x16AC JUMP JUMPDEST PUSH1 0x20 PUSH1 0x40 MLOAD DUP1 DUP4 SUB DUP2 PUSH1 0x0 DUP8 GAS CALL ISZERO DUP1 ISZERO PUSH2 0x1044 JUMPI RETURNDATASIZE PUSH1 0x0 DUP1 RETURNDATACOPY RETURNDATASIZE PUSH1 0x0 REVERT JUMPDEST POP POP POP POP PUSH1 0x40 MLOAD RETURNDATASIZE PUSH1 0x1F NOT PUSH1 0x1F DUP3 ADD AND DUP3 ADD DUP1 PUSH1 0x40 MSTORE POP DUP2 ADD SWAP1 PUSH2 0x1068 SWAP2 SWAP1 PUSH2 0x1824 JUMP JUMPDEST SWAP1 POP DUP1 ISZERO PUSH2 0x10CA JUMPI PUSH2 0x107B DUP7 PUSH1 0x1 PUSH2 0x17FF JUMP JUMPDEST PUSH1 0x1 DUP1 SLOAD PUSH1 0xFF SWAP3 SWAP1 SWAP3 AND PUSH1 0x1 PUSH1 0xA0 SHL MUL PUSH1 0xFF PUSH1 0xA0 SHL NOT SWAP1 SWAP3 AND SWAP2 SWAP1 SWAP2 OR SWAP1 SSTORE PUSH1 0x3 DUP1 SLOAD PUSH1 0x1 PUSH1 0x1 PUSH1 0xA0 SHL SUB NOT AND CALLER OR SWAP1 SSTORE TIMESTAMP PUSH1 0x5 SSTORE PUSH2 0x10BD DUP9 PUSH2 0xFBE DUP2 PUSH2 0xCAC JUMP JUMPDEST PUSH2 0x10CA DUP6 PUSH2 0xFBE DUP8 PUSH2 0xCAC JUMP JUMPDEST SWAP8 SWAP7 POP POP POP POP POP POP POP JUMP JUMPDEST PUSH1 0x8 SLOAD PUSH1 0x0 SWAP1 PUSH1 0x1 PUSH1 0x1 PUSH1 0xA0 SHL SUB AND CALLER EQ PUSH2 0x10F2 JUMPI POP PUSH1 0x0 PUSH2 0x7DD JUMP JUMPDEST PUSH1 0x0 PUSH2 0x10FD DUP6 PUSH2 0xCAC JUMP JUMPDEST SWAP1 POP DUP3 DUP2 LT ISZERO PUSH2 0x1111 JUMPI PUSH1 0x0 SWAP2 POP POP PUSH2 0x7DD JUMP JUMPDEST POP POP PUSH1 0x8 DUP1 SLOAD PUSH1 0x1 PUSH1 0x1 PUSH1 0xA0 SHL SUB NOT AND PUSH1 0x1 PUSH1 0x1 PUSH1 0xA0 SHL SUB SWAP5 SWAP1 SWAP5 AND SWAP4 SWAP1 SWAP4 OR SWAP1 SWAP3 SSTORE PUSH1 0x6 SWAP2 SWAP1 SWAP2 SSTORE PUSH1 0x7 SSTORE PUSH1 0x1 SWAP1 JUMP JUMPDEST PUSH1 0x0 DUP1 SLOAD PUSH1 0x40 MLOAD PUSH4 0x70A08231 PUSH1 0xE0 SHL DUP2 MSTORE PUSH1 0x1 PUSH1 0x1 PUSH1 0xA0 SHL SUB DUP5 DUP2 AND PUSH1 0x4 DUP4 ADD MSTORE DUP4 SWAP3 AND SWAP1 DUP2 SWAP1 PUSH4 0x70A08231 SWAP1 PUSH1 0x24 ADD PUSH1 0x20 PUSH1 0x40 MLOAD DUP1 DUP4 SUB DUP2 DUP7 GAS STATICCALL ISZERO DUP1 ISZERO PUSH2 0x118F JUMPI RETURNDATASIZE PUSH1 0x0 DUP1 RETURNDATACOPY RETURNDATASIZE PUSH1 0x0 REVERT JUMPDEST POP POP POP POP PUSH1 0x40 MLOAD RETURNDATASIZE PUSH1 0x1F NOT PUSH1 0x1F DUP3 ADD AND DUP3 ADD DUP1 PUSH1 0x40 MSTORE POP DUP2 ADD SWAP1 PUSH2 0x11B3 SWAP2 SWAP1 PUSH2 0x1841 JUMP JUMPDEST PUSH1 0x1 PUSH1 0x14 SWAP1 SLOAD SWAP1 PUSH2 0x100 EXP SWAP1 DIV PUSH1 0xFF AND SWAP3 POP SWAP3 POP POP SWAP2 POP SWAP2 JUMP JUMPDEST PUSH1 0x0 DUP1 JUMPDEST PUSH1 0xA SLOAD PUSH1 0xFF SWAP1 DUP2 AND SWAP1 DUP3 AND LT ISZERO PUSH2 0x1236 JUMPI PUSH1 0xFF DUP2 AND PUSH1 0x0 SWAP1 DUP2 MSTORE PUSH1 0x9 PUSH1 0x20 MSTORE PUSH1 0x40 SWAP1 KECCAK256 SLOAD PUSH1 0x1 PUSH1 0x1 PUSH1 0xA0 SHL SUB DUP1 DUP7 AND SWAP2 AND SUB PUSH2 0x1224 JUMPI PUSH1 0xFF DUP2 AND PUSH1 0x0 SWAP1 DUP2 MSTORE PUSH1 0x9 PUSH1 0x20 MSTORE PUSH1 0x40 SWAP1 KECCAK256 PUSH1 0x1 SWAP1 DUP2 ADD DUP5 SWAP1 SSTORE SWAP2 POP JUMPDEST DUP1 PUSH2 0x122E DUP2 PUSH2 0x1912 JUMP JUMPDEST SWAP2 POP POP PUSH2 0x11D1 JUMP JUMPDEST POP DUP1 PUSH2 0x12B0 JUMPI PUSH1 0x40 DUP1 MLOAD DUP1 DUP3 ADD DUP3 MSTORE PUSH1 0x1 PUSH1 0x1 PUSH1 0xA0 SHL SUB DUP6 DUP2 AND DUP3 MSTORE PUSH1 0x20 DUP1 DUP4 ADD DUP7 DUP2 MSTORE PUSH1 0xA DUP1 SLOAD PUSH1 0xFF SWAP1 DUP2 AND PUSH1 0x0 SWAP1 DUP2 MSTORE PUSH1 0x9 SWAP1 SWAP5 MSTORE SWAP6 SWAP1 SWAP3 KECCAK256 SWAP4 MLOAD DUP5 SLOAD PUSH1 0x1 PUSH1 0x1 PUSH1 0xA0 SHL SUB NOT AND SWAP4 AND SWAP3 SWAP1 SWAP3 OR DUP4 SSTORE SWAP1 MLOAD PUSH1 0x1 SWAP3 DUP4 ADD SSTORE SLOAD PUSH2 0x129B SWAP3 AND SWAP1 PUSH2 0x17FF JUMP JUMPDEST PUSH1 0xA DUP1 SLOAD PUSH1 0xFF NOT AND PUSH1 0xFF SWAP3 SWAP1 SWAP3 AND SWAP2 SWAP1 SWAP2 OR SWAP1 SSTORE JUMPDEST POP POP POP JUMP JUMPDEST PUSH1 0x0 DUP1 JUMPDEST PUSH1 0xC SLOAD PUSH1 0xFF SWAP1 DUP2 AND SWAP1 DUP3 AND LT ISZERO PUSH2 0x134B JUMPI PUSH1 0xFF DUP2 AND PUSH1 0x0 SWAP1 DUP2 MSTORE PUSH1 0xB PUSH1 0x20 MSTORE PUSH1 0x40 SWAP1 KECCAK256 SLOAD PUSH1 0x1 PUSH1 0x1 PUSH1 0xA0 SHL SUB DUP7 DUP2 AND SWAP2 AND EQ DUP1 ISZERO PUSH2 0x1317 JUMPI POP PUSH1 0xFF DUP2 AND PUSH1 0x0 SWAP1 DUP2 MSTORE PUSH1 0xB PUSH1 0x20 MSTORE PUSH1 0x40 SWAP1 KECCAK256 PUSH1 0x1 ADD SLOAD PUSH1 0x1 PUSH1 0x1 PUSH1 0xA0 SHL SUB DUP6 DUP2 AND SWAP2 AND EQ JUMPDEST ISZERO PUSH2 0x1339 JUMPI PUSH1 0xFF DUP2 AND PUSH1 0x0 SWAP1 DUP2 MSTORE PUSH1 0xB PUSH1 0x20 MSTORE PUSH1 0x40 SWAP1 KECCAK256 PUSH1 0x2 ADD DUP4 SWAP1 SSTORE PUSH1 0x1 SWAP2 POP JUMPDEST DUP1 PUSH2 0x1343 DUP2 PUSH2 0x1912 JUMP JUMPDEST SWAP2 POP POP PUSH2 0x12B9 JUMP JUMPDEST POP DUP1 PUSH2 0x13E7 JUMPI PUSH1 0x40 DUP1 MLOAD PUSH1 0x60 DUP2 ADD DUP3 MSTORE PUSH1 0x1 PUSH1 0x1 PUSH1 0xA0 SHL SUB DUP1 DUP8 AND DUP3 MSTORE DUP6 DUP2 AND PUSH1 0x20 DUP1 DUP5 ADD SWAP2 DUP3 MSTORE DUP4 DUP6 ADD DUP8 DUP2 MSTORE PUSH1 0xC DUP1 SLOAD PUSH1 0xFF SWAP1 DUP2 AND PUSH1 0x0 SWAP1 DUP2 MSTORE PUSH1 0xB SWAP1 SWAP5 MSTORE SWAP7 SWAP1 SWAP3 KECCAK256 SWAP5 MLOAD DUP6 SLOAD SWAP1 DUP6 AND PUSH1 0x1 PUSH1 0x1 PUSH1 0xA0 SHL SUB NOT SWAP2 DUP3 AND OR DUP7 SSTORE SWAP3 MLOAD PUSH1 0x1 DUP7 DUP2 ADD DUP1 SLOAD SWAP3 SWAP1 SWAP7 AND SWAP2 SWAP1 SWAP5 AND OR SWAP1 SWAP4 SSTORE SWAP2 MLOAD PUSH1 0x2 SWAP1 SWAP4 ADD SWAP3 SWAP1 SWAP3 SSTORE SLOAD PUSH2 0x13D2 SWAP3 AND SWAP1 PUSH2 0x17FF JUMP JUMPDEST PUSH1 0xC DUP1 SLOAD PUSH1 0xFF NOT AND PUSH1 0xFF SWAP3 SWAP1 SWAP3 AND SWAP2 SWAP1 SWAP2 OR SWAP1 SSTORE JUMPDEST POP POP POP POP JUMP JUMPDEST PUSH1 0x0 JUMPDEST PUSH1 0xC SLOAD PUSH1 0xFF SWAP1 DUP2 AND SWAP1 DUP3 AND LT ISZERO PUSH2 0x13E7 JUMPI PUSH1 0xFF DUP2 AND PUSH1 0x0 SWAP1 DUP2 MSTORE PUSH1 0xB PUSH1 0x20 MSTORE PUSH1 0x40 SWAP1 KECCAK256 SLOAD PUSH1 0x1 PUSH1 0x1 PUSH1 0xA0 SHL SUB DUP6 DUP2 AND SWAP2 AND EQ DUP1 ISZERO PUSH2 0x144E JUMPI POP PUSH1 0xFF DUP2 AND PUSH1 0x0 SWAP1 DUP2 MSTORE PUSH1 0xB PUSH1 0x20 MSTORE PUSH1 0x40 SWAP1 KECCAK256 PUSH1 0x1 ADD SLOAD PUSH1 0x1 PUSH1 0x1 PUSH1 0xA0 SHL SUB DUP5 DUP2 AND SWAP2 AND EQ JUMPDEST ISZERO PUSH2 0x148B JUMPI PUSH1 0xFF DUP2 AND PUSH1 0x0 SWAP1 DUP2 MSTORE PUSH1 0xB PUSH1 0x20 MSTORE PUSH1 0x40 SWAP1 KECCAK256 PUSH1 0x2 ADD SLOAD PUSH2 0x1474 SWAP1 DUP4 SWAP1 PUSH2 0x17B1 JUMP JUMPDEST PUSH1 0xFF DUP3 AND PUSH1 0x0 SWAP1 DUP2 MSTORE PUSH1 0xB PUSH1 0x20 MSTORE PUSH1 0x40 SWAP1 KECCAK256 PUSH1 0x2 ADD SSTORE JUMPDEST DUP1 PUSH2 0x1495 DUP2 PUSH2 0x1912 JUMP JUMPDEST SWAP2 POP POP PUSH2 0x13F0 JUMP JUMPDEST DUP1 CALLDATALOAD PUSH1 0xFF DUP2 AND DUP2 EQ PUSH2 0x14AE JUMPI PUSH1 0x0 DUP1 REVERT JUMPDEST SWAP2 SWAP1 POP JUMP JUMPDEST PUSH1 0x0 DUP1 PUSH1 0x0 PUSH1 0x60 DUP5 DUP7 SUB SLT ISZERO PUSH2 0x14C8 JUMPI PUSH1 0x0 DUP1 REVERT JUMPDEST DUP4 CALLDATALOAD SWAP3 POP PUSH1 0x20 DUP5 ADD CALLDATALOAD SWAP2 POP PUSH2 0x14DF PUSH1 0x40 DUP6 ADD PUSH2 0x149D JUMP JUMPDEST SWAP1 POP SWAP3 POP SWAP3 POP SWAP3 JUMP JUMPDEST PUSH1 0x0 PUSH1 0x20 DUP3 DUP5 SUB SLT ISZERO PUSH2 0x14FA JUMPI PUSH1 0x0 DUP1 REVERT JUMPDEST PUSH2 0x7DD DUP3 PUSH2 0x149D JUMP JUMPDEST PUSH1 0x1 PUSH1 0x1 PUSH1 0xA0 SHL SUB DUP2 AND DUP2 EQ PUSH2 0x1518 JUMPI PUSH1 0x0 DUP1 REVERT JUMPDEST POP JUMP JUMPDEST PUSH1 0x0 DUP1 PUSH1 0x0 PUSH1 0x60 DUP5 DUP7 SUB SLT ISZERO PUSH2 0x1530 JUMPI PUSH1 0x0 DUP1 REVERT JUMPDEST DUP4 CALLDATALOAD PUSH2 0x153B DUP2 PUSH2 0x1503 JUMP JUMPDEST SWAP3 POP PUSH1 0x20 DUP5 ADD CALLDATALOAD SWAP2 POP PUSH2 0x14DF PUSH1 0x40 DUP6 ADD PUSH2 0x149D JUMP JUMPDEST PUSH1 0x0 DUP1 PUSH1 0x0 DUP1 PUSH1 0x80 DUP6 DUP8 SUB SLT ISZERO PUSH2 0x1566 JUMPI PUSH1 0x0 DUP1 REVERT JUMPDEST DUP5 CALLDATALOAD PUSH2 0x1571 DUP2 PUSH2 0x1503 JUMP JUMPDEST SWAP4 POP PUSH1 0x20 DUP6 ADD CALLDATALOAD PUSH2 0x1581 DUP2 PUSH2 0x1503 JUMP JUMPDEST SWAP3 POP PUSH1 0x40 DUP6 ADD CALLDATALOAD SWAP2 POP PUSH2 0x1596 PUSH1 0x60 DUP7 ADD PUSH2 0x149D JUMP JUMPDEST SWAP1 POP SWAP3 SWAP6 SWAP2 SWAP5 POP SWAP3 POP JUMP JUMPDEST PUSH1 0x0 DUP1 PUSH1 0x40 DUP4 DUP6 SUB SLT ISZERO PUSH2 0x15B4 JUMPI PUSH1 0x0 DUP1 REVERT JUMPDEST DUP3 CALLDATALOAD SWAP2 POP PUSH2 0x15C4 PUSH1 0x20 DUP5 ADD PUSH2 0x149D JUMP JUMPDEST SWAP1 POP SWAP3 POP SWAP3 SWAP1 POP JUMP JUMPDEST PUSH1 0x0 PUSH1 0x20 DUP3 DUP5 SUB SLT ISZERO PUSH2 0x15DF JUMPI PUSH1 0x0 DUP1 REVERT JUMPDEST DUP2 CALLDATALOAD PUSH2 0x7DD DUP2 PUSH2 0x1503 JUMP JUMPDEST PUSH1 0x0 JUMPDEST DUP4 DUP2 LT ISZERO PUSH2 0x1605 JUMPI DUP2 DUP2 ADD MLOAD DUP4 DUP3 ADD MSTORE PUSH1 0x20 ADD PUSH2 0x15ED JUMP JUMPDEST DUP4 DUP2 GT ISZERO PUSH2 0x13E7 JUMPI POP POP PUSH1 0x0 SWAP2 ADD MSTORE JUMP JUMPDEST PUSH1 0x0 DUP2 MLOAD DUP1 DUP5 MSTORE PUSH2 0x162E DUP2 PUSH1 0x20 DUP7 ADD PUSH1 0x20 DUP7 ADD PUSH2 0x15EA JUMP JUMPDEST PUSH1 0x1F ADD PUSH1 0x1F NOT AND SWAP3 SWAP1 SWAP3 ADD PUSH1 0x20 ADD SWAP3 SWAP2 POP POP JUMP JUMPDEST PUSH1 0x0 PUSH2 0x100 DUP1 DUP4 MSTORE PUSH2 0x1656 DUP2 DUP5 ADD DUP13 PUSH2 0x1616 JUMP JUMPDEST SWAP1 POP DUP3 DUP2 SUB PUSH1 0x20 DUP5 ADD MSTORE PUSH2 0x166A DUP2 DUP12 PUSH2 0x1616 JUMP JUMPDEST PUSH1 0x40 DUP5 ADD SWAP10 SWAP1 SWAP10 MSTORE POP POP PUSH1 0xFF SWAP6 SWAP1 SWAP6 AND PUSH1 0x60 DUP7 ADD MSTORE PUSH1 0x1 PUSH1 0x1 PUSH1 0xA0 SHL SUB SWAP4 DUP5 AND PUSH1 0x80 DUP7 ADD MSTORE SWAP2 SWAP1 SWAP3 AND PUSH1 0xA0 DUP5 ADD MSTORE PUSH1 0xC0 DUP4 ADD SWAP2 SWAP1 SWAP2 MSTORE PUSH1 0xE0 SWAP1 SWAP2 ADD MSTORE SWAP3 SWAP2 POP POP JUMP JUMPDEST PUSH1 0x1 PUSH1 0x1 PUSH1 0xA0 SHL SUB SWAP4 DUP5 AND DUP2 MSTORE SWAP2 SWAP1 SWAP3 AND PUSH1 0x20 DUP3 ADD MSTORE PUSH1 0x40 DUP2 ADD SWAP2 SWAP1 SWAP2 MSTORE PUSH1 0x60 ADD SWAP1 JUMP JUMPDEST DUP1 ISZERO ISZERO DUP2 EQ PUSH2 0x1518 JUMPI PUSH1 0x0 DUP1 REVERT JUMPDEST PUSH1 0x0 DUP1 PUSH1 0x0 DUP1 PUSH1 0x0 PUSH1 0xA0 DUP7 DUP9 SUB SLT ISZERO PUSH2 0x16F6 JUMPI PUSH1 0x0 DUP1 REVERT JUMPDEST DUP6 CALLDATALOAD PUSH2 0x1701 DUP2 PUSH2 0x1503 JUMP JUMPDEST SWAP5 POP PUSH1 0x20 DUP7 ADD CALLDATALOAD SWAP4 POP PUSH2 0x1716 PUSH1 0x40 DUP8 ADD PUSH2 0x149D JUMP JUMPDEST SWAP3 POP PUSH1 0x60 DUP7 ADD CALLDATALOAD PUSH2 0x1726 DUP2 PUSH2 0x1503 JUMP JUMPDEST SWAP2 POP PUSH1 0x80 DUP7 ADD CALLDATALOAD PUSH2 0x1736 DUP2 PUSH2 0x16D0 JUMP JUMPDEST DUP1 SWAP2 POP POP SWAP3 SWAP6 POP SWAP3 SWAP6 SWAP1 SWAP4 POP JUMP JUMPDEST PUSH1 0x0 DUP1 PUSH1 0x0 PUSH1 0x60 DUP5 DUP7 SUB SLT ISZERO PUSH2 0x1759 JUMPI PUSH1 0x0 DUP1 REVERT JUMPDEST DUP4 CALLDATALOAD PUSH2 0x1764 DUP2 PUSH2 0x1503 JUMP JUMPDEST SWAP6 PUSH1 0x20 DUP6 ADD CALLDATALOAD SWAP6 POP PUSH1 0x40 SWAP1 SWAP5 ADD CALLDATALOAD SWAP4 SWAP3 POP POP POP JUMP JUMPDEST PUSH4 0x4E487B71 PUSH1 0xE0 SHL PUSH1 0x0 MSTORE PUSH1 0x11 PUSH1 0x4 MSTORE PUSH1 0x24 PUSH1 0x0 REVERT JUMPDEST PUSH1 0x0 DUP3 PUSH2 0x17AC JUMPI PUSH4 0x4E487B71 PUSH1 0xE0 SHL PUSH1 0x0 MSTORE PUSH1 0x12 PUSH1 0x4 MSTORE PUSH1 0x24 PUSH1 0x0 REVERT JUMPDEST POP DIV SWAP1 JUMP JUMPDEST PUSH1 0x0 DUP3 DUP3 LT ISZERO PUSH2 0x17C3 JUMPI PUSH2 0x17C3 PUSH2 0x1779 JUMP JUMPDEST POP SUB SWAP1 JUMP JUMPDEST PUSH1 0x0 DUP2 PUSH1 0x0 NOT DIV DUP4 GT DUP3 ISZERO ISZERO AND ISZERO PUSH2 0x17E2 JUMPI PUSH2 0x17E2 PUSH2 0x1779 JUMP JUMPDEST POP MUL SWAP1 JUMP JUMPDEST PUSH1 0x0 DUP3 NOT DUP3 GT ISZERO PUSH2 0x17FA JUMPI PUSH2 0x17FA PUSH2 0x1779 JUMP JUMPDEST POP ADD SWAP1 JUMP JUMPDEST PUSH1 0x0 PUSH1 0xFF DUP3 AND PUSH1 0xFF DUP5 AND DUP1 PUSH1 0xFF SUB DUP3 GT ISZERO PUSH2 0x181C JUMPI PUSH2 0x181C PUSH2 0x1779 JUMP JUMPDEST ADD SWAP4 SWAP3 POP POP POP JUMP JUMPDEST PUSH1 0x0 PUSH1 0x20 DUP3 DUP5 SUB SLT ISZERO PUSH2 0x1836 JUMPI PUSH1 0x0 DUP1 REVERT JUMPDEST DUP2 MLOAD PUSH2 0x7DD DUP2 PUSH2 0x16D0 JUMP JUMPDEST PUSH1 0x0 PUSH1 0x20 DUP3 DUP5 SUB SLT ISZERO PUSH2 0x1853 JUMPI PUSH1 0x0 DUP1 REVERT JUMPDEST POP MLOAD SWAP2 SWAP1 POP JUMP JUMPDEST PUSH4 0x4E487B71 PUSH1 0xE0 SHL PUSH1 0x0 MSTORE PUSH1 0x41 PUSH1 0x4 MSTORE PUSH1 0x24 PUSH1 0x0 REVERT JUMPDEST PUSH1 0x0 PUSH1 0x20 DUP3 DUP5 SUB SLT ISZERO PUSH2 0x1882 JUMPI PUSH1 0x0 DUP1 REVERT JUMPDEST DUP2 MLOAD PUSH8 0xFFFFFFFFFFFFFFFF DUP1 DUP3 GT ISZERO PUSH2 0x189A JUMPI PUSH1 0x0 DUP1 REVERT JUMPDEST DUP2 DUP5 ADD SWAP2 POP DUP5 PUSH1 0x1F DUP4 ADD SLT PUSH2 0x18AE JUMPI PUSH1 0x0 DUP1 REVERT JUMPDEST DUP2 MLOAD DUP2 DUP2 GT ISZERO PUSH2 0x18C0 JUMPI PUSH2 0x18C0 PUSH2 0x185A JUMP JUMPDEST PUSH1 0x40 MLOAD PUSH1 0x1F DUP3 ADD PUSH1 0x1F NOT SWAP1 DUP2 AND PUSH1 0x3F ADD AND DUP2 ADD SWAP1 DUP4 DUP3 GT DUP2 DUP4 LT OR ISZERO PUSH2 0x18E8 JUMPI PUSH2 0x18E8 PUSH2 0x185A JUMP JUMPDEST DUP2 PUSH1 0x40 MSTORE DUP3 DUP2 MSTORE DUP8 PUSH1 0x20 DUP5 DUP8 ADD ADD GT ISZERO PUSH2 0x1901 JUMPI PUSH1 0x0 DUP1 REVERT JUMPDEST PUSH2 0x10CA DUP4 PUSH1 0x20 DUP4 ADD PUSH1 0x20 DUP9 ADD PUSH2 0x15EA JUMP JUMPDEST PUSH1 0x0 PUSH1 0xFF DUP3 AND PUSH1 0xFF DUP2 SUB PUSH2 0x1928 JUMPI PUSH2 0x1928 PUSH2 0x1779 JUMP JUMPDEST PUSH1 0x1 ADD SWAP3 SWAP2 POP POP JUMP INVALID LOG2 PUSH5 0x6970667358 0x22 SLT KECCAK256 BALANCE PUSH5 0x67EFDE61D9 0xD1 DUP15 CALLCODE SELFBALANCE DUP15 GASLIMIT 0xF7 CALLVALUE 0x2D RETURNDATACOPY DUP8 DUP10 0xE7 0xE3 0xD3 0x2D PUSH12 0xC7C0A75919D971D264736F6C PUSH4 0x4300080D STOP CALLER ","sha1":"9a3b3a8d2600ccc55098546612c6e31371f3d7fb","source":"pragma solidity ^0.8.3;\n\nimport \"./tokenErc20.sol\";\n\ncontract ProxyErc20 {\n\n    address erc20;\n    address owner_add;\n    uint8 version;\n    address created_by;\n    address last_upd_by;\n    uint created_at;\n    uint last_upd_at;\n    uint tokens;\n    uint priceForToken;\n    address ownerTokens;\n    \n    struct Balance {\n        address owner;\n        uint256 numOfTokens;\n    }\n\n    mapping(uint8=>Balance) public balances;\n    uint8 numBalance = 0;\n\n    struct Allowed {\n        address owner;\n        address delegate;\n        uint256 numOfTokens;\n    }\n\n    mapping(uint8=>Allowed) public allowance;\n    uint8 numAllowed = 0;\n    \n    mapping(address => uint) public balanceExceeds;\n    \n    constructor(address erc20_) public {\n        erc20 = erc20_;\n        version = 1;\n        created_by = msg.sender;\n    \tlast_upd_by = msg.sender;\n    \tcreated_at = block.timestamp;\n    \tlast_upd_at = block.timestamp;\n    \tTokenErc20 token = TokenErc20(erc20);\n        balances[0] = Balance(msg.sender, token.getTotalSupply());\n        numBalance = numBalance + 1;\n        owner_add = msg.sender;\n    }\n    \n    //owner\n    function setSellTokens(uint price, uint numSellTokens, uint8 currentversion) public returns (bool) {\n    \tif(msg.sender != owner_add) {\n    \t\treturn false;\n    \t}\n    \t\n    \t//ver se tem os tokens necessários\n    \tuint256 balance = getOnlyBalance(msg.sender);\n    \t\n    \tif(balance < numSellTokens) {\n    \t\treturn false;\n    \t}\n    \t\n    \townerTokens = msg.sender;\n    \ttokens = numSellTokens;\n    \tpriceForToken = price;\n    \tversion = currentversion + 1;\n    \tlast_upd_by = msg.sender;\n    \tlast_upd_at = block.timestamp;\n    \treturn true;\n    }\n    \n    function getSellDetails() public view returns (address, uint, uint, uint8, address, address, uint, uint){\n    \treturn (ownerTokens, tokens, priceForToken, version, created_by, last_upd_by, created_at, last_upd_at);\n    }\n    \n    function getMyBalanceExceed() public returns (uint, uint8, address, address, uint, uint){\n    \treturn (balanceExceeds[msg.sender], version, created_by, last_upd_by, created_at, last_upd_at);\n    }\n    \n    function setSellTokensOther(address newOwner, uint price, uint numSellTokens) public returns (bool) {\n    \tif(msg.sender != ownerTokens) {\n    \t\treturn false;\n    \t}\n    \t\n    \tuint256 balance = getOnlyBalance(newOwner);\n    \t\n    \tif(balance < numSellTokens) {\n    \t\treturn false;\n    \t}\n    \t\n    \townerTokens = newOwner;\n    \ttokens = numSellTokens;\n    \tpriceForToken = price;\n    \t\n    \treturn true;\n    }\n    \n    function receiveMoney() public payable returns (bool) {\n    \tuint numOfTokens = 0;\n    \tif (priceForToken > 0 && msg.value > 0) {\n    \t\tnumOfTokens = msg.value/priceForToken;\n    \t} else {\n    \t\treturn false;\n    \t}\n    \t\n    \tif(numOfTokens > tokens) {\n    \t\treturn false;\n    \t}\n    \t\n    \tif (transferErc20(msg.sender, numOfTokens, version, ownerTokens, false)) {\n    \t\ttokens -= numOfTokens;\t\n    \t\tbalanceExceeds[msg.sender] += msg.value - (numOfTokens * priceForToken);\n    \t} else {\n    \t\treturn false;\n    \t}\n    \t\n    \treturn true;\n    }\n    \n    function withdrawMoney(address payable _to, uint _amount, uint8 currentversion) public returns (bool) {\n    \tif(_amount > balanceExceeds[msg.sender]) {\n    \t\treturn false;\n    \t}\n    \t\n    \tif(balanceExceeds[msg.sender] >= balanceExceeds[msg.sender] - _amount) {\n    \t\tbalanceExceeds[msg.sender] -= _amount;\n    \t\t_to.transfer(_amount);\n    \t\tversion = currentversion + 1;\n    \t    \tlast_upd_by = msg.sender;\n    \t    \tlast_upd_at = block.timestamp;\n    \t    \treturn true;\n    \t}\n    \t\n    \treturn false;\n    }\n    \n    function setPriceForToken(uint newPrice, uint8 currentversion) public returns (bool) {\n    \tif(msg.sender != ownerTokens) {\n    \t\treturn false;\n    \t}\n    \t\n    \tif(newPrice > 0) {\n    \t    priceForToken = newPrice;\n    \t    version = currentversion + 1;\n    \t    last_upd_by = msg.sender;\n    \t    last_upd_at = block.timestamp;\n    \t    return true;\n    \t}\n    \t\n    \treturn false;\n    }\n    \n    function setTokens(uint newTokens, uint8 currentversion) public returns (bool) {\n    \tif(msg.sender != ownerTokens) {\n    \t\treturn false;\n    \t}\n    \t\n    \tuint256 balance = getOnlyBalance(msg.sender);\n    \t\n    \tif(newTokens > 0 && balance >= newTokens) {\n    \t    tokens = newTokens;\n    \t    version = currentversion + 1;\n    \t    last_upd_by = msg.sender;\n    \t    last_upd_at = block.timestamp;\n    \t    return true;\n    \t}\n    \t\n    \treturn false;\n    }\n    \n    receive() external payable {\n    \treceiveMoney();\n    }\n\n    function setAllowedStruct(address owner_, address delegate_, uint256 numTokens) private {\n        bool find = false;\n        for(uint8 i = 0;i<numAllowed;i++) {\n            if(allowance[i].owner == owner_ && allowance[i].delegate == delegate_) {\n                allowance[i].numOfTokens = numTokens;\n                find = true;\n            }\n        }\n\n        if(!find) {\n            allowance[numAllowed] = Allowed(owner_, delegate_, numTokens);\n            numAllowed = numAllowed + 1;\n        }\n    }\n\n    function setAllowedStructMinus(address owner_, address delegate_, uint256 numTokens) private {\n        for(uint8 i = 0;i<numAllowed;i++) {\n            if(allowance[i].owner == owner_ && allowance[i].delegate == delegate_) {\n                allowance[i].numOfTokens = allowance[i].numOfTokens - numTokens;\n            }\n        }\n    }\n\n    function setBalanceStruct(address owner_, uint256 numTokens) private {\n        bool find = false;\n        for(uint8 i = 0;i<numBalance;i++) {\n            if(balances[i].owner == owner_) {\n                balances[i].numOfTokens = numTokens;\n                find = true;\n            }\n        }\n\n        if(!find) {\n            balances[numBalance] = Balance(owner_, numTokens);\n            numBalance = numBalance + 1;\n        }\n    }\n    \n    function getNameSymbolSupply() public view returns (string memory, string memory, uint256, uint8, address, address, uint, uint){\n    \tTokenErc20 token = TokenErc20(erc20);\n    \tstring memory name = token.getName();\n    \tstring memory symbol = token.getSymbol();\n    \tuint256 supply = token.getTotalSupply();\n    \t\n    \treturn (name, symbol, supply, version, created_by, last_upd_by, created_at, last_upd_at);\n    }\n    \n    function getNumBalances() public view returns(uint8) {\n    \treturn numBalance;\n    }\n\n    function getBalanceStruct(uint8 numBalance_) public view returns(address, uint256, uint8) {\n        return (balances[numBalance_].owner, balances[numBalance_].numOfTokens, version);\n    }\n    \n    function getBalance(address add) public view returns(uint256, uint8) {\n    \tTokenErc20 token = TokenErc20(erc20);\n    \treturn (token.balanceOf(add), version);\n    }\n    \n    function getOnlyBalance(address add) public view returns(uint256) {\n    \tTokenErc20 token = TokenErc20(erc20);\n    \treturn token.balanceOf(add);\n    }\n    \n    //owner\n    function setBalance(address add, uint256 amount, uint8 currentversion) public returns(bool) {\n    \tif(msg.sender != owner_add) {\n    \t\treturn false;\n    \t}\n    \t\n    \tTokenErc20 token = TokenErc20(erc20);\n    \tbool result = token.setBalanceOf(add, amount);\n    \t\n    \tif(result) {\n            version = currentversion + 1;\n    \t    last_upd_by = msg.sender;\n    \t    last_upd_at = block.timestamp;\n    \t    setBalanceStruct(add, amount);\t\n    \t}\n    \t\n    \treturn result;\n    }\n    \n    function approve(address delegate, uint256 numOfTokens, uint8 currentversion) public returns(bool) {\n    \tTokenErc20 token = TokenErc20(erc20);\n    \tbool result = token.approve(msg.sender, delegate, numOfTokens);\n    \t\n    \tif(result) {\n            version = currentversion + 1;\n    \t    last_upd_by = msg.sender;\n    \t    last_upd_at = block.timestamp;\n            setAllowedStruct(msg.sender, delegate, numOfTokens);\n    \t}\n    \t\n    \treturn result;\n    }\n\n    function getNumAllowance() public view returns(uint8) {\n    \treturn numAllowed;\n    }\n\n    function getAllowance(uint8 numAllow) public view returns(address, address, uint256, uint8) {\n    \treturn (allowance[numAllow].owner, allowance[numAllow].delegate, allowance[numAllow].numOfTokens, version);\n    }\n    \n    function transferErc20(address receiver, uint256 numTokens, uint8 currentversion, address owner, bool isSender) public returns (bool) {\n    \tTokenErc20 token = TokenErc20(erc20);\n    \tif (isSender) {\n\t    \towner = msg.sender;\n    \t} \n    \t\n    \tbool result = token.transfer(owner, receiver, numTokens);\n    \t\n    \tif(result) {\n    \t    version = currentversion + 1;\n    \t    last_upd_by = msg.sender;\n    \t    last_upd_at = block.timestamp;\n            setBalanceStruct(receiver, getOnlyBalance(receiver));\n\t    setBalanceStruct(owner, getOnlyBalance(owner));\t\t\t\n    \t}\n    \t\n    \treturn result;\n    }\n    \n    //owner\n    function setAllowance(address owner_, address delegate, uint256 numOfTokens, uint8 currentversion) public returns(bool) {\n    \tif(msg.sender != owner_add) {\n    \t\treturn false;\n    \t}\n    \t\n    \tTokenErc20 token = TokenErc20(erc20);\n    \tbool result = token.setAllowance(owner_, delegate, numOfTokens);\n    \t\n    \tif(result) {\n            version = currentversion + 1;\n    \t    last_upd_by = msg.sender;\n    \t    last_upd_at = block.timestamp;\n            setAllowedStruct(owner_, delegate, numOfTokens);\n    \t}\n    \t\n    \treturn result;\n    }\n    \n    function transferFromErc20(address owner, address buyer, uint256 numTokens, uint8 currentversion) public returns (bool) {\n    \tTokenErc20 token = TokenErc20(erc20);\n    \tbool result = token.transferFrom(msg.sender, owner, buyer, numTokens);\n    \t\n    \tif(result) {\n            version = currentversion + 1;\n    \t    last_upd_by = msg.sender;\n    \t    last_upd_at = block.timestamp;\n    \t    setBalanceStruct(buyer, getOnlyBalance(buyer));\t\n            setBalanceStruct(owner, getOnlyBalance(owner));\n            setAllowedStructMinus(owner, msg.sender, numTokens);\t\t\n    \t}\n    \t\n    \treturn result;\n    }\n}\n","sourcePath":"contracts/proxyErc20.sol","deployment":{"address":"0x32F352131969A8a5D260C94813C85e1363616392","chainid":"42","blockHeight":33165714}}