{"bytecode":"6080604052600a805460ff19908116909155600c805490911690553480156200002757600080fd5b5060405162001aa338038062001aa38339810160408190526200004a91620001c4565b600080546001600160a01b0383166001600160a01b031991821681179092556001805460ff60a01b1916600160a01b1790556002805482163390811790915560038054909216811790915542600481815560059190915560408051808201825292835280516362720d9160e11b81529051602080850193869363c4e41b2293818301939290918290030181865afa158015620000ea573d6000803e3d6000fd5b505050506040513d601f19601f82011682018060405250810190620001109190620001f6565b9052600080526009602090815281517fec8156718a8372b1db44bb411437d0870f3e3790d4a08526d024ce1b0b668f6b80546001600160a01b0319166001600160a01b0390921691909117905501517fec8156718a8372b1db44bb411437d0870f3e3790d4a08526d024ce1b0b668f6c55600a54620001949060ff16600162000210565b600a805460ff9290921660ff199092169190911790555050600180546001600160a01b0319163317905562000244565b600060208284031215620001d757600080fd5b81516001600160a01b0381168114620001ef57600080fd5b9392505050565b6000602082840312156200020957600080fd5b5051919050565b600060ff821660ff84168060ff038211156200023c57634e487b7160e01b600052601160045260246000fd5b019392505050565b61184f80620002546000396000f3fe60806040526004361061012d5760003560e01c80639b63caa2116100ab578063d48761e41161006f578063d48761e414610437578063da19eae014610457578063e1ef9619146104b6578063eefb95d0146104e3578063f811f49e14610503578063f8b2cb4f1461051b57600080fd5b80639b63caa214610342578063a2ab04b714610370578063bf6baa6814610399578063c5512d74146103f1578063cef2aa9a1461041757600080fd5b80636d26ec18116100f25780636d26ec18146102ba57806371f16668146102c2578063769d9bc6146102e25780638996cad314610302578063971861be1461032257600080fd5b806252b9a81461014157806322aa3e2614610176578063581582e7146102005780635b4529891461027a5780635e2521da1461029a57600080fd5b3661013c5761013a610552565b005b600080fd5b34801561014d57600080fd5b5061016161015c36600461139b565b610629565b60405190151581526020015b60405180910390f35b34801561018257600080fd5b506101d26101913660046113d0565b60ff9081166000908152600b60205260409020805460018083015460029093015490546001600160a01b039283169592909316939092600160a01b90041690565b604080516001600160a01b0395861681529490931660208501529183015260ff16606082015260800161016d565b34801561020c57600080fd5b5061025261021b3660046113d0565b60ff9081166000908152600960205260409020805460019182015491546001600160a01b03909116939192600160a01b9091041690565b604080516001600160a01b039094168452602084019290925260ff169082015260600161016d565b34801561028657600080fd5b50610161610295366004611403565b6106cc565b3480156102a657600080fd5b506101616102b5366004611438565b6107bf565b610161610552565b3480156102ce57600080fd5b506101616102dd366004611489565b6108b6565b3480156102ee57600080fd5b506101616102fd366004611403565b61094f565b34801561030e57600080fd5b5061016161031d366004611403565b610a21565b34801561032e57600080fd5b5061016161033d366004611489565b610b1c565b34801561034e57600080fd5b5061036261035d3660046114b5565b610b94565b60405190815260200161016d565b34801561037c57600080fd5b50610385610c05565b60405161016d98979695949392919061152a565b3480156103a557600080fd5b506103e26103b43660046113d0565b600b602052600090815260409020805460018201546002909201546001600160a01b03918216929091169083565b60405161016d93929190611594565b3480156103fd57600080fd5b50600c5460ff165b60405160ff909116815260200161016d565b34801561042357600080fd5b50610161610432366004611438565b610dc7565b34801561044357600080fd5b506101616104523660046115c6565b610ec3565b34801561046357600080fd5b506104976104723660046113d0565b600960205260009081526040902080546001909101546001600160a01b039091169082565b604080516001600160a01b03909316835260208301919091520161016d565b3480156104c257600080fd5b506103626104d13660046114b5565b600d6020526000908152604090205481565b3480156104ef57600080fd5b506101616104fe36600461162c565b610fbd565b34801561050f57600080fd5b50600a5460ff16610405565b34801561052757600080fd5b5061053b6105363660046114b5565b61102a565b6040805192835260ff90911660208301520161016d565b6007546000908190158015906105685750600034115b156105815760075461057a9034611677565b9050610589565b600091505090565b60065481111561059b57600091505090565b6001546008546105c49133918491600160a01b900460ff16906001600160a01b03166000610ec3565b156105815780600660008282546105db9190611699565b90915550506007546105ed90826116b0565b6105f79034611699565b336000908152600d6020526040812080549091906106169084906116cf565b909155506106219050565b600191505090565b6001546000906001600160a01b03163314610646575060006106c5565b600061065133610b94565b9050838110156106655760009150506106c5565b600880546001600160a01b031916331790556006849055600785905561068c8360016116e7565b6001805460ff92909216600160a01b0260ff60a01b19909216919091178155600380546001600160a01b03191633179055426005559150505b9392505050565b6001546000906001600160a01b031633146106e9575060006106c5565b60008054604051635a31887b60e11b81526001600160a01b038781166004830152602482018790529091169190829063b46310f6906044016020604051808303816000875af1158015610740573d6000803e3d6000fd5b505050506040513d601f19601f82011682018060405250810190610764919061170c565b905080156107b6576107778460016116e7565b6001805460ff92909216600160a01b0260ff60a01b19909216919091179055600380546001600160a01b03191633179055426005556107b686866110b5565b95945050505050565b6001546000906001600160a01b031633146107dc575060006108ae565b60008054604051633691826360e21b81526001600160a01b039091169190829063da46098c90610814908a908a908a90600401611594565b6020604051808303816000875af1158015610833573d6000803e3d6000fd5b505050506040513d601f19601f82011682018060405250810190610857919061170c565b905080156108aa5761086a8460016116e7565b6001805460ff92909216600160a01b0260ff60a01b19909216919091179055600380546001600160a01b03191633179055426005556108aa87878761119d565b9150505b949350505050565b6008546000906001600160a01b031633146108d357506000610949565b60006108de33610b94565b90506000841180156108f05750838110155b156109435760068490556109058360016116e7565b6001805460ff92909216600160a01b0260ff60a01b19909216919091178155600380546001600160a01b031916331790554260055591506109499050565b60009150505b92915050565b6000805460405163e1f21c6760e01b81526001600160a01b03909116908290829063e1f21c67906109889033908a908a90600401611594565b6020604051808303816000875af11580156109a7573d6000803e3d6000fd5b505050506040513d601f19601f820116820180604052508101906109cb919061170c565b905080156107b6576109de8460016116e7565b6001805460ff92909216600160a01b0260ff60a01b19909216919091179055600380546001600160a01b03191633908117909155426005556107b690878761119d565b336000908152600d6020526040812054831115610a40575060006106c5565b336000908152600d6020526040902054610a5b908490611699565b336000908152600d602052604090205410610b1257336000908152600d602052604081208054859290610a8f908490611699565b90915550506040516001600160a01b0385169084156108fc029085906000818181858888f19350505050158015610aca573d6000803e3d6000fd5b50610ad68260016116e7565b6001805460ff92909216600160a01b0260ff60a01b19909216919091178155600380546001600160a01b031916331790554260055590506106c5565b5060009392505050565b6008546000906001600160a01b03163314610b3957506000610949565b8215610b8b576007839055610b4f8260016116e7565b6001805460ff92909216600160a01b0260ff60a01b19909216919091178155600380546001600160a01b03191633179055426005559050610949565b50600092915050565b600080546040516370a0823160e01b81526001600160a01b0384811660048301529091169081906370a0823190602401602060405180830381865afa158015610be1573d6000803e3d6000fd5b505050506040513d601f19601f820116820180604052508101906106c59190611729565b60608060008060008060008060008060009054906101000a90046001600160a01b031690506000816001600160a01b03166317d7de7c6040518163ffffffff1660e01b8152600401600060405180830381865afa158015610c6a573d6000803e3d6000fd5b505050506040513d6000823e601f3d908101601f19168201604052610c929190810190611758565b90506000826001600160a01b031663150704016040518163ffffffff1660e01b8152600401600060405180830381865afa158015610cd4573d6000803e3d6000fd5b505050506040513d6000823e601f3d908101601f19168201604052610cfc9190810190611758565b90506000836001600160a01b031663c4e41b226040518163ffffffff1660e01b8152600401602060405180830381865afa158015610d3e573d6000803e3d6000fd5b505050506040513d601f19601f82011682018060405250810190610d629190611729565b9050828282600160149054906101000a900460ff16600260009054906101000a90046001600160a01b0316600360009054906101000a90046001600160a01b03166004546005549b509b509b509b509b509b509b509b50505050509091929394959697565b60008054604051630aed65f560e11b81523360048201526001600160a01b03878116602483015286811660448301526064820186905290911690829082906315dacbea906084016020604051808303816000875af1158015610e2d573d6000803e3d6000fd5b505050506040513d601f19601f82011682018060405250810190610e51919061170c565b905080156108aa57610e648460016116e7565b6001805460ff92909216600160a01b0260ff60a01b19909216919091179055600380546001600160a01b0319163317905542600555610eab86610ea681610b94565b6110b5565b610eb887610ea689610b94565b6108aa8733876112d5565b600080546001600160a01b03168215610eda573393505b6040516317d5759960e31b81526000906001600160a01b0383169063beabacc890610f0d9088908c908c90600401611594565b6020604051808303816000875af1158015610f2c573d6000803e3d6000fd5b505050506040513d601f19601f82011682018060405250810190610f50919061170c565b90508015610fb257610f638660016116e7565b6001805460ff92909216600160a01b0260ff60a01b19909216919091179055600380546001600160a01b0319163317905542600555610fa588610ea681610b94565b610fb285610ea687610b94565b979650505050505050565b6008546000906001600160a01b03163314610fda575060006106c5565b6000610fe585610b94565b905082811015610ff95760009150506106c5565b5050600880546001600160a01b0319166001600160a01b039490941693909317909255600691909155600755600190565b600080546040516370a0823160e01b81526001600160a01b0384811660048301528392169081906370a0823190602401602060405180830381865afa158015611077573d6000803e3d6000fd5b505050506040513d601f19601f8201168201806040525081019061109b9190611729565b600160149054906101000a900460ff169250925050915091565b6000805b600a5460ff908116908216101561111e5760ff81166000908152600960205260409020546001600160a01b0380861691160361110c5760ff81166000908152600960205260409020600190810184905591505b80611116816117fa565b9150506110b9565b5080611198576040805180820182526001600160a01b0385811682526020808301868152600a805460ff9081166000908152600990945295909220935184546001600160a01b03191693169290921783559051600192830155546111839216906116e7565b600a805460ff191660ff929092169190911790555b505050565b6000805b600c5460ff90811690821610156112335760ff81166000908152600b60205260409020546001600160a01b0386811691161480156111ff575060ff81166000908152600b60205260409020600101546001600160a01b038581169116145b156112215760ff81166000908152600b60205260409020600201839055600191505b8061122b816117fa565b9150506111a1565b50806112cf57604080516060810182526001600160a01b0380871682528581166020808401918252838501878152600c805460ff9081166000908152600b90945296909220945185549085166001600160a01b03199182161786559251600186810180549290961691909416179093559151600290930192909255546112ba9216906116e7565b600c805460ff191660ff929092169190911790555b50505050565b60005b600c5460ff90811690821610156112cf5760ff81166000908152600b60205260409020546001600160a01b038581169116148015611336575060ff81166000908152600b60205260409020600101546001600160a01b038481169116145b156113735760ff81166000908152600b602052604090206002015461135c908390611699565b60ff82166000908152600b60205260409020600201555b8061137d816117fa565b9150506112d8565b803560ff8116811461139657600080fd5b919050565b6000806000606084860312156113b057600080fd5b83359250602084013591506113c760408501611385565b90509250925092565b6000602082840312156113e257600080fd5b6106c582611385565b6001600160a01b038116811461140057600080fd5b50565b60008060006060848603121561141857600080fd5b8335611423816113eb565b9250602084013591506113c760408501611385565b6000806000806080858703121561144e57600080fd5b8435611459816113eb565b93506020850135611469816113eb565b92506040850135915061147e60608601611385565b905092959194509250565b6000806040838503121561149c57600080fd5b823591506114ac60208401611385565b90509250929050565b6000602082840312156114c757600080fd5b81356106c5816113eb565b60005b838110156114ed5781810151838201526020016114d5565b838111156112cf5750506000910152565b600081518084526115168160208601602086016114d2565b601f01601f19169290920160200192915050565b600061010080835261153e8184018c6114fe565b90508281036020840152611552818b6114fe565b6040840199909952505060ff9590951660608601526001600160a01b0393841660808601529190921660a084015260c083019190915260e09091015292915050565b6001600160a01b039384168152919092166020820152604081019190915260600190565b801515811461140057600080fd5b600080600080600060a086880312156115de57600080fd5b85356115e9816113eb565b9450602086013593506115fe60408701611385565b9250606086013561160e816113eb565b9150608086013561161e816115b8565b809150509295509295909350565b60008060006060848603121561164157600080fd5b833561164c816113eb565b95602085013595506040909401359392505050565b634e487b7160e01b600052601160045260246000fd5b60008261169457634e487b7160e01b600052601260045260246000fd5b500490565b6000828210156116ab576116ab611661565b500390565b60008160001904831182151516156116ca576116ca611661565b500290565b600082198211156116e2576116e2611661565b500190565b600060ff821660ff84168060ff0382111561170457611704611661565b019392505050565b60006020828403121561171e57600080fd5b81516106c5816115b8565b60006020828403121561173b57600080fd5b5051919050565b634e487b7160e01b600052604160045260246000fd5b60006020828403121561176a57600080fd5b815167ffffffffffffffff8082111561178257600080fd5b818401915084601f83011261179657600080fd5b8151818111156117a8576117a8611742565b604051601f8201601f19908116603f011681019083821181831017156117d0576117d0611742565b816040528281528760208487010111156117e957600080fd5b610fb28360208301602088016114d2565b600060ff821660ff810361181057611810611661565b6001019291505056fea26469706673582212206d424f5c014bafa9798fe49e1070f4210067d9698ea0d96ce65b96e44bc9f7e964736f6c634300080d0033","bytecodeSha1":"a01327c18924948ce5bcf501202fbfa14b44fdf6","type":"contract","abi":[{"inputs":[{"internalType":"address","name":"erc20_","type":"address"}],"stateMutability":"nonpayable","type":"constructor","name":"constructor"},{"inputs":[{"internalType":"uint8","name":"","type":"uint8"}],"name":"allowance","outputs":[{"internalType":"address","name":"owner","type":"address"},{"internalType":"address","name":"delegate","type":"address"},{"internalType":"uint256","name":"numOfTokens","type":"uint256"}],"stateMutability":"view","type":"function"},{"inputs":[{"internalType":"address","name":"delegate","type":"address"},{"internalType":"uint256","name":"numOfTokens","type":"uint256"},{"internalType":"uint8","name":"currentversion","type":"uint8"}],"name":"approve","outputs":[{"internalType":"bool","name":"","type":"bool"}],"stateMutability":"nonpayable","type":"function"},{"inputs":[{"internalType":"address","name":"","type":"address"}],"name":"balanceExceeds","outputs":[{"internalType":"uint256","name":"","type":"uint256"}],"stateMutability":"view","type":"function"},{"inputs":[{"internalType":"uint8","name":"","type":"uint8"}],"name":"balances","outputs":[{"internalType":"address","name":"owner","type":"address"},{"internalType":"uint256","name":"numOfTokens","type":"uint256"}],"stateMutability":"view","type":"function"},{"inputs":[{"internalType":"uint8","name":"numAllow","type":"uint8"}],"name":"getAllowance","outputs":[{"internalType":"address","name":"","type":"address"},{"internalType":"address","name":"","type":"address"},{"internalType":"uint256","name":"","type":"uint256"},{"internalType":"uint8","name":"","type":"uint8"}],"stateMutability":"view","type":"function"},{"inputs":[{"internalType":"address","name":"add","type":"address"}],"name":"getBalance","outputs":[{"internalType":"uint256","name":"","type":"uint256"},{"internalType":"uint8","name":"","type":"uint8"}],"stateMutability":"view","type":"function"},{"inputs":[{"internalType":"uint8","name":"numBalance_","type":"uint8"}],"name":"getBalanceStruct","outputs":[{"internalType":"address","name":"","type":"address"},{"internalType":"uint256","name":"","type":"uint256"},{"internalType":"uint8","name":"","type":"uint8"}],"stateMutability":"view","type":"function"},{"inputs":[],"name":"getNameSymbolSupply","outputs":[{"internalType":"string","name":"","type":"string"},{"internalType":"string","name":"","type":"string"},{"internalType":"uint256","name":"","type":"uint256"},{"internalType":"uint8","name":"","type":"uint8"},{"internalType":"address","name":"","type":"address"},{"internalType":"address","name":"","type":"address"},{"internalType":"uint256","name":"","type":"uint256"},{"internalType":"uint256","name":"","type":"uint256"}],"stateMutability":"view","type":"function"},{"inputs":[],"name":"getNumAllowance","outputs":[{"internalType":"uint8","name":"","type":"uint8"}],"stateMutability":"view","type":"function"},{"inputs":[],"name":"getNumBalances","outputs":[{"internalType":"uint8","name":"","type":"uint8"}],"stateMutability":"view","type":"function"},{"inputs":[{"internalType":"address","name":"add","type":"address"}],"name":"getOnlyBalance","outputs":[{"internalType":"uint256","name":"","type":"uint256"}],"stateMutability":"view","type":"function"},{"inputs":[],"name":"receiveMoney","outputs":[{"internalType":"bool","name":"","type":"bool"}],"stateMutability":"payable","type":"function"},{"inputs":[{"internalType":"address","name":"owner_","type":"address"},{"internalType":"address","name":"delegate","type":"address"},{"internalType":"uint256","name":"numOfTokens","type":"uint256"},{"internalType":"uint8","name":"currentversion","type":"uint8"}],"name":"setAllowance","outputs":[{"internalType":"bool","name":"","type":"bool"}],"stateMutability":"nonpayable","type":"function"},{"inputs":[{"internalType":"address","name":"add","type":"address"},{"internalType":"uint256","name":"amount","type":"uint256"},{"internalType":"uint8","name":"currentversion","type":"uint8"}],"name":"setBalance","outputs":[{"internalType":"bool","name":"","type":"bool"}],"stateMutability":"nonpayable","type":"function"},{"inputs":[{"internalType":"uint256","name":"newPrice","type":"uint256"},{"internalType":"uint8","name":"currentversion","type":"uint8"}],"name":"setPriceForToken","outputs":[{"internalType":"bool","name":"","type":"bool"}],"stateMutability":"nonpayable","type":"function"},{"inputs":[{"internalType":"uint256","name":"price","type":"uint256"},{"internalType":"uint256","name":"numSellTokens","type":"uint256"},{"internalType":"uint8","name":"currentversion","type":"uint8"}],"name":"setSellTokens","outputs":[{"internalType":"bool","name":"","type":"bool"}],"stateMutability":"nonpayable","type":"function"},{"inputs":[{"internalType":"address","name":"newOwner","type":"address"},{"internalType":"uint256","name":"price","type":"uint256"},{"internalType":"uint256","name":"numSellTokens","type":"uint256"}],"name":"setSellTokensOther","outputs":[{"internalType":"bool","name":"","type":"bool"}],"stateMutability":"nonpayable","type":"function"},{"inputs":[{"internalType":"uint256","name":"newTokens","type":"uint256"},{"internalType":"uint8","name":"currentversion","type":"uint8"}],"name":"setTokens","outputs":[{"internalType":"bool","name":"","type":"bool"}],"stateMutability":"nonpayable","type":"function"},{"inputs":[{"internalType":"address","name":"receiver","type":"address"},{"internalType":"uint256","name":"numTokens","type":"uint256"},{"internalType":"uint8","name":"currentversion","type":"uint8"},{"internalType":"address","name":"owner","type":"address"},{"internalType":"bool","name":"isSender","type":"bool"}],"name":"transferErc20","outputs":[{"internalType":"bool","name":"","type":"bool"}],"stateMutability":"nonpayable","type":"function"},{"inputs":[{"internalType":"address","name":"owner","type":"address"},{"internalType":"address","name":"buyer","type":"address"},{"internalType":"uint256","name":"numTokens","type":"uint256"},{"internalType":"uint8","name":"currentversion","type":"uint8"}],"name":"transferFromErc20","outputs":[{"internalType":"bool","name":"","type":"bool"}],"stateMutability":"nonpayable","type":"function"},{"inputs":[{"internalType":"address payable","name":"_to","type":"address"},{"internalType":"uint256","name":"_amount","type":"uint256"},{"internalType":"uint8","name":"currentversion","type":"uint8"}],"name":"withdrawMoney","outputs":[{"internalType":"bool","name":"","type":"bool"}],"stateMutability":"nonpayable","type":"function"},{"stateMutability":"payable","type":"receive"}],"compiler":{"version":"0.8.13+commit.abaa5c0e","evm_version":"istanbul","optimizer":{"enabled":true,"runs":200}},"contractName":"ProxyErc20","language":"Solidity","natspec":{"methods":{},"kind":"dev","version":1},"opcodes":"PUSH1 0x80 PUSH1 0x40 MSTORE PUSH1 0x4 CALLDATASIZE LT PUSH2 0x12D JUMPI PUSH1 0x0 CALLDATALOAD PUSH1 0xE0 SHR DUP1 PUSH4 0x9B63CAA2 GT PUSH2 0xAB JUMPI DUP1 PUSH4 0xD48761E4 GT PUSH2 0x6F JUMPI DUP1 PUSH4 0xD48761E4 EQ PUSH2 0x437 JUMPI DUP1 PUSH4 0xDA19EAE0 EQ PUSH2 0x457 JUMPI DUP1 PUSH4 0xE1EF9619 EQ PUSH2 0x4B6 JUMPI DUP1 PUSH4 0xEEFB95D0 EQ PUSH2 0x4E3 JUMPI DUP1 PUSH4 0xF811F49E EQ PUSH2 0x503 JUMPI DUP1 PUSH4 0xF8B2CB4F EQ PUSH2 0x51B JUMPI PUSH1 0x0 DUP1 REVERT JUMPDEST DUP1 PUSH4 0x9B63CAA2 EQ PUSH2 0x342 JUMPI DUP1 PUSH4 0xA2AB04B7 EQ PUSH2 0x370 JUMPI DUP1 PUSH4 0xBF6BAA68 EQ PUSH2 0x399 JUMPI DUP1 PUSH4 0xC5512D74 EQ PUSH2 0x3F1 JUMPI DUP1 PUSH4 0xCEF2AA9A EQ PUSH2 0x417 JUMPI PUSH1 0x0 DUP1 REVERT JUMPDEST DUP1 PUSH4 0x6D26EC18 GT PUSH2 0xF2 JUMPI DUP1 PUSH4 0x6D26EC18 EQ PUSH2 0x2BA JUMPI DUP1 PUSH4 0x71F16668 EQ PUSH2 0x2C2 JUMPI DUP1 PUSH4 0x769D9BC6 EQ PUSH2 0x2E2 JUMPI DUP1 PUSH4 0x8996CAD3 EQ PUSH2 0x302 JUMPI DUP1 PUSH4 0x971861BE EQ PUSH2 0x322 JUMPI PUSH1 0x0 DUP1 REVERT JUMPDEST DUP1 PUSH3 0x52B9A8 EQ PUSH2 0x141 JUMPI DUP1 PUSH4 0x22AA3E26 EQ PUSH2 0x176 JUMPI DUP1 PUSH4 0x581582E7 EQ PUSH2 0x200 JUMPI DUP1 PUSH4 0x5B452989 EQ PUSH2 0x27A JUMPI DUP1 PUSH4 0x5E2521DA EQ PUSH2 0x29A JUMPI PUSH1 0x0 DUP1 REVERT JUMPDEST CALLDATASIZE PUSH2 0x13C JUMPI PUSH2 0x13A PUSH2 0x552 JUMP JUMPDEST STOP JUMPDEST PUSH1 0x0 DUP1 REVERT JUMPDEST CALLVALUE DUP1 ISZERO PUSH2 0x14D JUMPI PUSH1 0x0 DUP1 REVERT JUMPDEST POP PUSH2 0x161 PUSH2 0x15C CALLDATASIZE PUSH1 0x4 PUSH2 0x139B JUMP JUMPDEST PUSH2 0x629 JUMP JUMPDEST PUSH1 0x40 MLOAD SWAP1 ISZERO ISZERO DUP2 MSTORE PUSH1 0x20 ADD JUMPDEST PUSH1 0x40 MLOAD DUP1 SWAP2 SUB SWAP1 RETURN JUMPDEST CALLVALUE DUP1 ISZERO PUSH2 0x182 JUMPI PUSH1 0x0 DUP1 REVERT JUMPDEST POP PUSH2 0x1D2 PUSH2 0x191 CALLDATASIZE PUSH1 0x4 PUSH2 0x13D0 JUMP JUMPDEST PUSH1 0xFF SWAP1 DUP2 AND PUSH1 0x0 SWAP1 DUP2 MSTORE PUSH1 0xB PUSH1 0x20 MSTORE PUSH1 0x40 SWAP1 KECCAK256 DUP1 SLOAD PUSH1 0x1 DUP1 DUP4 ADD SLOAD PUSH1 0x2 SWAP1 SWAP4 ADD SLOAD SWAP1 SLOAD PUSH1 0x1 PUSH1 0x1 PUSH1 0xA0 SHL SUB SWAP3 DUP4 AND SWAP6 SWAP3 SWAP1 SWAP4 AND SWAP4 SWAP1 SWAP3 PUSH1 0x1 PUSH1 0xA0 SHL SWAP1 DIV AND SWAP1 JUMP JUMPDEST PUSH1 0x40 DUP1 MLOAD PUSH1 0x1 PUSH1 0x1 PUSH1 0xA0 SHL SUB SWAP6 DUP7 AND DUP2 MSTORE SWAP5 SWAP1 SWAP4 AND PUSH1 0x20 DUP6 ADD MSTORE SWAP2 DUP4 ADD MSTORE PUSH1 0xFF AND PUSH1 0x60 DUP3 ADD MSTORE PUSH1 0x80 ADD PUSH2 0x16D JUMP JUMPDEST CALLVALUE DUP1 ISZERO PUSH2 0x20C JUMPI PUSH1 0x0 DUP1 REVERT JUMPDEST POP PUSH2 0x252 PUSH2 0x21B CALLDATASIZE PUSH1 0x4 PUSH2 0x13D0 JUMP JUMPDEST PUSH1 0xFF SWAP1 DUP2 AND PUSH1 0x0 SWAP1 DUP2 MSTORE PUSH1 0x9 PUSH1 0x20 MSTORE PUSH1 0x40 SWAP1 KECCAK256 DUP1 SLOAD PUSH1 0x1 SWAP2 DUP3 ADD SLOAD SWAP2 SLOAD PUSH1 0x1 PUSH1 0x1 PUSH1 0xA0 SHL SUB SWAP1 SWAP2 AND SWAP4 SWAP2 SWAP3 PUSH1 0x1 PUSH1 0xA0 SHL SWAP1 SWAP2 DIV AND SWAP1 JUMP JUMPDEST PUSH1 0x40 DUP1 MLOAD PUSH1 0x1 PUSH1 0x1 PUSH1 0xA0 SHL SUB SWAP1 SWAP5 AND DUP5 MSTORE PUSH1 0x20 DUP5 ADD SWAP3 SWAP1 SWAP3 MSTORE PUSH1 0xFF AND SWAP1 DUP3 ADD MSTORE PUSH1 0x60 ADD PUSH2 0x16D JUMP JUMPDEST CALLVALUE DUP1 ISZERO PUSH2 0x286 JUMPI PUSH1 0x0 DUP1 REVERT JUMPDEST POP PUSH2 0x161 PUSH2 0x295 CALLDATASIZE PUSH1 0x4 PUSH2 0x1403 JUMP JUMPDEST PUSH2 0x6CC JUMP JUMPDEST CALLVALUE DUP1 ISZERO PUSH2 0x2A6 JUMPI PUSH1 0x0 DUP1 REVERT JUMPDEST POP PUSH2 0x161 PUSH2 0x2B5 CALLDATASIZE PUSH1 0x4 PUSH2 0x1438 JUMP JUMPDEST PUSH2 0x7BF JUMP JUMPDEST PUSH2 0x161 PUSH2 0x552 JUMP JUMPDEST CALLVALUE DUP1 ISZERO PUSH2 0x2CE JUMPI PUSH1 0x0 DUP1 REVERT JUMPDEST POP PUSH2 0x161 PUSH2 0x2DD CALLDATASIZE PUSH1 0x4 PUSH2 0x1489 JUMP JUMPDEST PUSH2 0x8B6 JUMP JUMPDEST CALLVALUE DUP1 ISZERO PUSH2 0x2EE JUMPI PUSH1 0x0 DUP1 REVERT JUMPDEST POP PUSH2 0x161 PUSH2 0x2FD CALLDATASIZE PUSH1 0x4 PUSH2 0x1403 JUMP JUMPDEST PUSH2 0x94F JUMP JUMPDEST CALLVALUE DUP1 ISZERO PUSH2 0x30E JUMPI PUSH1 0x0 DUP1 REVERT JUMPDEST POP PUSH2 0x161 PUSH2 0x31D CALLDATASIZE PUSH1 0x4 PUSH2 0x1403 JUMP JUMPDEST PUSH2 0xA21 JUMP JUMPDEST CALLVALUE DUP1 ISZERO PUSH2 0x32E JUMPI PUSH1 0x0 DUP1 REVERT JUMPDEST POP PUSH2 0x161 PUSH2 0x33D CALLDATASIZE PUSH1 0x4 PUSH2 0x1489 JUMP JUMPDEST PUSH2 0xB1C JUMP JUMPDEST CALLVALUE DUP1 ISZERO PUSH2 0x34E JUMPI PUSH1 0x0 DUP1 REVERT JUMPDEST POP PUSH2 0x362 PUSH2 0x35D CALLDATASIZE PUSH1 0x4 PUSH2 0x14B5 JUMP JUMPDEST PUSH2 0xB94 JUMP JUMPDEST PUSH1 0x40 MLOAD SWAP1 DUP2 MSTORE PUSH1 0x20 ADD PUSH2 0x16D JUMP JUMPDEST CALLVALUE DUP1 ISZERO PUSH2 0x37C JUMPI PUSH1 0x0 DUP1 REVERT JUMPDEST POP PUSH2 0x385 PUSH2 0xC05 JUMP JUMPDEST PUSH1 0x40 MLOAD PUSH2 0x16D SWAP9 SWAP8 SWAP7 SWAP6 SWAP5 SWAP4 SWAP3 SWAP2 SWAP1 PUSH2 0x152A JUMP JUMPDEST CALLVALUE DUP1 ISZERO PUSH2 0x3A5 JUMPI PUSH1 0x0 DUP1 REVERT JUMPDEST POP PUSH2 0x3E2 PUSH2 0x3B4 CALLDATASIZE PUSH1 0x4 PUSH2 0x13D0 JUMP JUMPDEST PUSH1 0xB PUSH1 0x20 MSTORE PUSH1 0x0 SWAP1 DUP2 MSTORE PUSH1 0x40 SWAP1 KECCAK256 DUP1 SLOAD PUSH1 0x1 DUP3 ADD SLOAD PUSH1 0x2 SWAP1 SWAP3 ADD SLOAD PUSH1 0x1 PUSH1 0x1 PUSH1 0xA0 SHL SUB SWAP2 DUP3 AND SWAP3 SWAP1 SWAP2 AND SWAP1 DUP4 JUMP JUMPDEST PUSH1 0x40 MLOAD PUSH2 0x16D SWAP4 SWAP3 SWAP2 SWAP1 PUSH2 0x1594 JUMP JUMPDEST CALLVALUE DUP1 ISZERO PUSH2 0x3FD JUMPI PUSH1 0x0 DUP1 REVERT JUMPDEST POP PUSH1 0xC SLOAD PUSH1 0xFF AND JUMPDEST PUSH1 0x40 MLOAD PUSH1 0xFF SWAP1 SWAP2 AND DUP2 MSTORE PUSH1 0x20 ADD PUSH2 0x16D JUMP JUMPDEST CALLVALUE DUP1 ISZERO PUSH2 0x423 JUMPI PUSH1 0x0 DUP1 REVERT JUMPDEST POP PUSH2 0x161 PUSH2 0x432 CALLDATASIZE PUSH1 0x4 PUSH2 0x1438 JUMP JUMPDEST PUSH2 0xDC7 JUMP JUMPDEST CALLVALUE DUP1 ISZERO PUSH2 0x443 JUMPI PUSH1 0x0 DUP1 REVERT JUMPDEST POP PUSH2 0x161 PUSH2 0x452 CALLDATASIZE PUSH1 0x4 PUSH2 0x15C6 JUMP JUMPDEST PUSH2 0xEC3 JUMP JUMPDEST CALLVALUE DUP1 ISZERO PUSH2 0x463 JUMPI PUSH1 0x0 DUP1 REVERT JUMPDEST POP PUSH2 0x497 PUSH2 0x472 CALLDATASIZE PUSH1 0x4 PUSH2 0x13D0 JUMP JUMPDEST PUSH1 0x9 PUSH1 0x20 MSTORE PUSH1 0x0 SWAP1 DUP2 MSTORE PUSH1 0x40 SWAP1 KECCAK256 DUP1 SLOAD PUSH1 0x1 SWAP1 SWAP2 ADD SLOAD PUSH1 0x1 PUSH1 0x1 PUSH1 0xA0 SHL SUB SWAP1 SWAP2 AND SWAP1 DUP3 JUMP JUMPDEST PUSH1 0x40 DUP1 MLOAD PUSH1 0x1 PUSH1 0x1 PUSH1 0xA0 SHL SUB SWAP1 SWAP4 AND DUP4 MSTORE PUSH1 0x20 DUP4 ADD SWAP2 SWAP1 SWAP2 MSTORE ADD PUSH2 0x16D JUMP JUMPDEST CALLVALUE DUP1 ISZERO PUSH2 0x4C2 JUMPI PUSH1 0x0 DUP1 REVERT JUMPDEST POP PUSH2 0x362 PUSH2 0x4D1 CALLDATASIZE PUSH1 0x4 PUSH2 0x14B5 JUMP JUMPDEST PUSH1 0xD PUSH1 0x20 MSTORE PUSH1 0x0 SWAP1 DUP2 MSTORE PUSH1 0x40 SWAP1 KECCAK256 SLOAD DUP2 JUMP JUMPDEST CALLVALUE DUP1 ISZERO PUSH2 0x4EF JUMPI PUSH1 0x0 DUP1 REVERT JUMPDEST POP PUSH2 0x161 PUSH2 0x4FE CALLDATASIZE PUSH1 0x4 PUSH2 0x162C JUMP JUMPDEST PUSH2 0xFBD JUMP JUMPDEST CALLVALUE DUP1 ISZERO PUSH2 0x50F JUMPI PUSH1 0x0 DUP1 REVERT JUMPDEST POP PUSH1 0xA SLOAD PUSH1 0xFF AND PUSH2 0x405 JUMP JUMPDEST CALLVALUE DUP1 ISZERO PUSH2 0x527 JUMPI PUSH1 0x0 DUP1 REVERT JUMPDEST POP PUSH2 0x53B PUSH2 0x536 CALLDATASIZE PUSH1 0x4 PUSH2 0x14B5 JUMP JUMPDEST PUSH2 0x102A JUMP JUMPDEST PUSH1 0x40 DUP1 MLOAD SWAP3 DUP4 MSTORE PUSH1 0xFF SWAP1 SWAP2 AND PUSH1 0x20 DUP4 ADD MSTORE ADD PUSH2 0x16D JUMP JUMPDEST PUSH1 0x7 SLOAD PUSH1 0x0 SWAP1 DUP2 SWAP1 ISZERO DUP1 ISZERO SWAP1 PUSH2 0x568 JUMPI POP PUSH1 0x0 CALLVALUE GT JUMPDEST ISZERO PUSH2 0x581 JUMPI PUSH1 0x7 SLOAD PUSH2 0x57A SWAP1 CALLVALUE PUSH2 0x1677 JUMP JUMPDEST SWAP1 POP PUSH2 0x589 JUMP JUMPDEST PUSH1 0x0 SWAP2 POP POP SWAP1 JUMP JUMPDEST PUSH1 0x6 SLOAD DUP2 GT ISZERO PUSH2 0x59B JUMPI PUSH1 0x0 SWAP2 POP POP SWAP1 JUMP JUMPDEST PUSH1 0x1 SLOAD PUSH1 0x8 SLOAD PUSH2 0x5C4 SWAP2 CALLER SWAP2 DUP5 SWAP2 PUSH1 0x1 PUSH1 0xA0 SHL SWAP1 DIV PUSH1 0xFF AND SWAP1 PUSH1 0x1 PUSH1 0x1 PUSH1 0xA0 SHL SUB AND PUSH1 0x0 PUSH2 0xEC3 JUMP JUMPDEST ISZERO PUSH2 0x581 JUMPI DUP1 PUSH1 0x6 PUSH1 0x0 DUP3 DUP3 SLOAD PUSH2 0x5DB SWAP2 SWAP1 PUSH2 0x1699 JUMP JUMPDEST SWAP1 SWAP2 SSTORE POP POP PUSH1 0x7 SLOAD PUSH2 0x5ED SWAP1 DUP3 PUSH2 0x16B0 JUMP JUMPDEST PUSH2 0x5F7 SWAP1 CALLVALUE PUSH2 0x1699 JUMP JUMPDEST CALLER PUSH1 0x0 SWAP1 DUP2 MSTORE PUSH1 0xD PUSH1 0x20 MSTORE PUSH1 0x40 DUP2 KECCAK256 DUP1 SLOAD SWAP1 SWAP2 SWAP1 PUSH2 0x616 SWAP1 DUP5 SWAP1 PUSH2 0x16CF JUMP JUMPDEST SWAP1 SWAP2 SSTORE POP PUSH2 0x621 SWAP1 POP JUMP JUMPDEST PUSH1 0x1 SWAP2 POP POP SWAP1 JUMP JUMPDEST PUSH1 0x1 SLOAD PUSH1 0x0 SWAP1 PUSH1 0x1 PUSH1 0x1 PUSH1 0xA0 SHL SUB AND CALLER EQ PUSH2 0x646 JUMPI POP PUSH1 0x0 PUSH2 0x6C5 JUMP JUMPDEST PUSH1 0x0 PUSH2 0x651 CALLER PUSH2 0xB94 JUMP JUMPDEST SWAP1 POP DUP4 DUP2 LT ISZERO PUSH2 0x665 JUMPI PUSH1 0x0 SWAP2 POP POP PUSH2 0x6C5 JUMP JUMPDEST PUSH1 0x8 DUP1 SLOAD PUSH1 0x1 PUSH1 0x1 PUSH1 0xA0 SHL SUB NOT AND CALLER OR SWAP1 SSTORE PUSH1 0x6 DUP5 SWAP1 SSTORE PUSH1 0x7 DUP6 SWAP1 SSTORE PUSH2 0x68C DUP4 PUSH1 0x1 PUSH2 0x16E7 JUMP JUMPDEST PUSH1 0x1 DUP1 SLOAD PUSH1 0xFF SWAP3 SWAP1 SWAP3 AND PUSH1 0x1 PUSH1 0xA0 SHL MUL PUSH1 0xFF PUSH1 0xA0 SHL NOT SWAP1 SWAP3 AND SWAP2 SWAP1 SWAP2 OR DUP2 SSTORE PUSH1 0x3 DUP1 SLOAD PUSH1 0x1 PUSH1 0x1 PUSH1 0xA0 SHL SUB NOT AND CALLER OR SWAP1 SSTORE TIMESTAMP PUSH1 0x5 SSTORE SWAP2 POP POP JUMPDEST SWAP4 SWAP3 POP POP POP JUMP JUMPDEST PUSH1 0x1 SLOAD PUSH1 0x0 SWAP1 PUSH1 0x1 PUSH1 0x1 PUSH1 0xA0 SHL SUB AND CALLER EQ PUSH2 0x6E9 JUMPI POP PUSH1 0x0 PUSH2 0x6C5 JUMP JUMPDEST PUSH1 0x0 DUP1 SLOAD PUSH1 0x40 MLOAD PUSH4 0x5A31887B PUSH1 0xE1 SHL DUP2 MSTORE PUSH1 0x1 PUSH1 0x1 PUSH1 0xA0 SHL SUB DUP8 DUP2 AND PUSH1 0x4 DUP4 ADD MSTORE PUSH1 0x24 DUP3 ADD DUP8 SWAP1 MSTORE SWAP1 SWAP2 AND SWAP2 SWAP1 DUP3 SWAP1 PUSH4 0xB46310F6 SWAP1 PUSH1 0x44 ADD PUSH1 0x20 PUSH1 0x40 MLOAD DUP1 DUP4 SUB DUP2 PUSH1 0x0 DUP8 GAS CALL ISZERO DUP1 ISZERO PUSH2 0x740 JUMPI RETURNDATASIZE PUSH1 0x0 DUP1 RETURNDATACOPY RETURNDATASIZE PUSH1 0x0 REVERT JUMPDEST POP POP POP POP PUSH1 0x40 MLOAD RETURNDATASIZE PUSH1 0x1F NOT PUSH1 0x1F DUP3 ADD AND DUP3 ADD DUP1 PUSH1 0x40 MSTORE POP DUP2 ADD SWAP1 PUSH2 0x764 SWAP2 SWAP1 PUSH2 0x170C JUMP JUMPDEST SWAP1 POP DUP1 ISZERO PUSH2 0x7B6 JUMPI PUSH2 0x777 DUP5 PUSH1 0x1 PUSH2 0x16E7 JUMP JUMPDEST PUSH1 0x1 DUP1 SLOAD PUSH1 0xFF SWAP3 SWAP1 SWAP3 AND PUSH1 0x1 PUSH1 0xA0 SHL MUL PUSH1 0xFF PUSH1 0xA0 SHL NOT SWAP1 SWAP3 AND SWAP2 SWAP1 SWAP2 OR SWAP1 SSTORE PUSH1 0x3 DUP1 SLOAD PUSH1 0x1 PUSH1 0x1 PUSH1 0xA0 SHL SUB NOT AND CALLER OR SWAP1 SSTORE TIMESTAMP PUSH1 0x5 SSTORE PUSH2 0x7B6 DUP7 DUP7 PUSH2 0x10B5 JUMP JUMPDEST SWAP6 SWAP5 POP POP POP POP POP JUMP JUMPDEST PUSH1 0x1 SLOAD PUSH1 0x0 SWAP1 PUSH1 0x1 PUSH1 0x1 PUSH1 0xA0 SHL SUB AND CALLER EQ PUSH2 0x7DC JUMPI POP PUSH1 0x0 PUSH2 0x8AE JUMP JUMPDEST PUSH1 0x0 DUP1 SLOAD PUSH1 0x40 MLOAD PUSH4 0x36918263 PUSH1 0xE2 SHL DUP2 MSTORE PUSH1 0x1 PUSH1 0x1 PUSH1 0xA0 SHL SUB SWAP1 SWAP2 AND SWAP2 SWAP1 DUP3 SWAP1 PUSH4 0xDA46098C SWAP1 PUSH2 0x814 SWAP1 DUP11 SWAP1 DUP11 SWAP1 DUP11 SWAP1 PUSH1 0x4 ADD PUSH2 0x1594 JUMP JUMPDEST PUSH1 0x20 PUSH1 0x40 MLOAD DUP1 DUP4 SUB DUP2 PUSH1 0x0 DUP8 GAS CALL ISZERO DUP1 ISZERO PUSH2 0x833 JUMPI RETURNDATASIZE PUSH1 0x0 DUP1 RETURNDATACOPY RETURNDATASIZE PUSH1 0x0 REVERT JUMPDEST POP POP POP POP PUSH1 0x40 MLOAD RETURNDATASIZE PUSH1 0x1F NOT PUSH1 0x1F DUP3 ADD AND DUP3 ADD DUP1 PUSH1 0x40 MSTORE POP DUP2 ADD SWAP1 PUSH2 0x857 SWAP2 SWAP1 PUSH2 0x170C JUMP JUMPDEST SWAP1 POP DUP1 ISZERO PUSH2 0x8AA JUMPI PUSH2 0x86A DUP5 PUSH1 0x1 PUSH2 0x16E7 JUMP JUMPDEST PUSH1 0x1 DUP1 SLOAD PUSH1 0xFF SWAP3 SWAP1 SWAP3 AND PUSH1 0x1 PUSH1 0xA0 SHL MUL PUSH1 0xFF PUSH1 0xA0 SHL NOT SWAP1 SWAP3 AND SWAP2 SWAP1 SWAP2 OR SWAP1 SSTORE PUSH1 0x3 DUP1 SLOAD PUSH1 0x1 PUSH1 0x1 PUSH1 0xA0 SHL SUB NOT AND CALLER OR SWAP1 SSTORE TIMESTAMP PUSH1 0x5 SSTORE PUSH2 0x8AA DUP8 DUP8 DUP8 PUSH2 0x119D JUMP JUMPDEST SWAP2 POP POP JUMPDEST SWAP5 SWAP4 POP POP POP POP JUMP JUMPDEST PUSH1 0x8 SLOAD PUSH1 0x0 SWAP1 PUSH1 0x1 PUSH1 0x1 PUSH1 0xA0 SHL SUB AND CALLER EQ PUSH2 0x8D3 JUMPI POP PUSH1 0x0 PUSH2 0x949 JUMP JUMPDEST PUSH1 0x0 PUSH2 0x8DE CALLER PUSH2 0xB94 JUMP JUMPDEST SWAP1 POP PUSH1 0x0 DUP5 GT DUP1 ISZERO PUSH2 0x8F0 JUMPI POP DUP4 DUP2 LT ISZERO JUMPDEST ISZERO PUSH2 0x943 JUMPI PUSH1 0x6 DUP5 SWAP1 SSTORE PUSH2 0x905 DUP4 PUSH1 0x1 PUSH2 0x16E7 JUMP JUMPDEST PUSH1 0x1 DUP1 SLOAD PUSH1 0xFF SWAP3 SWAP1 SWAP3 AND PUSH1 0x1 PUSH1 0xA0 SHL MUL PUSH1 0xFF PUSH1 0xA0 SHL NOT SWAP1 SWAP3 AND SWAP2 SWAP1 SWAP2 OR DUP2 SSTORE PUSH1 0x3 DUP1 SLOAD PUSH1 0x1 PUSH1 0x1 PUSH1 0xA0 SHL SUB NOT AND CALLER OR SWAP1 SSTORE TIMESTAMP PUSH1 0x5 SSTORE SWAP2 POP PUSH2 0x949 SWAP1 POP JUMP JUMPDEST PUSH1 0x0 SWAP2 POP POP JUMPDEST SWAP3 SWAP2 POP POP JUMP JUMPDEST PUSH1 0x0 DUP1 SLOAD PUSH1 0x40 MLOAD PUSH4 0xE1F21C67 PUSH1 0xE0 SHL DUP2 MSTORE PUSH1 0x1 PUSH1 0x1 PUSH1 0xA0 SHL SUB SWAP1 SWAP2 AND SWAP1 DUP3 SWAP1 DUP3 SWAP1 PUSH4 0xE1F21C67 SWAP1 PUSH2 0x988 SWAP1 CALLER SWAP1 DUP11 SWAP1 DUP11 SWAP1 PUSH1 0x4 ADD PUSH2 0x1594 JUMP JUMPDEST PUSH1 0x20 PUSH1 0x40 MLOAD DUP1 DUP4 SUB DUP2 PUSH1 0x0 DUP8 GAS CALL ISZERO DUP1 ISZERO PUSH2 0x9A7 JUMPI RETURNDATASIZE PUSH1 0x0 DUP1 RETURNDATACOPY RETURNDATASIZE PUSH1 0x0 REVERT JUMPDEST POP POP POP POP PUSH1 0x40 MLOAD RETURNDATASIZE PUSH1 0x1F NOT PUSH1 0x1F DUP3 ADD AND DUP3 ADD DUP1 PUSH1 0x40 MSTORE POP DUP2 ADD SWAP1 PUSH2 0x9CB SWAP2 SWAP1 PUSH2 0x170C JUMP JUMPDEST SWAP1 POP DUP1 ISZERO PUSH2 0x7B6 JUMPI PUSH2 0x9DE DUP5 PUSH1 0x1 PUSH2 0x16E7 JUMP JUMPDEST PUSH1 0x1 DUP1 SLOAD PUSH1 0xFF SWAP3 SWAP1 SWAP3 AND PUSH1 0x1 PUSH1 0xA0 SHL MUL PUSH1 0xFF PUSH1 0xA0 SHL NOT SWAP1 SWAP3 AND SWAP2 SWAP1 SWAP2 OR SWAP1 SSTORE PUSH1 0x3 DUP1 SLOAD PUSH1 0x1 PUSH1 0x1 PUSH1 0xA0 SHL SUB NOT AND CALLER SWAP1 DUP2 OR SWAP1 SWAP2 SSTORE TIMESTAMP PUSH1 0x5 SSTORE PUSH2 0x7B6 SWAP1 DUP8 DUP8 PUSH2 0x119D JUMP JUMPDEST CALLER PUSH1 0x0 SWAP1 DUP2 MSTORE PUSH1 0xD PUSH1 0x20 MSTORE PUSH1 0x40 DUP2 KECCAK256 SLOAD DUP4 GT ISZERO PUSH2 0xA40 JUMPI POP PUSH1 0x0 PUSH2 0x6C5 JUMP JUMPDEST CALLER PUSH1 0x0 SWAP1 DUP2 MSTORE PUSH1 0xD PUSH1 0x20 MSTORE PUSH1 0x40 SWAP1 KECCAK256 SLOAD PUSH2 0xA5B SWAP1 DUP5 SWAP1 PUSH2 0x1699 JUMP JUMPDEST CALLER PUSH1 0x0 SWAP1 DUP2 MSTORE PUSH1 0xD PUSH1 0x20 MSTORE PUSH1 0x40 SWAP1 KECCAK256 SLOAD LT PUSH2 0xB12 JUMPI CALLER PUSH1 0x0 SWAP1 DUP2 MSTORE PUSH1 0xD PUSH1 0x20 MSTORE PUSH1 0x40 DUP2 KECCAK256 DUP1 SLOAD DUP6 SWAP3 SWAP1 PUSH2 0xA8F SWAP1 DUP5 SWAP1 PUSH2 0x1699 JUMP JUMPDEST SWAP1 SWAP2 SSTORE POP POP PUSH1 0x40 MLOAD PUSH1 0x1 PUSH1 0x1 PUSH1 0xA0 SHL SUB DUP6 AND SWAP1 DUP5 ISZERO PUSH2 0x8FC MUL SWAP1 DUP6 SWAP1 PUSH1 0x0 DUP2 DUP2 DUP2 DUP6 DUP9 DUP9 CALL SWAP4 POP POP POP POP ISZERO DUP1 ISZERO PUSH2 0xACA JUMPI RETURNDATASIZE PUSH1 0x0 DUP1 RETURNDATACOPY RETURNDATASIZE PUSH1 0x0 REVERT JUMPDEST POP PUSH2 0xAD6 DUP3 PUSH1 0x1 PUSH2 0x16E7 JUMP JUMPDEST PUSH1 0x1 DUP1 SLOAD PUSH1 0xFF SWAP3 SWAP1 SWAP3 AND PUSH1 0x1 PUSH1 0xA0 SHL MUL PUSH1 0xFF PUSH1 0xA0 SHL NOT SWAP1 SWAP3 AND SWAP2 SWAP1 SWAP2 OR DUP2 SSTORE PUSH1 0x3 DUP1 SLOAD PUSH1 0x1 PUSH1 0x1 PUSH1 0xA0 SHL SUB NOT AND CALLER OR SWAP1 SSTORE TIMESTAMP PUSH1 0x5 SSTORE SWAP1 POP PUSH2 0x6C5 JUMP JUMPDEST POP PUSH1 0x0 SWAP4 SWAP3 POP POP POP JUMP JUMPDEST PUSH1 0x8 SLOAD PUSH1 0x0 SWAP1 PUSH1 0x1 PUSH1 0x1 PUSH1 0xA0 SHL SUB AND CALLER EQ PUSH2 0xB39 JUMPI POP PUSH1 0x0 PUSH2 0x949 JUMP JUMPDEST DUP3 ISZERO PUSH2 0xB8B JUMPI PUSH1 0x7 DUP4 SWAP1 SSTORE PUSH2 0xB4F DUP3 PUSH1 0x1 PUSH2 0x16E7 JUMP JUMPDEST PUSH1 0x1 DUP1 SLOAD PUSH1 0xFF SWAP3 SWAP1 SWAP3 AND PUSH1 0x1 PUSH1 0xA0 SHL MUL PUSH1 0xFF PUSH1 0xA0 SHL NOT SWAP1 SWAP3 AND SWAP2 SWAP1 SWAP2 OR DUP2 SSTORE PUSH1 0x3 DUP1 SLOAD PUSH1 0x1 PUSH1 0x1 PUSH1 0xA0 SHL SUB NOT AND CALLER OR SWAP1 SSTORE TIMESTAMP PUSH1 0x5 SSTORE SWAP1 POP PUSH2 0x949 JUMP JUMPDEST POP PUSH1 0x0 SWAP3 SWAP2 POP POP JUMP JUMPDEST PUSH1 0x0 DUP1 SLOAD PUSH1 0x40 MLOAD PUSH4 0x70A08231 PUSH1 0xE0 SHL DUP2 MSTORE PUSH1 0x1 PUSH1 0x1 PUSH1 0xA0 SHL SUB DUP5 DUP2 AND PUSH1 0x4 DUP4 ADD MSTORE SWAP1 SWAP2 AND SWAP1 DUP2 SWAP1 PUSH4 0x70A08231 SWAP1 PUSH1 0x24 ADD PUSH1 0x20 PUSH1 0x40 MLOAD DUP1 DUP4 SUB DUP2 DUP7 GAS STATICCALL ISZERO DUP1 ISZERO PUSH2 0xBE1 JUMPI RETURNDATASIZE PUSH1 0x0 DUP1 RETURNDATACOPY RETURNDATASIZE PUSH1 0x0 REVERT JUMPDEST POP POP POP POP PUSH1 0x40 MLOAD RETURNDATASIZE PUSH1 0x1F NOT PUSH1 0x1F DUP3 ADD AND DUP3 ADD DUP1 PUSH1 0x40 MSTORE POP DUP2 ADD SWAP1 PUSH2 0x6C5 SWAP2 SWAP1 PUSH2 0x1729 JUMP JUMPDEST PUSH1 0x60 DUP1 PUSH1 0x0 DUP1 PUSH1 0x0 DUP1 PUSH1 0x0 DUP1 PUSH1 0x0 DUP1 PUSH1 0x0 SWAP1 SLOAD SWAP1 PUSH2 0x100 EXP SWAP1 DIV PUSH1 0x1 PUSH1 0x1 PUSH1 0xA0 SHL SUB AND SWAP1 POP PUSH1 0x0 DUP2 PUSH1 0x1 PUSH1 0x1 PUSH1 0xA0 SHL SUB AND PUSH4 0x17D7DE7C PUSH1 0x40 MLOAD DUP2 PUSH4 0xFFFFFFFF AND PUSH1 0xE0 SHL DUP2 MSTORE PUSH1 0x4 ADD PUSH1 0x0 PUSH1 0x40 MLOAD DUP1 DUP4 SUB DUP2 DUP7 GAS STATICCALL ISZERO DUP1 ISZERO PUSH2 0xC6A JUMPI RETURNDATASIZE PUSH1 0x0 DUP1 RETURNDATACOPY RETURNDATASIZE PUSH1 0x0 REVERT JUMPDEST POP POP POP POP PUSH1 0x40 MLOAD RETURNDATASIZE PUSH1 0x0 DUP3 RETURNDATACOPY PUSH1 0x1F RETURNDATASIZE SWAP1 DUP2 ADD PUSH1 0x1F NOT AND DUP3 ADD PUSH1 0x40 MSTORE PUSH2 0xC92 SWAP2 SWAP1 DUP2 ADD SWAP1 PUSH2 0x1758 JUMP JUMPDEST SWAP1 POP PUSH1 0x0 DUP3 PUSH1 0x1 PUSH1 0x1 PUSH1 0xA0 SHL SUB AND PUSH4 0x15070401 PUSH1 0x40 MLOAD DUP2 PUSH4 0xFFFFFFFF AND PUSH1 0xE0 SHL DUP2 MSTORE PUSH1 0x4 ADD PUSH1 0x0 PUSH1 0x40 MLOAD DUP1 DUP4 SUB DUP2 DUP7 GAS STATICCALL ISZERO DUP1 ISZERO PUSH2 0xCD4 JUMPI RETURNDATASIZE PUSH1 0x0 DUP1 RETURNDATACOPY RETURNDATASIZE PUSH1 0x0 REVERT JUMPDEST POP POP POP POP PUSH1 0x40 MLOAD RETURNDATASIZE PUSH1 0x0 DUP3 RETURNDATACOPY PUSH1 0x1F RETURNDATASIZE SWAP1 DUP2 ADD PUSH1 0x1F NOT AND DUP3 ADD PUSH1 0x40 MSTORE PUSH2 0xCFC SWAP2 SWAP1 DUP2 ADD SWAP1 PUSH2 0x1758 JUMP JUMPDEST SWAP1 POP PUSH1 0x0 DUP4 PUSH1 0x1 PUSH1 0x1 PUSH1 0xA0 SHL SUB AND PUSH4 0xC4E41B22 PUSH1 0x40 MLOAD DUP2 PUSH4 0xFFFFFFFF AND PUSH1 0xE0 SHL DUP2 MSTORE PUSH1 0x4 ADD PUSH1 0x20 PUSH1 0x40 MLOAD DUP1 DUP4 SUB DUP2 DUP7 GAS STATICCALL ISZERO DUP1 ISZERO PUSH2 0xD3E JUMPI RETURNDATASIZE PUSH1 0x0 DUP1 RETURNDATACOPY RETURNDATASIZE PUSH1 0x0 REVERT JUMPDEST POP POP POP POP PUSH1 0x40 MLOAD RETURNDATASIZE PUSH1 0x1F NOT PUSH1 0x1F DUP3 ADD AND DUP3 ADD DUP1 PUSH1 0x40 MSTORE POP DUP2 ADD SWAP1 PUSH2 0xD62 SWAP2 SWAP1 PUSH2 0x1729 JUMP JUMPDEST SWAP1 POP DUP3 DUP3 DUP3 PUSH1 0x1 PUSH1 0x14 SWAP1 SLOAD SWAP1 PUSH2 0x100 EXP SWAP1 DIV PUSH1 0xFF AND PUSH1 0x2 PUSH1 0x0 SWAP1 SLOAD SWAP1 PUSH2 0x100 EXP SWAP1 DIV PUSH1 0x1 PUSH1 0x1 PUSH1 0xA0 SHL SUB AND PUSH1 0x3 PUSH1 0x0 SWAP1 SLOAD SWAP1 PUSH2 0x100 EXP SWAP1 DIV PUSH1 0x1 PUSH1 0x1 PUSH1 0xA0 SHL SUB AND PUSH1 0x4 SLOAD PUSH1 0x5 SLOAD SWAP12 POP SWAP12 POP SWAP12 POP SWAP12 POP SWAP12 POP SWAP12 POP SWAP12 POP SWAP12 POP POP POP POP POP SWAP1 SWAP2 SWAP3 SWAP4 SWAP5 SWAP6 SWAP7 SWAP8 JUMP JUMPDEST PUSH1 0x0 DUP1 SLOAD PUSH1 0x40 MLOAD PUSH4 0xAED65F5 PUSH1 0xE1 SHL DUP2 MSTORE CALLER PUSH1 0x4 DUP3 ADD MSTORE PUSH1 0x1 PUSH1 0x1 PUSH1 0xA0 SHL SUB DUP8 DUP2 AND PUSH1 0x24 DUP4 ADD MSTORE DUP7 DUP2 AND PUSH1 0x44 DUP4 ADD MSTORE PUSH1 0x64 DUP3 ADD DUP7 SWAP1 MSTORE SWAP1 SWAP2 AND SWAP1 DUP3 SWAP1 DUP3 SWAP1 PUSH4 0x15DACBEA SWAP1 PUSH1 0x84 ADD PUSH1 0x20 PUSH1 0x40 MLOAD DUP1 DUP4 SUB DUP2 PUSH1 0x0 DUP8 GAS CALL ISZERO DUP1 ISZERO PUSH2 0xE2D JUMPI RETURNDATASIZE PUSH1 0x0 DUP1 RETURNDATACOPY RETURNDATASIZE PUSH1 0x0 REVERT JUMPDEST POP POP POP POP PUSH1 0x40 MLOAD RETURNDATASIZE PUSH1 0x1F NOT PUSH1 0x1F DUP3 ADD AND DUP3 ADD DUP1 PUSH1 0x40 MSTORE POP DUP2 ADD SWAP1 PUSH2 0xE51 SWAP2 SWAP1 PUSH2 0x170C JUMP JUMPDEST SWAP1 POP DUP1 ISZERO PUSH2 0x8AA JUMPI PUSH2 0xE64 DUP5 PUSH1 0x1 PUSH2 0x16E7 JUMP JUMPDEST PUSH1 0x1 DUP1 SLOAD PUSH1 0xFF SWAP3 SWAP1 SWAP3 AND PUSH1 0x1 PUSH1 0xA0 SHL MUL PUSH1 0xFF PUSH1 0xA0 SHL NOT SWAP1 SWAP3 AND SWAP2 SWAP1 SWAP2 OR SWAP1 SSTORE PUSH1 0x3 DUP1 SLOAD PUSH1 0x1 PUSH1 0x1 PUSH1 0xA0 SHL SUB NOT AND CALLER OR SWAP1 SSTORE TIMESTAMP PUSH1 0x5 SSTORE PUSH2 0xEAB DUP7 PUSH2 0xEA6 DUP2 PUSH2 0xB94 JUMP JUMPDEST PUSH2 0x10B5 JUMP JUMPDEST PUSH2 0xEB8 DUP8 PUSH2 0xEA6 DUP10 PUSH2 0xB94 JUMP JUMPDEST PUSH2 0x8AA DUP8 CALLER DUP8 PUSH2 0x12D5 JUMP JUMPDEST PUSH1 0x0 DUP1 SLOAD PUSH1 0x1 PUSH1 0x1 PUSH1 0xA0 SHL SUB AND DUP3 ISZERO PUSH2 0xEDA JUMPI CALLER SWAP4 POP JUMPDEST PUSH1 0x40 MLOAD PUSH4 0x17D57599 PUSH1 0xE3 SHL DUP2 MSTORE PUSH1 0x0 SWAP1 PUSH1 0x1 PUSH1 0x1 PUSH1 0xA0 SHL SUB DUP4 AND SWAP1 PUSH4 0xBEABACC8 SWAP1 PUSH2 0xF0D SWAP1 DUP9 SWAP1 DUP13 SWAP1 DUP13 SWAP1 PUSH1 0x4 ADD PUSH2 0x1594 JUMP JUMPDEST PUSH1 0x20 PUSH1 0x40 MLOAD DUP1 DUP4 SUB DUP2 PUSH1 0x0 DUP8 GAS CALL ISZERO DUP1 ISZERO PUSH2 0xF2C JUMPI RETURNDATASIZE PUSH1 0x0 DUP1 RETURNDATACOPY RETURNDATASIZE PUSH1 0x0 REVERT JUMPDEST POP POP POP POP PUSH1 0x40 MLOAD RETURNDATASIZE PUSH1 0x1F NOT PUSH1 0x1F DUP3 ADD AND DUP3 ADD DUP1 PUSH1 0x40 MSTORE POP DUP2 ADD SWAP1 PUSH2 0xF50 SWAP2 SWAP1 PUSH2 0x170C JUMP JUMPDEST SWAP1 POP DUP1 ISZERO PUSH2 0xFB2 JUMPI PUSH2 0xF63 DUP7 PUSH1 0x1 PUSH2 0x16E7 JUMP JUMPDEST PUSH1 0x1 DUP1 SLOAD PUSH1 0xFF SWAP3 SWAP1 SWAP3 AND PUSH1 0x1 PUSH1 0xA0 SHL MUL PUSH1 0xFF PUSH1 0xA0 SHL NOT SWAP1 SWAP3 AND SWAP2 SWAP1 SWAP2 OR SWAP1 SSTORE PUSH1 0x3 DUP1 SLOAD PUSH1 0x1 PUSH1 0x1 PUSH1 0xA0 SHL SUB NOT AND CALLER OR SWAP1 SSTORE TIMESTAMP PUSH1 0x5 SSTORE PUSH2 0xFA5 DUP9 PUSH2 0xEA6 DUP2 PUSH2 0xB94 JUMP JUMPDEST PUSH2 0xFB2 DUP6 PUSH2 0xEA6 DUP8 PUSH2 0xB94 JUMP JUMPDEST SWAP8 SWAP7 POP POP POP POP POP POP POP JUMP JUMPDEST PUSH1 0x8 SLOAD PUSH1 0x0 SWAP1 PUSH1 0x1 PUSH1 0x1 PUSH1 0xA0 SHL SUB AND CALLER EQ PUSH2 0xFDA JUMPI POP PUSH1 0x0 PUSH2 0x6C5 JUMP JUMPDEST PUSH1 0x0 PUSH2 0xFE5 DUP6 PUSH2 0xB94 JUMP JUMPDEST SWAP1 POP DUP3 DUP2 LT ISZERO PUSH2 0xFF9 JUMPI PUSH1 0x0 SWAP2 POP POP PUSH2 0x6C5 JUMP JUMPDEST POP POP PUSH1 0x8 DUP1 SLOAD PUSH1 0x1 PUSH1 0x1 PUSH1 0xA0 SHL SUB NOT AND PUSH1 0x1 PUSH1 0x1 PUSH1 0xA0 SHL SUB SWAP5 SWAP1 SWAP5 AND SWAP4 SWAP1 SWAP4 OR SWAP1 SWAP3 SSTORE PUSH1 0x6 SWAP2 SWAP1 SWAP2 SSTORE PUSH1 0x7 SSTORE PUSH1 0x1 SWAP1 JUMP JUMPDEST PUSH1 0x0 DUP1 SLOAD PUSH1 0x40 MLOAD PUSH4 0x70A08231 PUSH1 0xE0 SHL DUP2 MSTORE PUSH1 0x1 PUSH1 0x1 PUSH1 0xA0 SHL SUB DUP5 DUP2 AND PUSH1 0x4 DUP4 ADD MSTORE DUP4 SWAP3 AND SWAP1 DUP2 SWAP1 PUSH4 0x70A08231 SWAP1 PUSH1 0x24 ADD PUSH1 0x20 PUSH1 0x40 MLOAD DUP1 DUP4 SUB DUP2 DUP7 GAS STATICCALL ISZERO DUP1 ISZERO PUSH2 0x1077 JUMPI RETURNDATASIZE PUSH1 0x0 DUP1 RETURNDATACOPY RETURNDATASIZE PUSH1 0x0 REVERT JUMPDEST POP POP POP POP PUSH1 0x40 MLOAD RETURNDATASIZE PUSH1 0x1F NOT PUSH1 0x1F DUP3 ADD AND DUP3 ADD DUP1 PUSH1 0x40 MSTORE POP DUP2 ADD SWAP1 PUSH2 0x109B SWAP2 SWAP1 PUSH2 0x1729 JUMP JUMPDEST PUSH1 0x1 PUSH1 0x14 SWAP1 SLOAD SWAP1 PUSH2 0x100 EXP SWAP1 DIV PUSH1 0xFF AND SWAP3 POP SWAP3 POP POP SWAP2 POP SWAP2 JUMP JUMPDEST PUSH1 0x0 DUP1 JUMPDEST PUSH1 0xA SLOAD PUSH1 0xFF SWAP1 DUP2 AND SWAP1 DUP3 AND LT ISZERO PUSH2 0x111E JUMPI PUSH1 0xFF DUP2 AND PUSH1 0x0 SWAP1 DUP2 MSTORE PUSH1 0x9 PUSH1 0x20 MSTORE PUSH1 0x40 SWAP1 KECCAK256 SLOAD PUSH1 0x1 PUSH1 0x1 PUSH1 0xA0 SHL SUB DUP1 DUP7 AND SWAP2 AND SUB PUSH2 0x110C JUMPI PUSH1 0xFF DUP2 AND PUSH1 0x0 SWAP1 DUP2 MSTORE PUSH1 0x9 PUSH1 0x20 MSTORE PUSH1 0x40 SWAP1 KECCAK256 PUSH1 0x1 SWAP1 DUP2 ADD DUP5 SWAP1 SSTORE SWAP2 POP JUMPDEST DUP1 PUSH2 0x1116 DUP2 PUSH2 0x17FA JUMP JUMPDEST SWAP2 POP POP PUSH2 0x10B9 JUMP JUMPDEST POP DUP1 PUSH2 0x1198 JUMPI PUSH1 0x40 DUP1 MLOAD DUP1 DUP3 ADD DUP3 MSTORE PUSH1 0x1 PUSH1 0x1 PUSH1 0xA0 SHL SUB DUP6 DUP2 AND DUP3 MSTORE PUSH1 0x20 DUP1 DUP4 ADD DUP7 DUP2 MSTORE PUSH1 0xA DUP1 SLOAD PUSH1 0xFF SWAP1 DUP2 AND PUSH1 0x0 SWAP1 DUP2 MSTORE PUSH1 0x9 SWAP1 SWAP5 MSTORE SWAP6 SWAP1 SWAP3 KECCAK256 SWAP4 MLOAD DUP5 SLOAD PUSH1 0x1 PUSH1 0x1 PUSH1 0xA0 SHL SUB NOT AND SWAP4 AND SWAP3 SWAP1 SWAP3 OR DUP4 SSTORE SWAP1 MLOAD PUSH1 0x1 SWAP3 DUP4 ADD SSTORE SLOAD PUSH2 0x1183 SWAP3 AND SWAP1 PUSH2 0x16E7 JUMP JUMPDEST PUSH1 0xA DUP1 SLOAD PUSH1 0xFF NOT AND PUSH1 0xFF SWAP3 SWAP1 SWAP3 AND SWAP2 SWAP1 SWAP2 OR SWAP1 SSTORE JUMPDEST POP POP POP JUMP JUMPDEST PUSH1 0x0 DUP1 JUMPDEST PUSH1 0xC SLOAD PUSH1 0xFF SWAP1 DUP2 AND SWAP1 DUP3 AND LT ISZERO PUSH2 0x1233 JUMPI PUSH1 0xFF DUP2 AND PUSH1 0x0 SWAP1 DUP2 MSTORE PUSH1 0xB PUSH1 0x20 MSTORE PUSH1 0x40 SWAP1 KECCAK256 SLOAD PUSH1 0x1 PUSH1 0x1 PUSH1 0xA0 SHL SUB DUP7 DUP2 AND SWAP2 AND EQ DUP1 ISZERO PUSH2 0x11FF JUMPI POP PUSH1 0xFF DUP2 AND PUSH1 0x0 SWAP1 DUP2 MSTORE PUSH1 0xB PUSH1 0x20 MSTORE PUSH1 0x40 SWAP1 KECCAK256 PUSH1 0x1 ADD SLOAD PUSH1 0x1 PUSH1 0x1 PUSH1 0xA0 SHL SUB DUP6 DUP2 AND SWAP2 AND EQ JUMPDEST ISZERO PUSH2 0x1221 JUMPI PUSH1 0xFF DUP2 AND PUSH1 0x0 SWAP1 DUP2 MSTORE PUSH1 0xB PUSH1 0x20 MSTORE PUSH1 0x40 SWAP1 KECCAK256 PUSH1 0x2 ADD DUP4 SWAP1 SSTORE PUSH1 0x1 SWAP2 POP JUMPDEST DUP1 PUSH2 0x122B DUP2 PUSH2 0x17FA JUMP JUMPDEST SWAP2 POP POP PUSH2 0x11A1 JUMP JUMPDEST POP DUP1 PUSH2 0x12CF JUMPI PUSH1 0x40 DUP1 MLOAD PUSH1 0x60 DUP2 ADD DUP3 MSTORE PUSH1 0x1 PUSH1 0x1 PUSH1 0xA0 SHL SUB DUP1 DUP8 AND DUP3 MSTORE DUP6 DUP2 AND PUSH1 0x20 DUP1 DUP5 ADD SWAP2 DUP3 MSTORE DUP4 DUP6 ADD DUP8 DUP2 MSTORE PUSH1 0xC DUP1 SLOAD PUSH1 0xFF SWAP1 DUP2 AND PUSH1 0x0 SWAP1 DUP2 MSTORE PUSH1 0xB SWAP1 SWAP5 MSTORE SWAP7 SWAP1 SWAP3 KECCAK256 SWAP5 MLOAD DUP6 SLOAD SWAP1 DUP6 AND PUSH1 0x1 PUSH1 0x1 PUSH1 0xA0 SHL SUB NOT SWAP2 DUP3 AND OR DUP7 SSTORE SWAP3 MLOAD PUSH1 0x1 DUP7 DUP2 ADD DUP1 SLOAD SWAP3 SWAP1 SWAP7 AND SWAP2 SWAP1 SWAP5 AND OR SWAP1 SWAP4 SSTORE SWAP2 MLOAD PUSH1 0x2 SWAP1 SWAP4 ADD SWAP3 SWAP1 SWAP3 SSTORE SLOAD PUSH2 0x12BA SWAP3 AND SWAP1 PUSH2 0x16E7 JUMP JUMPDEST PUSH1 0xC DUP1 SLOAD PUSH1 0xFF NOT AND PUSH1 0xFF SWAP3 SWAP1 SWAP3 AND SWAP2 SWAP1 SWAP2 OR SWAP1 SSTORE JUMPDEST POP POP POP POP JUMP JUMPDEST PUSH1 0x0 JUMPDEST PUSH1 0xC SLOAD PUSH1 0xFF SWAP1 DUP2 AND SWAP1 DUP3 AND LT ISZERO PUSH2 0x12CF JUMPI PUSH1 0xFF DUP2 AND PUSH1 0x0 SWAP1 DUP2 MSTORE PUSH1 0xB PUSH1 0x20 MSTORE PUSH1 0x40 SWAP1 KECCAK256 SLOAD PUSH1 0x1 PUSH1 0x1 PUSH1 0xA0 SHL SUB DUP6 DUP2 AND SWAP2 AND EQ DUP1 ISZERO PUSH2 0x1336 JUMPI POP PUSH1 0xFF DUP2 AND PUSH1 0x0 SWAP1 DUP2 MSTORE PUSH1 0xB PUSH1 0x20 MSTORE PUSH1 0x40 SWAP1 KECCAK256 PUSH1 0x1 ADD SLOAD PUSH1 0x1 PUSH1 0x1 PUSH1 0xA0 SHL SUB DUP5 DUP2 AND SWAP2 AND EQ JUMPDEST ISZERO PUSH2 0x1373 JUMPI PUSH1 0xFF DUP2 AND PUSH1 0x0 SWAP1 DUP2 MSTORE PUSH1 0xB PUSH1 0x20 MSTORE PUSH1 0x40 SWAP1 KECCAK256 PUSH1 0x2 ADD SLOAD PUSH2 0x135C SWAP1 DUP4 SWAP1 PUSH2 0x1699 JUMP JUMPDEST PUSH1 0xFF DUP3 AND PUSH1 0x0 SWAP1 DUP2 MSTORE PUSH1 0xB PUSH1 0x20 MSTORE PUSH1 0x40 SWAP1 KECCAK256 PUSH1 0x2 ADD SSTORE JUMPDEST DUP1 PUSH2 0x137D DUP2 PUSH2 0x17FA JUMP JUMPDEST SWAP2 POP POP PUSH2 0x12D8 JUMP JUMPDEST DUP1 CALLDATALOAD PUSH1 0xFF DUP2 AND DUP2 EQ PUSH2 0x1396 JUMPI PUSH1 0x0 DUP1 REVERT JUMPDEST SWAP2 SWAP1 POP JUMP JUMPDEST PUSH1 0x0 DUP1 PUSH1 0x0 PUSH1 0x60 DUP5 DUP7 SUB SLT ISZERO PUSH2 0x13B0 JUMPI PUSH1 0x0 DUP1 REVERT JUMPDEST DUP4 CALLDATALOAD SWAP3 POP PUSH1 0x20 DUP5 ADD CALLDATALOAD SWAP2 POP PUSH2 0x13C7 PUSH1 0x40 DUP6 ADD PUSH2 0x1385 JUMP JUMPDEST SWAP1 POP SWAP3 POP SWAP3 POP SWAP3 JUMP JUMPDEST PUSH1 0x0 PUSH1 0x20 DUP3 DUP5 SUB SLT ISZERO PUSH2 0x13E2 JUMPI PUSH1 0x0 DUP1 REVERT JUMPDEST PUSH2 0x6C5 DUP3 PUSH2 0x1385 JUMP JUMPDEST PUSH1 0x1 PUSH1 0x1 PUSH1 0xA0 SHL SUB DUP2 AND DUP2 EQ PUSH2 0x1400 JUMPI PUSH1 0x0 DUP1 REVERT JUMPDEST POP JUMP JUMPDEST PUSH1 0x0 DUP1 PUSH1 0x0 PUSH1 0x60 DUP5 DUP7 SUB SLT ISZERO PUSH2 0x1418 JUMPI PUSH1 0x0 DUP1 REVERT JUMPDEST DUP4 CALLDATALOAD PUSH2 0x1423 DUP2 PUSH2 0x13EB JUMP JUMPDEST SWAP3 POP PUSH1 0x20 DUP5 ADD CALLDATALOAD SWAP2 POP PUSH2 0x13C7 PUSH1 0x40 DUP6 ADD PUSH2 0x1385 JUMP JUMPDEST PUSH1 0x0 DUP1 PUSH1 0x0 DUP1 PUSH1 0x80 DUP6 DUP8 SUB SLT ISZERO PUSH2 0x144E JUMPI PUSH1 0x0 DUP1 REVERT JUMPDEST DUP5 CALLDATALOAD PUSH2 0x1459 DUP2 PUSH2 0x13EB JUMP JUMPDEST SWAP4 POP PUSH1 0x20 DUP6 ADD CALLDATALOAD PUSH2 0x1469 DUP2 PUSH2 0x13EB JUMP JUMPDEST SWAP3 POP PUSH1 0x40 DUP6 ADD CALLDATALOAD SWAP2 POP PUSH2 0x147E PUSH1 0x60 DUP7 ADD PUSH2 0x1385 JUMP JUMPDEST SWAP1 POP SWAP3 SWAP6 SWAP2 SWAP5 POP SWAP3 POP JUMP JUMPDEST PUSH1 0x0 DUP1 PUSH1 0x40 DUP4 DUP6 SUB SLT ISZERO PUSH2 0x149C JUMPI PUSH1 0x0 DUP1 REVERT JUMPDEST DUP3 CALLDATALOAD SWAP2 POP PUSH2 0x14AC PUSH1 0x20 DUP5 ADD PUSH2 0x1385 JUMP JUMPDEST SWAP1 POP SWAP3 POP SWAP3 SWAP1 POP JUMP JUMPDEST PUSH1 0x0 PUSH1 0x20 DUP3 DUP5 SUB SLT ISZERO PUSH2 0x14C7 JUMPI PUSH1 0x0 DUP1 REVERT JUMPDEST DUP2 CALLDATALOAD PUSH2 0x6C5 DUP2 PUSH2 0x13EB JUMP JUMPDEST PUSH1 0x0 JUMPDEST DUP4 DUP2 LT ISZERO PUSH2 0x14ED JUMPI DUP2 DUP2 ADD MLOAD DUP4 DUP3 ADD MSTORE PUSH1 0x20 ADD PUSH2 0x14D5 JUMP JUMPDEST DUP4 DUP2 GT ISZERO PUSH2 0x12CF JUMPI POP POP PUSH1 0x0 SWAP2 ADD MSTORE JUMP JUMPDEST PUSH1 0x0 DUP2 MLOAD DUP1 DUP5 MSTORE PUSH2 0x1516 DUP2 PUSH1 0x20 DUP7 ADD PUSH1 0x20 DUP7 ADD PUSH2 0x14D2 JUMP JUMPDEST PUSH1 0x1F ADD PUSH1 0x1F NOT AND SWAP3 SWAP1 SWAP3 ADD PUSH1 0x20 ADD SWAP3 SWAP2 POP POP JUMP JUMPDEST PUSH1 0x0 PUSH2 0x100 DUP1 DUP4 MSTORE PUSH2 0x153E DUP2 DUP5 ADD DUP13 PUSH2 0x14FE JUMP JUMPDEST SWAP1 POP DUP3 DUP2 SUB PUSH1 0x20 DUP5 ADD MSTORE PUSH2 0x1552 DUP2 DUP12 PUSH2 0x14FE JUMP JUMPDEST PUSH1 0x40 DUP5 ADD SWAP10 SWAP1 SWAP10 MSTORE POP POP PUSH1 0xFF SWAP6 SWAP1 SWAP6 AND PUSH1 0x60 DUP7 ADD MSTORE PUSH1 0x1 PUSH1 0x1 PUSH1 0xA0 SHL SUB SWAP4 DUP5 AND PUSH1 0x80 DUP7 ADD MSTORE SWAP2 SWAP1 SWAP3 AND PUSH1 0xA0 DUP5 ADD MSTORE PUSH1 0xC0 DUP4 ADD SWAP2 SWAP1 SWAP2 MSTORE PUSH1 0xE0 SWAP1 SWAP2 ADD MSTORE SWAP3 SWAP2 POP POP JUMP JUMPDEST PUSH1 0x1 PUSH1 0x1 PUSH1 0xA0 SHL SUB SWAP4 DUP5 AND DUP2 MSTORE SWAP2 SWAP1 SWAP3 AND PUSH1 0x20 DUP3 ADD MSTORE PUSH1 0x40 DUP2 ADD SWAP2 SWAP1 SWAP2 MSTORE PUSH1 0x60 ADD SWAP1 JUMP JUMPDEST DUP1 ISZERO ISZERO DUP2 EQ PUSH2 0x1400 JUMPI PUSH1 0x0 DUP1 REVERT JUMPDEST PUSH1 0x0 DUP1 PUSH1 0x0 DUP1 PUSH1 0x0 PUSH1 0xA0 DUP7 DUP9 SUB SLT ISZERO PUSH2 0x15DE JUMPI PUSH1 0x0 DUP1 REVERT JUMPDEST DUP6 CALLDATALOAD PUSH2 0x15E9 DUP2 PUSH2 0x13EB JUMP JUMPDEST SWAP5 POP PUSH1 0x20 DUP7 ADD CALLDATALOAD SWAP4 POP PUSH2 0x15FE PUSH1 0x40 DUP8 ADD PUSH2 0x1385 JUMP JUMPDEST SWAP3 POP PUSH1 0x60 DUP7 ADD CALLDATALOAD PUSH2 0x160E DUP2 PUSH2 0x13EB JUMP JUMPDEST SWAP2 POP PUSH1 0x80 DUP7 ADD CALLDATALOAD PUSH2 0x161E DUP2 PUSH2 0x15B8 JUMP JUMPDEST DUP1 SWAP2 POP POP SWAP3 SWAP6 POP SWAP3 SWAP6 SWAP1 SWAP4 POP JUMP JUMPDEST PUSH1 0x0 DUP1 PUSH1 0x0 PUSH1 0x60 DUP5 DUP7 SUB SLT ISZERO PUSH2 0x1641 JUMPI PUSH1 0x0 DUP1 REVERT JUMPDEST DUP4 CALLDATALOAD PUSH2 0x164C DUP2 PUSH2 0x13EB JUMP JUMPDEST SWAP6 PUSH1 0x20 DUP6 ADD CALLDATALOAD SWAP6 POP PUSH1 0x40 SWAP1 SWAP5 ADD CALLDATALOAD SWAP4 SWAP3 POP POP POP JUMP JUMPDEST PUSH4 0x4E487B71 PUSH1 0xE0 SHL PUSH1 0x0 MSTORE PUSH1 0x11 PUSH1 0x4 MSTORE PUSH1 0x24 PUSH1 0x0 REVERT JUMPDEST PUSH1 0x0 DUP3 PUSH2 0x1694 JUMPI PUSH4 0x4E487B71 PUSH1 0xE0 SHL PUSH1 0x0 MSTORE PUSH1 0x12 PUSH1 0x4 MSTORE PUSH1 0x24 PUSH1 0x0 REVERT JUMPDEST POP DIV SWAP1 JUMP JUMPDEST PUSH1 0x0 DUP3 DUP3 LT ISZERO PUSH2 0x16AB JUMPI PUSH2 0x16AB PUSH2 0x1661 JUMP JUMPDEST POP SUB SWAP1 JUMP JUMPDEST PUSH1 0x0 DUP2 PUSH1 0x0 NOT DIV DUP4 GT DUP3 ISZERO ISZERO AND ISZERO PUSH2 0x16CA JUMPI PUSH2 0x16CA PUSH2 0x1661 JUMP JUMPDEST POP MUL SWAP1 JUMP JUMPDEST PUSH1 0x0 DUP3 NOT DUP3 GT ISZERO PUSH2 0x16E2 JUMPI PUSH2 0x16E2 PUSH2 0x1661 JUMP JUMPDEST POP ADD SWAP1 JUMP JUMPDEST PUSH1 0x0 PUSH1 0xFF DUP3 AND PUSH1 0xFF DUP5 AND DUP1 PUSH1 0xFF SUB DUP3 GT ISZERO PUSH2 0x1704 JUMPI PUSH2 0x1704 PUSH2 0x1661 JUMP JUMPDEST ADD SWAP4 SWAP3 POP POP POP JUMP JUMPDEST PUSH1 0x0 PUSH1 0x20 DUP3 DUP5 SUB SLT ISZERO PUSH2 0x171E JUMPI PUSH1 0x0 DUP1 REVERT JUMPDEST DUP2 MLOAD PUSH2 0x6C5 DUP2 PUSH2 0x15B8 JUMP JUMPDEST PUSH1 0x0 PUSH1 0x20 DUP3 DUP5 SUB SLT ISZERO PUSH2 0x173B JUMPI PUSH1 0x0 DUP1 REVERT JUMPDEST POP MLOAD SWAP2 SWAP1 POP JUMP JUMPDEST PUSH4 0x4E487B71 PUSH1 0xE0 SHL PUSH1 0x0 MSTORE PUSH1 0x41 PUSH1 0x4 MSTORE PUSH1 0x24 PUSH1 0x0 REVERT JUMPDEST PUSH1 0x0 PUSH1 0x20 DUP3 DUP5 SUB SLT ISZERO PUSH2 0x176A JUMPI PUSH1 0x0 DUP1 REVERT JUMPDEST DUP2 MLOAD PUSH8 0xFFFFFFFFFFFFFFFF DUP1 DUP3 GT ISZERO PUSH2 0x1782 JUMPI PUSH1 0x0 DUP1 REVERT JUMPDEST DUP2 DUP5 ADD SWAP2 POP DUP5 PUSH1 0x1F DUP4 ADD SLT PUSH2 0x1796 JUMPI PUSH1 0x0 DUP1 REVERT JUMPDEST DUP2 MLOAD DUP2 DUP2 GT ISZERO PUSH2 0x17A8 JUMPI PUSH2 0x17A8 PUSH2 0x1742 JUMP JUMPDEST PUSH1 0x40 MLOAD PUSH1 0x1F DUP3 ADD PUSH1 0x1F NOT SWAP1 DUP2 AND PUSH1 0x3F ADD AND DUP2 ADD SWAP1 DUP4 DUP3 GT DUP2 DUP4 LT OR ISZERO PUSH2 0x17D0 JUMPI PUSH2 0x17D0 PUSH2 0x1742 JUMP JUMPDEST DUP2 PUSH1 0x40 MSTORE DUP3 DUP2 MSTORE DUP8 PUSH1 0x20 DUP5 DUP8 ADD ADD GT ISZERO PUSH2 0x17E9 JUMPI PUSH1 0x0 DUP1 REVERT JUMPDEST PUSH2 0xFB2 DUP4 PUSH1 0x20 DUP4 ADD PUSH1 0x20 DUP9 ADD PUSH2 0x14D2 JUMP JUMPDEST PUSH1 0x0 PUSH1 0xFF DUP3 AND PUSH1 0xFF DUP2 SUB PUSH2 0x1810 JUMPI PUSH2 0x1810 PUSH2 0x1661 JUMP JUMPDEST PUSH1 0x1 ADD SWAP3 SWAP2 POP POP JUMP INVALID LOG2 PUSH5 0x6970667358 0x22 SLT KECCAK256 PUSH14 0x424F5C014BAFA9798FE49E1070F4 0x21 STOP PUSH8 0xD9698EA0D96CE65B SWAP7 0xE4 0x4B 0xC9 0xF7 0xE9 PUSH5 0x736F6C6343 STOP ADDMOD 0xD STOP CALLER ","sha1":"51a3d499bfb47f7f79e125e0827aeb3c8365176e","source":"pragma solidity ^0.8.3;\n\nimport \"./tokenErc20.sol\";\n\ncontract ProxyErc20 {\n\n    address erc20;\n    address owner_add;\n    uint8 version;\n    address created_by;\n    address last_upd_by;\n    uint created_at;\n    uint last_upd_at;\n    uint tokens;\n    uint priceForToken;\n    address ownerTokens;\n    \n    struct Balance {\n        address owner;\n        uint256 numOfTokens;\n    }\n\n    mapping(uint8=>Balance) public balances;\n    uint8 numBalance = 0;\n\n    struct Allowed {\n        address owner;\n        address delegate;\n        uint256 numOfTokens;\n    }\n\n    mapping(uint8=>Allowed) public allowance;\n    uint8 numAllowed = 0;\n    \n    mapping(address => uint) public balanceExceeds;\n    \n    constructor(address erc20_) public {\n        erc20 = erc20_;\n        version = 1;\n        created_by = msg.sender;\n    \tlast_upd_by = msg.sender;\n    \tcreated_at = block.timestamp;\n    \tlast_upd_at = block.timestamp;\n    \tTokenErc20 token = TokenErc20(erc20);\n        balances[0] = Balance(msg.sender, token.getTotalSupply());\n        numBalance = numBalance + 1;\n        owner_add = msg.sender;\n    }\n    \n    //owner\n    function setSellTokens(uint price, uint numSellTokens, uint8 currentversion) public returns (bool) {\n    \tif(msg.sender != owner_add) {\n    \t\treturn false;\n    \t}\n    \t\n    \t//ver se tem os tokens necessários\n    \tuint256 balance = getOnlyBalance(msg.sender);\n    \t\n    \tif(balance < numSellTokens) {\n    \t\treturn false;\n    \t}\n    \t\n    \townerTokens = msg.sender;\n    \ttokens = numSellTokens;\n    \tpriceForToken = price;\n    \tversion = currentversion + 1;\n    \tlast_upd_by = msg.sender;\n    \tlast_upd_at = block.timestamp;\n    \treturn true;\n    }\n    \n    function setSellTokensOther(address newOwner, uint price, uint numSellTokens) public returns (bool) {\n    \tif(msg.sender != ownerTokens) {\n    \t\treturn false;\n    \t}\n    \t\n    \tuint256 balance = getOnlyBalance(newOwner);\n    \t\n    \tif(balance < numSellTokens) {\n    \t\treturn false;\n    \t}\n    \t\n    \townerTokens = newOwner;\n    \ttokens = numSellTokens;\n    \tpriceForToken = price;\n    \t\n    \treturn true;\n    }\n    \n    function receiveMoney() public payable returns (bool) {\n    \tuint numOfTokens = 0;\n    \tif (priceForToken > 0 && msg.value > 0) {\n    \t\tnumOfTokens = msg.value/priceForToken;\n    \t} else {\n    \t\treturn false;\n    \t}\n    \t\n    \tif(numOfTokens > tokens) {\n    \t\treturn false;\n    \t}\n    \t\n    \tif (transferErc20(msg.sender, numOfTokens, version, ownerTokens, false)) {\n    \t\ttokens -= numOfTokens;\n    \t\tbalanceExceeds[msg.sender] += msg.value - (numOfTokens * priceForToken);\n    \t} else {\n    \t\treturn false;\n    \t}\n    \t\n    \treturn true;\n    }\n    \n    function withdrawMoney(address payable _to, uint _amount, uint8 currentversion) public returns (bool) {\n    \tif(_amount > balanceExceeds[msg.sender]) {\n    \t\treturn false;\n    \t}\n    \t\n    \tif(balanceExceeds[msg.sender] >= balanceExceeds[msg.sender] - _amount) {\n    \t\tbalanceExceeds[msg.sender] -= _amount;\n    \t\t_to.transfer(_amount);\n    \t\tversion = currentversion + 1;\n    \t    \tlast_upd_by = msg.sender;\n    \t    \tlast_upd_at = block.timestamp;\n    \t    \treturn true;\n    \t}\n    \t\n    \treturn false;\n    }\n    \n    function setPriceForToken(uint newPrice, uint8 currentversion) public returns (bool) {\n    \tif(msg.sender != ownerTokens) {\n    \t\treturn false;\n    \t}\n    \t\n    \tif(newPrice > 0) {\n    \t    priceForToken = newPrice;\n    \t    version = currentversion + 1;\n    \t    last_upd_by = msg.sender;\n    \t    last_upd_at = block.timestamp;\n    \t    return true;\n    \t}\n    \t\n    \treturn false;\n    }\n    \n    function setTokens(uint newTokens, uint8 currentversion) public returns (bool) {\n    \tif(msg.sender != ownerTokens) {\n    \t\treturn false;\n    \t}\n    \t\n    \tuint256 balance = getOnlyBalance(msg.sender);\n    \t\n    \tif(newTokens > 0 && balance >= newTokens) {\n    \t    tokens = newTokens;\n    \t    version = currentversion + 1;\n    \t    last_upd_by = msg.sender;\n    \t    last_upd_at = block.timestamp;\n    \t    return true;\n    \t}\n    \t\n    \treturn false;\n    }\n    \n    receive() external payable {\n    \treceiveMoney();\n    }\n\n    function setAllowedStruct(address owner_, address delegate_, uint256 numTokens) private {\n        bool find = false;\n        for(uint8 i = 0;i<numAllowed;i++) {\n            if(allowance[i].owner == owner_ && allowance[i].delegate == delegate_) {\n                allowance[i].numOfTokens = numTokens;\n                find = true;\n            }\n        }\n\n        if(!find) {\n            allowance[numAllowed] = Allowed(owner_, delegate_, numTokens);\n            numAllowed = numAllowed + 1;\n        }\n    }\n\n    function setAllowedStructMinus(address owner_, address delegate_, uint256 numTokens) private {\n        for(uint8 i = 0;i<numAllowed;i++) {\n            if(allowance[i].owner == owner_ && allowance[i].delegate == delegate_) {\n                allowance[i].numOfTokens = allowance[i].numOfTokens - numTokens;\n            }\n        }\n    }\n\n    function setBalanceStruct(address owner_, uint256 numTokens) private {\n        bool find = false;\n        for(uint8 i = 0;i<numBalance;i++) {\n            if(balances[i].owner == owner_) {\n                balances[i].numOfTokens = numTokens;\n                find = true;\n            }\n        }\n\n        if(!find) {\n            balances[numBalance] = Balance(owner_, numTokens);\n            numBalance = numBalance + 1;\n        }\n    }\n    \n    function getNameSymbolSupply() public view returns (string memory, string memory, uint256, uint8, address, address, uint, uint){\n    \tTokenErc20 token = TokenErc20(erc20);\n    \tstring memory name = token.getName();\n    \tstring memory symbol = token.getSymbol();\n    \tuint256 supply = token.getTotalSupply();\n    \t\n    \treturn (name, symbol, supply, version, created_by, last_upd_by, created_at, last_upd_at);\n    }\n    \n    function getNumBalances() public view returns(uint8) {\n    \treturn numBalance;\n    }\n\n    function getBalanceStruct(uint8 numBalance_) public view returns(address, uint256, uint8) {\n        return (balances[numBalance_].owner, balances[numBalance_].numOfTokens, version);\n    }\n    \n    function getBalance(address add) public view returns(uint256, uint8) {\n    \tTokenErc20 token = TokenErc20(erc20);\n    \treturn (token.balanceOf(add), version);\n    }\n    \n    function getOnlyBalance(address add) public view returns(uint256) {\n    \tTokenErc20 token = TokenErc20(erc20);\n    \treturn token.balanceOf(add);\n    }\n    \n    //owner\n    function setBalance(address add, uint256 amount, uint8 currentversion) public returns(bool) {\n    \tif(msg.sender != owner_add) {\n    \t\treturn false;\n    \t}\n    \t\n    \tTokenErc20 token = TokenErc20(erc20);\n    \tbool result = token.setBalanceOf(add, amount);\n    \t\n    \tif(result) {\n            version = currentversion + 1;\n    \t    last_upd_by = msg.sender;\n    \t    last_upd_at = block.timestamp;\n    \t    setBalanceStruct(add, amount);\t\n    \t}\n    \t\n    \treturn result;\n    }\n    \n    function approve(address delegate, uint256 numOfTokens, uint8 currentversion) public returns(bool) {\n    \tTokenErc20 token = TokenErc20(erc20);\n    \tbool result = token.approve(msg.sender, delegate, numOfTokens);\n    \t\n    \tif(result) {\n            version = currentversion + 1;\n    \t    last_upd_by = msg.sender;\n    \t    last_upd_at = block.timestamp;\n            setAllowedStruct(msg.sender, delegate, numOfTokens);\n    \t}\n    \t\n    \treturn result;\n    }\n\n    function getNumAllowance() public view returns(uint8) {\n    \treturn numAllowed;\n    }\n\n    function getAllowance(uint8 numAllow) public view returns(address, address, uint256, uint8) {\n    \treturn (allowance[numAllow].owner, allowance[numAllow].delegate, allowance[numAllow].numOfTokens, version);\n    }\n    \n    function transferErc20(address receiver, uint256 numTokens, uint8 currentversion, address owner, bool isSender) public returns (bool) {\n    \tTokenErc20 token = TokenErc20(erc20);\n    \tif (isSender) {\n\t    \towner = msg.sender;\n    \t} \n    \t\n    \tbool result = token.transfer(owner, receiver, numTokens);\n    \t\n    \tif(result) {\n            version = currentversion + 1;\n    \t    last_upd_by = msg.sender;\n    \t    last_upd_at = block.timestamp;\n            setBalanceStruct(receiver, getOnlyBalance(receiver));\n\t    setBalanceStruct(owner, getOnlyBalance(owner));\t\t\t\n    \t}\n    \t\n    \treturn result;\n    }\n    \n    //owner\n    function setAllowance(address owner_, address delegate, uint256 numOfTokens, uint8 currentversion) public returns(bool) {\n    \tif(msg.sender != owner_add) {\n    \t\treturn false;\n    \t}\n    \t\n    \tTokenErc20 token = TokenErc20(erc20);\n    \tbool result = token.setAllowance(owner_, delegate, numOfTokens);\n    \t\n    \tif(result) {\n            version = currentversion + 1;\n    \t    last_upd_by = msg.sender;\n    \t    last_upd_at = block.timestamp;\n            setAllowedStruct(owner_, delegate, numOfTokens);\n    \t}\n    \t\n    \treturn result;\n    }\n    \n    function transferFromErc20(address owner, address buyer, uint256 numTokens, uint8 currentversion) public returns (bool) {\n    \tTokenErc20 token = TokenErc20(erc20);\n    \tbool result = token.transferFrom(msg.sender, owner, buyer, numTokens);\n    \t\n    \tif(result) {\n            version = currentversion + 1;\n    \t    last_upd_by = msg.sender;\n    \t    last_upd_at = block.timestamp;\n    \t    setBalanceStruct(buyer, getOnlyBalance(buyer));\t\n            setBalanceStruct(owner, getOnlyBalance(owner));\n            setAllowedStructMinus(owner, msg.sender, numTokens);\t\t\n    \t}\n    \t\n    \treturn result;\n    }\n}\n","sourcePath":"contracts/proxyErc20.sol","deployment":{"address":"0x8619F28EB72e0c0d6d8f84C091EE8Ef77ebcCeD6","chainid":"42","blockHeight":33162419}}