{"abi":[{"constant":false,"inputs":[{"name":"docID","type":"uint8"}],"name":"setStatus","outputs":[],"payable":false,"stateMutability":"nonpayable","type":"function"},{"constant":true,"inputs":[{"name":"docID","type":"uint8"}],"name":"getDoc","outputs":[{"name":"","type":"string"},{"name":"","type":"string"},{"name":"","type":"uint8"},{"name":"","type":"address"},{"name":"","type":"address"},{"name":"","type":"uint256"},{"name":"","type":"uint256"}],"payable":false,"stateMutability":"view","type":"function"},{"constant":true,"inputs":[{"name":"docID","type":"uint8"}],"name":"getVersion","outputs":[{"name":"","type":"uint8"}],"payable":false,"stateMutability":"view","type":"function"},{"constant":true,"inputs":[{"name":"","type":"uint8"}],"name":"docs","outputs":[{"name":"docname","type":"string"},{"name":"text","type":"string"},{"name":"version","type":"uint8"},{"name":"created_by","type":"address"},{"name":"last_upd_by","type":"address"},{"name":"created_at","type":"uint256"},{"name":"last_upd_at","type":"uint256"},{"name":"status","type":"bool"}],"payable":false,"stateMutability":"view","type":"function"},{"constant":false,"inputs":[{"name":"docID","type":"uint8"},{"name":"docname","type":"string"},{"name":"text","type":"string"},{"name":"currentversion","type":"uint8"}],"name":"editDoc","outputs":[{"name":"","type":"uint8"}],"payable":false,"stateMutability":"nonpayable","type":"function"},{"constant":true,"inputs":[],"name":"getNumDocs","outputs":[{"name":"","type":"uint8"}],"payable":false,"stateMutability":"view","type":"function"},{"constant":false,"inputs":[{"name":"docname","type":"string"},{"name":"text","type":"string"}],"name":"addDoc","outputs":[{"name":"","type":"uint8"}],"payable":false,"stateMutability":"nonpayable","type":"function"},{"inputs":[],"payable":false,"stateMutability":"nonpayable","type":"constructor","name":"constructor"}],"bytecode":"608060405234801561001057600080fd5b506000805460a060020a60ff0219600160a060020a031990911633171674010000000000000000000000000000000000000000179055610cad806100556000396000f3006080604052600436106100825763ffffffff7c01000000000000000000000000000000000000000000000000000000006000350416632e49d78b81146100875780634273c445146100a45780634ced11f9146101d15780635137e9a4146102025780637fc2b855146103395780639bf52776146103dd578063d3118a5a146103f2575b600080fd5b34801561009357600080fd5b506100a260ff60043516610489565b005b3480156100b057600080fd5b506100bf60ff60043516610520565b6040805160ff871691810191909152600160a060020a0380861660608301528416608082015260a0810183905260c0810182905260e0808252885190820152875181906020808301916101008401918c019080838360005b8381101561012f578181015183820152602001610117565b50505050905090810190601f16801561015c5780820380516001836020036101000a031916815260200191505b5083810382528951815289516020918201918b019080838360005b8381101561018f578181015183820152602001610177565b50505050905090810190601f1680156101bc5780820380516001836020036101000a031916815260200191505b50995050505050505050505060405180910390f35b3480156101dd57600080fd5b506101ec60ff600435166106b2565b6040805160ff9092168252519081900360200190f35b34801561020e57600080fd5b5061021d60ff600435166106cd565b6040805160ff881691810191909152600160a060020a0380871660608301528516608082015260a0810184905260c0810183905281151560e0820152610100808252895190820152885181906020808301916101208401918d019080838360005b8381101561029657818101518382015260200161027e565b50505050905090810190601f1680156102c35780820380516001836020036101000a031916815260200191505b5083810382528a5181528a516020918201918c019080838360005b838110156102f65781810151838201526020016102de565b50505050905090810190601f1680156103235780820380516001836020036101000a031916815260200191505b509a505050505050505050505060405180910390f35b34801561034557600080fd5b5060408051602060046024803582810135601f81018590048502860185019096528585526101ec95833560ff1695369560449491939091019190819084018382808284375050604080516020601f89358b018035918201839004830284018301909452808352979a9998810197919650918201945092508291508401838280828437509497505050923560ff16935061084292505050565b3480156103e957600080fd5b506101ec610947565b3480156103fe57600080fd5b506040805160206004803580820135601f81018490048402850184019095528484526101ec94369492936024939284019190819084018382808284375050604080516020601f89358b018035918201839004830284018301909452808352979a9998810197919650918201945092508291508401838280828437509497506109979650505050505050565b600054600160a060020a0316331461050257604080517f08c379a000000000000000000000000000000000000000000000000000000000815260206004820152601560248201527f4572726f723a204163636573732044656e6965642e0000000000000000000000604482015290519081900360640190fd5b60ff166000908152600160205260409020600601805460ff19169055565b60608060008060008060008061053589610b51565b60ff81811660009081526001602081815260409283902060028082015460038301546004840154600585015485548951610100828b161581026000190190921696909604601f8101899004890287018901909a528986529a9b509499968a019883169796909204600160a060020a0390811696911694919392918991908301828280156106035780601f106105d857610100808354040283529160200191610603565b820191906000526020600020905b8154815290600101906020018083116105e657829003601f168201915b5050895460408051602060026001851615610100026000190190941693909304601f8101849004840282018401909252818152959c508b9450925084019050828280156106915780601f1061066657610100808354040283529160200191610691565b820191906000526020600020905b81548152906001019060200180831161067457829003601f168201915b50505050509550975097509750975097509750975050919395979092949650565b60ff9081166000908152600160205260409020600201541690565b60016020818152600092835260409283902080548451600294821615610100026000190190911693909304601f810183900483028401830190945283835292839183018282801561075f5780601f106107345761010080835404028352916020019161075f565b820191906000526020600020905b81548152906001019060200180831161074257829003601f168201915b505050505090806001018054600181600116156101000203166002900480601f0160208091040260200160405190810160405280929190818152602001828054600181600116156101000203166002900480156107fd5780601f106107d2576101008083540402835291602001916107fd565b820191906000526020600020905b8154815290600101906020018083116107e057829003601f168201915b5050506002840154600385015460048601546005870154600690970154959660ff80851697600160a060020a0361010090960486169750939094169450909290911688565b600080600060608060006108558a610b51565b8951909550600180890195508a94508993509150156108935760ff851660009081526001602090815260409091208a51610891928c0190610be6565b505b8151156108c55760ff851660009081526001602081815260409092208a516108c3939190920191908b0190610be6565b505b81511515806108d45750825115155b156109325760ff808616600090815260016020526040902060028101805492871660ff199093169290921790915560038101805473ffffffffffffffffffffffffffffffffffffffff1916331790554260059091015594508461093a565b506000199450845b5050505050949350505050565b600080805b60025460ff90811690821610156109915760ff80821660009081526001602081905260409091206006015490911615151415610989576001909101905b60010161094c565b50919050565b600080548190600160a060020a03163314610a1357604080517f08c379a000000000000000000000000000000000000000000000000000000000815260206004820152601560248201527f4572726f723a204163636573732044656e6965642e0000000000000000000000604482015290519081900360640190fd5b506002805460ff198116600160ff9283168181019093169190911790925560408051610100810182528681526020808201879052818301859052336060830181905260808301524260a0830181905260c083015260e08201859052600084815294815291909320835180519394939192610a9292849290910190610be6565b506020828101518051610aab9260018501920190610be6565b506040820151600282018054606085015160ff1991821660ff9094169390931774ffffffffffffffffffffffffffffffffffffffff001916610100600160a060020a039485160217909155608084015160038401805473ffffffffffffffffffffffffffffffffffffffff1916919093161790915560a0830151600483015560c0830151600583015560e090920151600690910180549092169015151790559392505050565b600080805b60025460ff9081169082161015610bd95760ff8082166000908152600160208190526040909120600601549091161515148015610b9857508160ff168460ff16145b15610ba557819250610bdf565b60ff80821660009081526001602081905260409091206006015490911615151415610bd1576001909101905b600101610b56565b60001992505b5050919050565b828054600181600116156101000203166002900490600052602060002090601f016020900481019282601f10610c2757805160ff1916838001178555610c54565b82800160010185558215610c54579182015b82811115610c54578251825591602001919060010190610c39565b50610c60929150610c64565b5090565b610c7e91905b80821115610c605760008155600101610c6a565b905600a165627a7a72305820d7c6f98b258fab73b797cda7900dd8d8211f40d77359ebc283fa0ce4169a5fee0029","bytecodeSha1":"475a2ae328e343a3d6c6e26e300808c9fc028440","compiler":{"evm_version":"byzantium","optimizer":{"enabled":true,"runs":200},"version":"0.4.26+commit.4563c3fc"},"contractName":"TxtDocShare","language":"Solidity","natspec":{"methods":{}},"opcodes":"PUSH1 0x80 PUSH1 0x40 MSTORE PUSH1 0x4 CALLDATASIZE LT PUSH2 0x82 JUMPI PUSH4 0xFFFFFFFF PUSH29 0x100000000000000000000000000000000000000000000000000000000 PUSH1 0x0 CALLDATALOAD DIV AND PUSH4 0x2E49D78B DUP2 EQ PUSH2 0x87 JUMPI DUP1 PUSH4 0x4273C445 EQ PUSH2 0xA4 JUMPI DUP1 PUSH4 0x4CED11F9 EQ PUSH2 0x1D1 JUMPI DUP1 PUSH4 0x5137E9A4 EQ PUSH2 0x202 JUMPI DUP1 PUSH4 0x7FC2B855 EQ PUSH2 0x339 JUMPI DUP1 PUSH4 0x9BF52776 EQ PUSH2 0x3DD JUMPI DUP1 PUSH4 0xD3118A5A EQ PUSH2 0x3F2 JUMPI JUMPDEST PUSH1 0x0 DUP1 REVERT JUMPDEST CALLVALUE DUP1 ISZERO PUSH2 0x93 JUMPI PUSH1 0x0 DUP1 REVERT JUMPDEST POP PUSH2 0xA2 PUSH1 0xFF PUSH1 0x4 CALLDATALOAD AND PUSH2 0x489 JUMP JUMPDEST STOP JUMPDEST CALLVALUE DUP1 ISZERO PUSH2 0xB0 JUMPI PUSH1 0x0 DUP1 REVERT JUMPDEST POP PUSH2 0xBF PUSH1 0xFF PUSH1 0x4 CALLDATALOAD AND PUSH2 0x520 JUMP JUMPDEST PUSH1 0x40 DUP1 MLOAD PUSH1 0xFF DUP8 AND SWAP2 DUP2 ADD SWAP2 SWAP1 SWAP2 MSTORE PUSH1 0x1 PUSH1 0xA0 PUSH1 0x2 EXP SUB DUP1 DUP7 AND PUSH1 0x60 DUP4 ADD MSTORE DUP5 AND PUSH1 0x80 DUP3 ADD MSTORE PUSH1 0xA0 DUP2 ADD DUP4 SWAP1 MSTORE PUSH1 0xC0 DUP2 ADD DUP3 SWAP1 MSTORE PUSH1 0xE0 DUP1 DUP3 MSTORE DUP9 MLOAD SWAP1 DUP3 ADD MSTORE DUP8 MLOAD DUP2 SWAP1 PUSH1 0x20 DUP1 DUP4 ADD SWAP2 PUSH2 0x100 DUP5 ADD SWAP2 DUP13 ADD SWAP1 DUP1 DUP4 DUP4 PUSH1 0x0 JUMPDEST DUP4 DUP2 LT ISZERO PUSH2 0x12F JUMPI DUP2 DUP2 ADD MLOAD DUP4 DUP3 ADD MSTORE PUSH1 0x20 ADD PUSH2 0x117 JUMP JUMPDEST POP POP POP POP SWAP1 POP SWAP1 DUP2 ADD SWAP1 PUSH1 0x1F AND DUP1 ISZERO PUSH2 0x15C JUMPI DUP1 DUP3 SUB DUP1 MLOAD PUSH1 0x1 DUP4 PUSH1 0x20 SUB PUSH2 0x100 EXP SUB NOT AND DUP2 MSTORE PUSH1 0x20 ADD SWAP2 POP JUMPDEST POP DUP4 DUP2 SUB DUP3 MSTORE DUP10 MLOAD DUP2 MSTORE DUP10 MLOAD PUSH1 0x20 SWAP2 DUP3 ADD SWAP2 DUP12 ADD SWAP1 DUP1 DUP4 DUP4 PUSH1 0x0 JUMPDEST DUP4 DUP2 LT ISZERO PUSH2 0x18F JUMPI DUP2 DUP2 ADD MLOAD DUP4 DUP3 ADD MSTORE PUSH1 0x20 ADD PUSH2 0x177 JUMP JUMPDEST POP POP POP POP SWAP1 POP SWAP1 DUP2 ADD SWAP1 PUSH1 0x1F AND DUP1 ISZERO PUSH2 0x1BC JUMPI DUP1 DUP3 SUB DUP1 MLOAD PUSH1 0x1 DUP4 PUSH1 0x20 SUB PUSH2 0x100 EXP SUB NOT AND DUP2 MSTORE PUSH1 0x20 ADD SWAP2 POP JUMPDEST POP SWAP10 POP POP POP POP POP POP POP POP POP POP PUSH1 0x40 MLOAD DUP1 SWAP2 SUB SWAP1 RETURN JUMPDEST CALLVALUE DUP1 ISZERO PUSH2 0x1DD JUMPI PUSH1 0x0 DUP1 REVERT JUMPDEST POP PUSH2 0x1EC PUSH1 0xFF PUSH1 0x4 CALLDATALOAD AND PUSH2 0x6B2 JUMP JUMPDEST PUSH1 0x40 DUP1 MLOAD PUSH1 0xFF SWAP1 SWAP3 AND DUP3 MSTORE MLOAD SWAP1 DUP2 SWAP1 SUB PUSH1 0x20 ADD SWAP1 RETURN JUMPDEST CALLVALUE DUP1 ISZERO PUSH2 0x20E JUMPI PUSH1 0x0 DUP1 REVERT JUMPDEST POP PUSH2 0x21D PUSH1 0xFF PUSH1 0x4 CALLDATALOAD AND PUSH2 0x6CD JUMP JUMPDEST PUSH1 0x40 DUP1 MLOAD PUSH1 0xFF DUP9 AND SWAP2 DUP2 ADD SWAP2 SWAP1 SWAP2 MSTORE PUSH1 0x1 PUSH1 0xA0 PUSH1 0x2 EXP SUB DUP1 DUP8 AND PUSH1 0x60 DUP4 ADD MSTORE DUP6 AND PUSH1 0x80 DUP3 ADD MSTORE PUSH1 0xA0 DUP2 ADD DUP5 SWAP1 MSTORE PUSH1 0xC0 DUP2 ADD DUP4 SWAP1 MSTORE DUP2 ISZERO ISZERO PUSH1 0xE0 DUP3 ADD MSTORE PUSH2 0x100 DUP1 DUP3 MSTORE DUP10 MLOAD SWAP1 DUP3 ADD MSTORE DUP9 MLOAD DUP2 SWAP1 PUSH1 0x20 DUP1 DUP4 ADD SWAP2 PUSH2 0x120 DUP5 ADD SWAP2 DUP14 ADD SWAP1 DUP1 DUP4 DUP4 PUSH1 0x0 JUMPDEST DUP4 DUP2 LT ISZERO PUSH2 0x296 JUMPI DUP2 DUP2 ADD MLOAD DUP4 DUP3 ADD MSTORE PUSH1 0x20 ADD PUSH2 0x27E JUMP JUMPDEST POP POP POP POP SWAP1 POP SWAP1 DUP2 ADD SWAP1 PUSH1 0x1F AND DUP1 ISZERO PUSH2 0x2C3 JUMPI DUP1 DUP3 SUB DUP1 MLOAD PUSH1 0x1 DUP4 PUSH1 0x20 SUB PUSH2 0x100 EXP SUB NOT AND DUP2 MSTORE PUSH1 0x20 ADD SWAP2 POP JUMPDEST POP DUP4 DUP2 SUB DUP3 MSTORE DUP11 MLOAD DUP2 MSTORE DUP11 MLOAD PUSH1 0x20 SWAP2 DUP3 ADD SWAP2 DUP13 ADD SWAP1 DUP1 DUP4 DUP4 PUSH1 0x0 JUMPDEST DUP4 DUP2 LT ISZERO PUSH2 0x2F6 JUMPI DUP2 DUP2 ADD MLOAD DUP4 DUP3 ADD MSTORE PUSH1 0x20 ADD PUSH2 0x2DE JUMP JUMPDEST POP POP POP POP SWAP1 POP SWAP1 DUP2 ADD SWAP1 PUSH1 0x1F AND DUP1 ISZERO PUSH2 0x323 JUMPI DUP1 DUP3 SUB DUP1 MLOAD PUSH1 0x1 DUP4 PUSH1 0x20 SUB PUSH2 0x100 EXP SUB NOT AND DUP2 MSTORE PUSH1 0x20 ADD SWAP2 POP JUMPDEST POP SWAP11 POP POP POP POP POP POP POP POP POP POP POP PUSH1 0x40 MLOAD DUP1 SWAP2 SUB SWAP1 RETURN JUMPDEST CALLVALUE DUP1 ISZERO PUSH2 0x345 JUMPI PUSH1 0x0 DUP1 REVERT JUMPDEST POP PUSH1 0x40 DUP1 MLOAD PUSH1 0x20 PUSH1 0x4 PUSH1 0x24 DUP1 CALLDATALOAD DUP3 DUP2 ADD CALLDATALOAD PUSH1 0x1F DUP2 ADD DUP6 SWAP1 DIV DUP6 MUL DUP7 ADD DUP6 ADD SWAP1 SWAP7 MSTORE DUP6 DUP6 MSTORE PUSH2 0x1EC SWAP6 DUP4 CALLDATALOAD PUSH1 0xFF AND SWAP6 CALLDATASIZE SWAP6 PUSH1 0x44 SWAP5 SWAP2 SWAP4 SWAP1 SWAP2 ADD SWAP2 SWAP1 DUP2 SWAP1 DUP5 ADD DUP4 DUP3 DUP1 DUP3 DUP5 CALLDATACOPY POP POP PUSH1 0x40 DUP1 MLOAD PUSH1 0x20 PUSH1 0x1F DUP10 CALLDATALOAD DUP12 ADD DUP1 CALLDATALOAD SWAP2 DUP3 ADD DUP4 SWAP1 DIV DUP4 MUL DUP5 ADD DUP4 ADD SWAP1 SWAP5 MSTORE DUP1 DUP4 MSTORE SWAP8 SWAP11 SWAP10 SWAP9 DUP2 ADD SWAP8 SWAP2 SWAP7 POP SWAP2 DUP3 ADD SWAP5 POP SWAP3 POP DUP3 SWAP2 POP DUP5 ADD DUP4 DUP3 DUP1 DUP3 DUP5 CALLDATACOPY POP SWAP5 SWAP8 POP POP POP SWAP3 CALLDATALOAD PUSH1 0xFF AND SWAP4 POP PUSH2 0x842 SWAP3 POP POP POP JUMP JUMPDEST CALLVALUE DUP1 ISZERO PUSH2 0x3E9 JUMPI PUSH1 0x0 DUP1 REVERT JUMPDEST POP PUSH2 0x1EC PUSH2 0x947 JUMP JUMPDEST CALLVALUE DUP1 ISZERO PUSH2 0x3FE JUMPI PUSH1 0x0 DUP1 REVERT JUMPDEST POP PUSH1 0x40 DUP1 MLOAD PUSH1 0x20 PUSH1 0x4 DUP1 CALLDATALOAD DUP1 DUP3 ADD CALLDATALOAD PUSH1 0x1F DUP2 ADD DUP5 SWAP1 DIV DUP5 MUL DUP6 ADD DUP5 ADD SWAP1 SWAP6 MSTORE DUP5 DUP5 MSTORE PUSH2 0x1EC SWAP5 CALLDATASIZE SWAP5 SWAP3 SWAP4 PUSH1 0x24 SWAP4 SWAP3 DUP5 ADD SWAP2 SWAP1 DUP2 SWAP1 DUP5 ADD DUP4 DUP3 DUP1 DUP3 DUP5 CALLDATACOPY POP POP PUSH1 0x40 DUP1 MLOAD PUSH1 0x20 PUSH1 0x1F DUP10 CALLDATALOAD DUP12 ADD DUP1 CALLDATALOAD SWAP2 DUP3 ADD DUP4 SWAP1 DIV DUP4 MUL DUP5 ADD DUP4 ADD SWAP1 SWAP5 MSTORE DUP1 DUP4 MSTORE SWAP8 SWAP11 SWAP10 SWAP9 DUP2 ADD SWAP8 SWAP2 SWAP7 POP SWAP2 DUP3 ADD SWAP5 POP SWAP3 POP DUP3 SWAP2 POP DUP5 ADD DUP4 DUP3 DUP1 DUP3 DUP5 CALLDATACOPY POP SWAP5 SWAP8 POP PUSH2 0x997 SWAP7 POP POP POP POP POP POP POP JUMP JUMPDEST PUSH1 0x0 SLOAD PUSH1 0x1 PUSH1 0xA0 PUSH1 0x2 EXP SUB AND CALLER EQ PUSH2 0x502 JUMPI PUSH1 0x40 DUP1 MLOAD PUSH32 0x8C379A000000000000000000000000000000000000000000000000000000000 DUP2 MSTORE PUSH1 0x20 PUSH1 0x4 DUP3 ADD MSTORE PUSH1 0x15 PUSH1 0x24 DUP3 ADD MSTORE PUSH32 0x4572726F723A204163636573732044656E6965642E0000000000000000000000 PUSH1 0x44 DUP3 ADD MSTORE SWAP1 MLOAD SWAP1 DUP2 SWAP1 SUB PUSH1 0x64 ADD SWAP1 REVERT JUMPDEST PUSH1 0xFF AND PUSH1 0x0 SWAP1 DUP2 MSTORE PUSH1 0x1 PUSH1 0x20 MSTORE PUSH1 0x40 SWAP1 KECCAK256 PUSH1 0x6 ADD DUP1 SLOAD PUSH1 0xFF NOT AND SWAP1 SSTORE JUMP JUMPDEST PUSH1 0x60 DUP1 PUSH1 0x0 DUP1 PUSH1 0x0 DUP1 PUSH1 0x0 DUP1 PUSH2 0x535 DUP10 PUSH2 0xB51 JUMP JUMPDEST PUSH1 0xFF DUP2 DUP2 AND PUSH1 0x0 SWAP1 DUP2 MSTORE PUSH1 0x1 PUSH1 0x20 DUP2 DUP2 MSTORE PUSH1 0x40 SWAP3 DUP4 SWAP1 KECCAK256 PUSH1 0x2 DUP1 DUP3 ADD SLOAD PUSH1 0x3 DUP4 ADD SLOAD PUSH1 0x4 DUP5 ADD SLOAD PUSH1 0x5 DUP6 ADD SLOAD DUP6 SLOAD DUP10 MLOAD PUSH2 0x100 DUP3 DUP12 AND ISZERO DUP2 MUL PUSH1 0x0 NOT ADD SWAP1 SWAP3 AND SWAP7 SWAP1 SWAP7 DIV PUSH1 0x1F DUP2 ADD DUP10 SWAP1 DIV DUP10 MUL DUP8 ADD DUP10 ADD SWAP1 SWAP11 MSTORE DUP10 DUP7 MSTORE SWAP11 SWAP12 POP SWAP5 SWAP10 SWAP7 DUP11 ADD SWAP9 DUP4 AND SWAP8 SWAP7 SWAP1 SWAP3 DIV PUSH1 0x1 PUSH1 0xA0 PUSH1 0x2 EXP SUB SWAP1 DUP2 AND SWAP7 SWAP2 AND SWAP5 SWAP2 SWAP4 SWAP3 SWAP2 DUP10 SWAP2 SWAP1 DUP4 ADD DUP3 DUP3 DUP1 ISZERO PUSH2 0x603 JUMPI DUP1 PUSH1 0x1F LT PUSH2 0x5D8 JUMPI PUSH2 0x100 DUP1 DUP4 SLOAD DIV MUL DUP4 MSTORE SWAP2 PUSH1 0x20 ADD SWAP2 PUSH2 0x603 JUMP JUMPDEST DUP3 ADD SWAP2 SWAP1 PUSH1 0x0 MSTORE PUSH1 0x20 PUSH1 0x0 KECCAK256 SWAP1 JUMPDEST DUP2 SLOAD DUP2 MSTORE SWAP1 PUSH1 0x1 ADD SWAP1 PUSH1 0x20 ADD DUP1 DUP4 GT PUSH2 0x5E6 JUMPI DUP3 SWAP1 SUB PUSH1 0x1F AND DUP3 ADD SWAP2 JUMPDEST POP POP DUP10 SLOAD PUSH1 0x40 DUP1 MLOAD PUSH1 0x20 PUSH1 0x2 PUSH1 0x1 DUP6 AND ISZERO PUSH2 0x100 MUL PUSH1 0x0 NOT ADD SWAP1 SWAP5 AND SWAP4 SWAP1 SWAP4 DIV PUSH1 0x1F DUP2 ADD DUP5 SWAP1 DIV DUP5 MUL DUP3 ADD DUP5 ADD SWAP1 SWAP3 MSTORE DUP2 DUP2 MSTORE SWAP6 SWAP13 POP DUP12 SWAP5 POP SWAP3 POP DUP5 ADD SWAP1 POP DUP3 DUP3 DUP1 ISZERO PUSH2 0x691 JUMPI DUP1 PUSH1 0x1F LT PUSH2 0x666 JUMPI PUSH2 0x100 DUP1 DUP4 SLOAD DIV MUL DUP4 MSTORE SWAP2 PUSH1 0x20 ADD SWAP2 PUSH2 0x691 JUMP JUMPDEST DUP3 ADD SWAP2 SWAP1 PUSH1 0x0 MSTORE PUSH1 0x20 PUSH1 0x0 KECCAK256 SWAP1 JUMPDEST DUP2 SLOAD DUP2 MSTORE SWAP1 PUSH1 0x1 ADD SWAP1 PUSH1 0x20 ADD DUP1 DUP4 GT PUSH2 0x674 JUMPI DUP3 SWAP1 SUB PUSH1 0x1F AND DUP3 ADD SWAP2 JUMPDEST POP POP POP POP POP SWAP6 POP SWAP8 POP SWAP8 POP SWAP8 POP SWAP8 POP SWAP8 POP SWAP8 POP SWAP8 POP POP SWAP2 SWAP4 SWAP6 SWAP8 SWAP1 SWAP3 SWAP5 SWAP7 POP JUMP JUMPDEST PUSH1 0xFF SWAP1 DUP2 AND PUSH1 0x0 SWAP1 DUP2 MSTORE PUSH1 0x1 PUSH1 0x20 MSTORE PUSH1 0x40 SWAP1 KECCAK256 PUSH1 0x2 ADD SLOAD AND SWAP1 JUMP JUMPDEST PUSH1 0x1 PUSH1 0x20 DUP2 DUP2 MSTORE PUSH1 0x0 SWAP3 DUP4 MSTORE PUSH1 0x40 SWAP3 DUP4 SWAP1 KECCAK256 DUP1 SLOAD DUP5 MLOAD PUSH1 0x2 SWAP5 DUP3 AND ISZERO PUSH2 0x100 MUL PUSH1 0x0 NOT ADD SWAP1 SWAP2 AND SWAP4 SWAP1 SWAP4 DIV PUSH1 0x1F DUP2 ADD DUP4 SWAP1 DIV DUP4 MUL DUP5 ADD DUP4 ADD SWAP1 SWAP5 MSTORE DUP4 DUP4 MSTORE SWAP3 DUP4 SWAP2 DUP4 ADD DUP3 DUP3 DUP1 ISZERO PUSH2 0x75F JUMPI DUP1 PUSH1 0x1F LT PUSH2 0x734 JUMPI PUSH2 0x100 DUP1 DUP4 SLOAD DIV MUL DUP4 MSTORE SWAP2 PUSH1 0x20 ADD SWAP2 PUSH2 0x75F JUMP JUMPDEST DUP3 ADD SWAP2 SWAP1 PUSH1 0x0 MSTORE PUSH1 0x20 PUSH1 0x0 KECCAK256 SWAP1 JUMPDEST DUP2 SLOAD DUP2 MSTORE SWAP1 PUSH1 0x1 ADD SWAP1 PUSH1 0x20 ADD DUP1 DUP4 GT PUSH2 0x742 JUMPI DUP3 SWAP1 SUB PUSH1 0x1F AND DUP3 ADD SWAP2 JUMPDEST POP POP POP POP POP SWAP1 DUP1 PUSH1 0x1 ADD DUP1 SLOAD PUSH1 0x1 DUP2 PUSH1 0x1 AND ISZERO PUSH2 0x100 MUL SUB AND PUSH1 0x2 SWAP1 DIV DUP1 PUSH1 0x1F ADD PUSH1 0x20 DUP1 SWAP2 DIV MUL PUSH1 0x20 ADD PUSH1 0x40 MLOAD SWAP1 DUP2 ADD PUSH1 0x40 MSTORE DUP1 SWAP3 SWAP2 SWAP1 DUP2 DUP2 MSTORE PUSH1 0x20 ADD DUP3 DUP1 SLOAD PUSH1 0x1 DUP2 PUSH1 0x1 AND ISZERO PUSH2 0x100 MUL SUB AND PUSH1 0x2 SWAP1 DIV DUP1 ISZERO PUSH2 0x7FD JUMPI DUP1 PUSH1 0x1F LT PUSH2 0x7D2 JUMPI PUSH2 0x100 DUP1 DUP4 SLOAD DIV MUL DUP4 MSTORE SWAP2 PUSH1 0x20 ADD SWAP2 PUSH2 0x7FD JUMP JUMPDEST DUP3 ADD SWAP2 SWAP1 PUSH1 0x0 MSTORE PUSH1 0x20 PUSH1 0x0 KECCAK256 SWAP1 JUMPDEST DUP2 SLOAD DUP2 MSTORE SWAP1 PUSH1 0x1 ADD SWAP1 PUSH1 0x20 ADD DUP1 DUP4 GT PUSH2 0x7E0 JUMPI DUP3 SWAP1 SUB PUSH1 0x1F AND DUP3 ADD SWAP2 JUMPDEST POP POP POP PUSH1 0x2 DUP5 ADD SLOAD PUSH1 0x3 DUP6 ADD SLOAD PUSH1 0x4 DUP7 ADD SLOAD PUSH1 0x5 DUP8 ADD SLOAD PUSH1 0x6 SWAP1 SWAP8 ADD SLOAD SWAP6 SWAP7 PUSH1 0xFF DUP1 DUP6 AND SWAP8 PUSH1 0x1 PUSH1 0xA0 PUSH1 0x2 EXP SUB PUSH2 0x100 SWAP1 SWAP7 DIV DUP7 AND SWAP8 POP SWAP4 SWAP1 SWAP5 AND SWAP5 POP SWAP1 SWAP3 SWAP1 SWAP2 AND DUP9 JUMP JUMPDEST PUSH1 0x0 DUP1 PUSH1 0x0 PUSH1 0x60 DUP1 PUSH1 0x0 PUSH2 0x855 DUP11 PUSH2 0xB51 JUMP JUMPDEST DUP10 MLOAD SWAP1 SWAP6 POP PUSH1 0x1 DUP1 DUP10 ADD SWAP6 POP DUP11 SWAP5 POP DUP10 SWAP4 POP SWAP2 POP ISZERO PUSH2 0x893 JUMPI PUSH1 0xFF DUP6 AND PUSH1 0x0 SWAP1 DUP2 MSTORE PUSH1 0x1 PUSH1 0x20 SWAP1 DUP2 MSTORE PUSH1 0x40 SWAP1 SWAP2 KECCAK256 DUP11 MLOAD PUSH2 0x891 SWAP3 DUP13 ADD SWAP1 PUSH2 0xBE6 JUMP JUMPDEST POP JUMPDEST DUP2 MLOAD ISZERO PUSH2 0x8C5 JUMPI PUSH1 0xFF DUP6 AND PUSH1 0x0 SWAP1 DUP2 MSTORE PUSH1 0x1 PUSH1 0x20 DUP2 DUP2 MSTORE PUSH1 0x40 SWAP1 SWAP3 KECCAK256 DUP11 MLOAD PUSH2 0x8C3 SWAP4 SWAP2 SWAP1 SWAP3 ADD SWAP2 SWAP1 DUP12 ADD SWAP1 PUSH2 0xBE6 JUMP JUMPDEST POP JUMPDEST DUP2 MLOAD ISZERO ISZERO DUP1 PUSH2 0x8D4 JUMPI POP DUP3 MLOAD ISZERO ISZERO JUMPDEST ISZERO PUSH2 0x932 JUMPI PUSH1 0xFF DUP1 DUP7 AND PUSH1 0x0 SWAP1 DUP2 MSTORE PUSH1 0x1 PUSH1 0x20 MSTORE PUSH1 0x40 SWAP1 KECCAK256 PUSH1 0x2 DUP2 ADD DUP1 SLOAD SWAP3 DUP8 AND PUSH1 0xFF NOT SWAP1 SWAP4 AND SWAP3 SWAP1 SWAP3 OR SWAP1 SWAP2 SSTORE PUSH1 0x3 DUP2 ADD DUP1 SLOAD PUSH20 0xFFFFFFFFFFFFFFFFFFFFFFFFFFFFFFFFFFFFFFFF NOT AND CALLER OR SWAP1 SSTORE TIMESTAMP PUSH1 0x5 SWAP1 SWAP2 ADD SSTORE SWAP5 POP DUP5 PUSH2 0x93A JUMP JUMPDEST POP PUSH1 0x0 NOT SWAP5 POP DUP5 JUMPDEST POP POP POP POP POP SWAP5 SWAP4 POP POP POP POP JUMP JUMPDEST PUSH1 0x0 DUP1 DUP1 JUMPDEST PUSH1 0x2 SLOAD PUSH1 0xFF SWAP1 DUP2 AND SWAP1 DUP3 AND LT ISZERO PUSH2 0x991 JUMPI PUSH1 0xFF DUP1 DUP3 AND PUSH1 0x0 SWAP1 DUP2 MSTORE PUSH1 0x1 PUSH1 0x20 DUP2 SWAP1 MSTORE PUSH1 0x40 SWAP1 SWAP2 KECCAK256 PUSH1 0x6 ADD SLOAD SWAP1 SWAP2 AND ISZERO ISZERO EQ ISZERO PUSH2 0x989 JUMPI PUSH1 0x1 SWAP1 SWAP2 ADD SWAP1 JUMPDEST PUSH1 0x1 ADD PUSH2 0x94C JUMP JUMPDEST POP SWAP2 SWAP1 POP JUMP JUMPDEST PUSH1 0x0 DUP1 SLOAD DUP2 SWAP1 PUSH1 0x1 PUSH1 0xA0 PUSH1 0x2 EXP SUB AND CALLER EQ PUSH2 0xA13 JUMPI PUSH1 0x40 DUP1 MLOAD PUSH32 0x8C379A000000000000000000000000000000000000000000000000000000000 DUP2 MSTORE PUSH1 0x20 PUSH1 0x4 DUP3 ADD MSTORE PUSH1 0x15 PUSH1 0x24 DUP3 ADD MSTORE PUSH32 0x4572726F723A204163636573732044656E6965642E0000000000000000000000 PUSH1 0x44 DUP3 ADD MSTORE SWAP1 MLOAD SWAP1 DUP2 SWAP1 SUB PUSH1 0x64 ADD SWAP1 REVERT JUMPDEST POP PUSH1 0x2 DUP1 SLOAD PUSH1 0xFF NOT DUP2 AND PUSH1 0x1 PUSH1 0xFF SWAP3 DUP4 AND DUP2 DUP2 ADD SWAP1 SWAP4 AND SWAP2 SWAP1 SWAP2 OR SWAP1 SWAP3 SSTORE PUSH1 0x40 DUP1 MLOAD PUSH2 0x100 DUP2 ADD DUP3 MSTORE DUP7 DUP2 MSTORE PUSH1 0x20 DUP1 DUP3 ADD DUP8 SWAP1 MSTORE DUP2 DUP4 ADD DUP6 SWAP1 MSTORE CALLER PUSH1 0x60 DUP4 ADD DUP2 SWAP1 MSTORE PUSH1 0x80 DUP4 ADD MSTORE TIMESTAMP PUSH1 0xA0 DUP4 ADD DUP2 SWAP1 MSTORE PUSH1 0xC0 DUP4 ADD MSTORE PUSH1 0xE0 DUP3 ADD DUP6 SWAP1 MSTORE PUSH1 0x0 DUP5 DUP2 MSTORE SWAP5 DUP2 MSTORE SWAP2 SWAP1 SWAP4 KECCAK256 DUP4 MLOAD DUP1 MLOAD SWAP4 SWAP5 SWAP4 SWAP2 SWAP3 PUSH2 0xA92 SWAP3 DUP5 SWAP3 SWAP1 SWAP2 ADD SWAP1 PUSH2 0xBE6 JUMP JUMPDEST POP PUSH1 0x20 DUP3 DUP2 ADD MLOAD DUP1 MLOAD PUSH2 0xAAB SWAP3 PUSH1 0x1 DUP6 ADD SWAP3 ADD SWAP1 PUSH2 0xBE6 JUMP JUMPDEST POP PUSH1 0x40 DUP3 ADD MLOAD PUSH1 0x2 DUP3 ADD DUP1 SLOAD PUSH1 0x60 DUP6 ADD MLOAD PUSH1 0xFF NOT SWAP2 DUP3 AND PUSH1 0xFF SWAP1 SWAP5 AND SWAP4 SWAP1 SWAP4 OR PUSH21 0xFFFFFFFFFFFFFFFFFFFFFFFFFFFFFFFFFFFFFFFF00 NOT AND PUSH2 0x100 PUSH1 0x1 PUSH1 0xA0 PUSH1 0x2 EXP SUB SWAP5 DUP6 AND MUL OR SWAP1 SWAP2 SSTORE PUSH1 0x80 DUP5 ADD MLOAD PUSH1 0x3 DUP5 ADD DUP1 SLOAD PUSH20 0xFFFFFFFFFFFFFFFFFFFFFFFFFFFFFFFFFFFFFFFF NOT AND SWAP2 SWAP1 SWAP4 AND OR SWAP1 SWAP2 SSTORE PUSH1 0xA0 DUP4 ADD MLOAD PUSH1 0x4 DUP4 ADD SSTORE PUSH1 0xC0 DUP4 ADD MLOAD PUSH1 0x5 DUP4 ADD SSTORE PUSH1 0xE0 SWAP1 SWAP3 ADD MLOAD PUSH1 0x6 SWAP1 SWAP2 ADD DUP1 SLOAD SWAP1 SWAP3 AND SWAP1 ISZERO ISZERO OR SWAP1 SSTORE SWAP4 SWAP3 POP POP POP JUMP JUMPDEST PUSH1 0x0 DUP1 DUP1 JUMPDEST PUSH1 0x2 SLOAD PUSH1 0xFF SWAP1 DUP2 AND SWAP1 DUP3 AND LT ISZERO PUSH2 0xBD9 JUMPI PUSH1 0xFF DUP1 DUP3 AND PUSH1 0x0 SWAP1 DUP2 MSTORE PUSH1 0x1 PUSH1 0x20 DUP2 SWAP1 MSTORE PUSH1 0x40 SWAP1 SWAP2 KECCAK256 PUSH1 0x6 ADD SLOAD SWAP1 SWAP2 AND ISZERO ISZERO EQ DUP1 ISZERO PUSH2 0xB98 JUMPI POP DUP2 PUSH1 0xFF AND DUP5 PUSH1 0xFF AND EQ JUMPDEST ISZERO PUSH2 0xBA5 JUMPI DUP2 SWAP3 POP PUSH2 0xBDF JUMP JUMPDEST PUSH1 0xFF DUP1 DUP3 AND PUSH1 0x0 SWAP1 DUP2 MSTORE PUSH1 0x1 PUSH1 0x20 DUP2 SWAP1 MSTORE PUSH1 0x40 SWAP1 SWAP2 KECCAK256 PUSH1 0x6 ADD SLOAD SWAP1 SWAP2 AND ISZERO ISZERO EQ ISZERO PUSH2 0xBD1 JUMPI PUSH1 0x1 SWAP1 SWAP2 ADD SWAP1 JUMPDEST PUSH1 0x1 ADD PUSH2 0xB56 JUMP JUMPDEST PUSH1 0x0 NOT SWAP3 POP JUMPDEST POP POP SWAP2 SWAP1 POP JUMP JUMPDEST DUP3 DUP1 SLOAD PUSH1 0x1 DUP2 PUSH1 0x1 AND ISZERO PUSH2 0x100 MUL SUB AND PUSH1 0x2 SWAP1 DIV SWAP1 PUSH1 0x0 MSTORE PUSH1 0x20 PUSH1 0x0 KECCAK256 SWAP1 PUSH1 0x1F ADD PUSH1 0x20 SWAP1 DIV DUP2 ADD SWAP3 DUP3 PUSH1 0x1F LT PUSH2 0xC27 JUMPI DUP1 MLOAD PUSH1 0xFF NOT AND DUP4 DUP1 ADD OR DUP6 SSTORE PUSH2 0xC54 JUMP JUMPDEST DUP3 DUP1 ADD PUSH1 0x1 ADD DUP6 SSTORE DUP3 ISZERO PUSH2 0xC54 JUMPI SWAP2 DUP3 ADD JUMPDEST DUP3 DUP2 GT ISZERO PUSH2 0xC54 JUMPI DUP3 MLOAD DUP3 SSTORE SWAP2 PUSH1 0x20 ADD SWAP2 SWAP1 PUSH1 0x1 ADD SWAP1 PUSH2 0xC39 JUMP JUMPDEST POP PUSH2 0xC60 SWAP3 SWAP2 POP PUSH2 0xC64 JUMP JUMPDEST POP SWAP1 JUMP JUMPDEST PUSH2 0xC7E SWAP2 SWAP1 JUMPDEST DUP1 DUP3 GT ISZERO PUSH2 0xC60 JUMPI PUSH1 0x0 DUP2 SSTORE PUSH1 0x1 ADD PUSH2 0xC6A JUMP JUMPDEST SWAP1 JUMP STOP LOG1 PUSH6 0x627A7A723058 KECCAK256 0xd7 0xc6 0xf9 DUP12 0x25 DUP16 0xab PUSH20 0xB797CDA7900DD8D8211F40D77359EBC283FA0CE4 AND SWAP11 0x5f 0xee STOP 0x29 ","sha1":"1fdcdaddc559061fe3299cdb87a50d8712a1c555","source":"pragma solidity ^0.4.25;\n\ncontract TxtDocShare {\n\n    address owner_add;\n    bool status;\n    \n    constructor() public {\n        owner_add = msg.sender;\n        status = true;\n    }\n\n    modifier owner() {\n        require(msg.sender == owner_add, \"Error: Access Denied.\");\n        _;\n    }\n    \n    struct Doc {\n        string docname;\n        string text;\n        uint8 version;\n        address created_by;\n        address last_upd_by;\n        uint created_at;\n        uint last_upd_at;\n        bool status;\n    }\n\n    mapping(uint8=>Doc) public docs;\n    \n    uint8 numDocs;\n    \n    //function to add file to mapping\n\n    function addDoc(string memory docname, string memory text) public owner returns(uint8) {\n        uint8 docID = numDocs++; //assign id of the doc\n        docs[docID] = Doc(docname,text,1, msg.sender, msg.sender, now, now, true); //add the values to the mapping\n        return docID;\n    }\n    \n    function getNumDocs() public view returns(uint8) {\n    \tuint8 numActiveDocs = 0;\n        for(uint8 i = 0;i<numDocs;i++) {\n            if(docs[i].status == true) {\n                numActiveDocs ++;\n            }\n        }\n        return numActiveDocs;\n    }\n    \n    function setStatus(uint8 docID) public owner  {\n    \tdocs[docID].status = false;\n    }\n    \n    function getActiveDoc(uint8 docID) private view returns(uint8){\n    \tuint8 numActiveDocs = 0;\n        for(uint8 i = 0;i<numDocs;i++) {\n            if(docs[i].status == true && docID == numActiveDocs) {\n                return numActiveDocs;\n            }\n            \n            if(docs[i].status == true){\n            \tnumActiveDocs ++;\n            }\n            \n        }\n        \n        return uint8(-1);\n    }\n    \n    function getVersion(uint8 docID) public view returns(uint8) {\n        return docs[docID].version;\n    }\n    \n    function getDoc(uint8 docID) public view returns (string memory, string memory, uint8, address, address, uint, uint) {\n    \tuint8 numDocs = getActiveDoc(docID);\n        return (docs[numDocs].docname, docs[numDocs].text, docs[numDocs].version, docs[numDocs].created_by, docs[numDocs].last_upd_by, docs[numDocs].created_at, docs[numDocs].last_upd_at);\n    }\n    \n    function editDoc(uint8 docID, string memory docname, string memory text, uint8 currentversion) public returns(uint8) {\n    \tuint8 numDocs = getActiveDoc(docID);\n    \tuint8 nextVersion = currentversion + 1;\n    \tbytes memory tempDocname = bytes(docname);\n    \tbytes memory tempText = bytes(text);\n    \tuint8 result = uint8(1);\n    \t\n    \tif(tempDocname.length != 0) {\n    \t\tdocs[numDocs].docname = docname;\n    \t}\n    \t\n    \tif(tempText.length != 0) {\n    \t\tdocs[numDocs].text = text;\n    \t}\n    \t\n    \tif(tempText.length != 0 || tempDocname.length != 0) {\n    \t\tdocs[numDocs].version = nextVersion;\n    \t\tdocs[numDocs].last_upd_by = msg.sender;\n    \t\tdocs[numDocs].last_upd_at = now;\n    \t\treturn result;\n    \t}\n    \t\n    \tresult = uint8(-1);\n    \treturn result;\n    \t\n    } \n\n}\n","sourcePath":"contracts/txtDocShare.sol","type":"contract","deployment":{"address":"0x9Ff31Be79C7cDFF03455A5842d2621D67d949965","chainid":"42","blockHeight":33452526}}